{
	"VendingMachine.sol": {
		"VendingMachineContract": {
			"abi": [
				{
					"inputs": [],
					"stateMutability": "nonpayable",
					"type": "constructor"
				},
				{
					"anonymous": false,
					"inputs": [
						{
							"indexed": false,
							"internalType": "address",
							"name": "_buyer",
							"type": "address"
						},
						{
							"indexed": false,
							"internalType": "string",
							"name": "_productName",
							"type": "string"
						},
						{
							"indexed": false,
							"internalType": "uint256",
							"name": "_price",
							"type": "uint256"
						}
					],
					"name": "LogTransaction",
					"type": "event"
				},
				{
					"inputs": [
						{
							"internalType": "enum VendingMachineContract.ProductCategories",
							"name": "",
							"type": "uint8"
						},
						{
							"internalType": "uint256",
							"name": "",
							"type": "uint256"
						}
					],
					"name": "VendingMachine",
					"outputs": [
						{
							"internalType": "string",
							"name": "name",
							"type": "string"
						},
						{
							"internalType": "uint256",
							"name": "price",
							"type": "uint256"
						},
						{
							"internalType": "uint256",
							"name": "stock",
							"type": "uint256"
						},
						{
							"internalType": "string",
							"name": "image",
							"type": "string"
						}
					],
					"stateMutability": "view",
					"type": "function"
				},
				{
					"inputs": [
						{
							"internalType": "enum VendingMachineContract.ProductCategories",
							"name": "_productType",
							"type": "uint8"
						},
						{
							"internalType": "string",
							"name": "_name",
							"type": "string"
						},
						{
							"internalType": "uint256",
							"name": "_price",
							"type": "uint256"
						},
						{
							"internalType": "uint256",
							"name": "_stock",
							"type": "uint256"
						},
						{
							"internalType": "string",
							"name": "_image",
							"type": "string"
						}
					],
					"name": "addProduct",
					"outputs": [],
					"stateMutability": "nonpayable",
					"type": "function"
				},
				{
					"inputs": [
						{
							"internalType": "enum VendingMachineContract.ProductCategories",
							"name": "_productType",
							"type": "uint8"
						},
						{
							"internalType": "uint256",
							"name": "index",
							"type": "uint256"
						}
					],
					"name": "buyProduct",
					"outputs": [],
					"stateMutability": "payable",
					"type": "function"
				},
				{
					"inputs": [
						{
							"internalType": "address",
							"name": "",
							"type": "address"
						},
						{
							"internalType": "uint256",
							"name": "",
							"type": "uint256"
						}
					],
					"name": "customerBags",
					"outputs": [
						{
							"internalType": "string",
							"name": "productName",
							"type": "string"
						},
						{
							"internalType": "uint256",
							"name": "price",
							"type": "uint256"
						},
						{
							"internalType": "string",
							"name": "image",
							"type": "string"
						},
						{
							"internalType": "uint256",
							"name": "buyDate",
							"type": "uint256"
						}
					],
					"stateMutability": "view",
					"type": "function"
				},
				{
					"inputs": [
						{
							"internalType": "address",
							"name": "_customerAddress",
							"type": "address"
						}
					],
					"name": "getCustomerBag",
					"outputs": [
						{
							"components": [
								{
									"internalType": "string",
									"name": "productName",
									"type": "string"
								},
								{
									"internalType": "uint256",
									"name": "price",
									"type": "uint256"
								},
								{
									"internalType": "string",
									"name": "image",
									"type": "string"
								},
								{
									"internalType": "uint256",
									"name": "buyDate",
									"type": "uint256"
								}
							],
							"internalType": "struct VendingMachineContract.CustomerBag[]",
							"name": "",
							"type": "tuple[]"
						}
					],
					"stateMutability": "view",
					"type": "function"
				},
				{
					"inputs": [
						{
							"internalType": "enum VendingMachineContract.ProductCategories",
							"name": "_productType",
							"type": "uint8"
						}
					],
					"name": "getProducts",
					"outputs": [
						{
							"components": [
								{
									"internalType": "string",
									"name": "name",
									"type": "string"
								},
								{
									"internalType": "uint256",
									"name": "price",
									"type": "uint256"
								},
								{
									"internalType": "uint256",
									"name": "stock",
									"type": "uint256"
								},
								{
									"internalType": "string",
									"name": "image",
									"type": "string"
								}
							],
							"internalType": "struct VendingMachineContract.Product[]",
							"name": "",
							"type": "tuple[]"
						}
					],
					"stateMutability": "view",
					"type": "function"
				},
				{
					"inputs": [],
					"name": "getTransaction",
					"outputs": [
						{
							"components": [
								{
									"internalType": "address",
									"name": "buyer",
									"type": "address"
								},
								{
									"internalType": "string",
									"name": "productName",
									"type": "string"
								},
								{
									"internalType": "uint256",
									"name": "price",
									"type": "uint256"
								}
							],
							"internalType": "struct VendingMachineContract.Transaction[]",
							"name": "",
							"type": "tuple[]"
						}
					],
					"stateMutability": "view",
					"type": "function"
				},
				{
					"inputs": [],
					"name": "owner",
					"outputs": [
						{
							"internalType": "address payable",
							"name": "",
							"type": "address"
						}
					],
					"stateMutability": "view",
					"type": "function"
				},
				{
					"inputs": [],
					"name": "ownerBalance",
					"outputs": [
						{
							"internalType": "uint256",
							"name": "",
							"type": "uint256"
						}
					],
					"stateMutability": "view",
					"type": "function"
				},
				{
					"inputs": [
						{
							"internalType": "uint256",
							"name": "",
							"type": "uint256"
						}
					],
					"name": "transactions",
					"outputs": [
						{
							"internalType": "address",
							"name": "buyer",
							"type": "address"
						},
						{
							"internalType": "string",
							"name": "productName",
							"type": "string"
						},
						{
							"internalType": "uint256",
							"name": "price",
							"type": "uint256"
						}
					],
					"stateMutability": "view",
					"type": "function"
				},
				{
					"inputs": [
						{
							"internalType": "enum VendingMachineContract.ProductCategories",
							"name": "_productType",
							"type": "uint8"
						},
						{
							"internalType": "uint256",
							"name": "index",
							"type": "uint256"
						},
						{
							"internalType": "uint256",
							"name": "_price",
							"type": "uint256"
						}
					],
					"name": "updatePrice",
					"outputs": [],
					"stateMutability": "nonpayable",
					"type": "function"
				},
				{
					"inputs": [
						{
							"internalType": "enum VendingMachineContract.ProductCategories",
							"name": "_productType",
							"type": "uint8"
						},
						{
							"internalType": "uint256",
							"name": "index",
							"type": "uint256"
						},
						{
							"internalType": "uint256",
							"name": "_amount",
							"type": "uint256"
						}
					],
					"name": "updateStock",
					"outputs": [],
					"stateMutability": "nonpayable",
					"type": "function"
				},
				{
					"inputs": [
						{
							"internalType": "uint256",
							"name": "_amount",
							"type": "uint256"
						}
					],
					"name": "widthdrawBalance",
					"outputs": [],
					"stateMutability": "payable",
					"type": "function"
				}
			],
			"devdoc": {
				"kind": "dev",
				"methods": {},
				"version": 1
			},
			"evm": {
				"assembly": "    /* \"VendingMachine.sol\":66:3483  contract VendingMachineContract {... */\n  mstore(0x40, 0x80)\n    /* \"VendingMachine.sol\":1042:1098  constructor() {... */\n  callvalue\n  dup1\n  iszero\n  tag_1\n  jumpi\n  0x00\n  dup1\n  revert\ntag_1:\n  pop\n    /* \"VendingMachine.sol\":1081:1091  msg.sender */\n  caller\n    /* \"VendingMachine.sol\":1065:1070  owner */\n  0x00\n  dup1\n    /* \"VendingMachine.sol\":1065:1092  owner = payable(msg.sender) */\n  0x0100\n  exp\n  dup2\n  sload\n  dup2\n  0xffffffffffffffffffffffffffffffffffffffff\n  mul\n  not\n  and\n  swap1\n  dup4\n  0xffffffffffffffffffffffffffffffffffffffff\n  and\n  mul\n  or\n  swap1\n  sstore\n  pop\n    /* \"VendingMachine.sol\":66:3483  contract VendingMachineContract {... */\n  dataSize(sub_0)\n  dup1\n  dataOffset(sub_0)\n  0x00\n  codecopy\n  0x00\n  return\nstop\n\nsub_0: assembly {\n        /* \"VendingMachine.sol\":66:3483  contract VendingMachineContract {... */\n      mstore(0x40, 0x80)\n      jumpi(tag_1, lt(calldatasize, 0x04))\n      shr(0xe0, calldataload(0x00))\n      dup1\n      0x9ee0918f\n      gt\n      tag_15\n      jumpi\n      dup1\n      0xd616aad2\n      gt\n      tag_16\n      jumpi\n      dup1\n      0xd616aad2\n      eq\n      tag_11\n      jumpi\n      dup1\n      0xd6920a4d\n      eq\n      tag_12\n      jumpi\n      dup1\n      0xe04f38da\n      eq\n      tag_13\n      jumpi\n      dup1\n      0xedf16c0e\n      eq\n      tag_14\n      jumpi\n      jump(tag_1)\n    tag_16:\n      dup1\n      0x9ee0918f\n      eq\n      tag_8\n      jumpi\n      dup1\n      0xa5fe9948\n      eq\n      tag_9\n      jumpi\n      dup1\n      0xbedcf003\n      eq\n      tag_10\n      jumpi\n      jump(tag_1)\n    tag_15:\n      dup1\n      0x4bc8e34b\n      eq\n      tag_2\n      jumpi\n      dup1\n      0x59705f81\n      eq\n      tag_3\n      jumpi\n      dup1\n      0x8a366757\n      eq\n      tag_4\n      jumpi\n      dup1\n      0x8da5cb5b\n      eq\n      tag_5\n      jumpi\n      dup1\n      0x9ace38c2\n      eq\n      tag_6\n      jumpi\n      dup1\n      0x9ba06cdc\n      eq\n      tag_7\n      jumpi\n    tag_1:\n      0x00\n      dup1\n      revert\n        /* \"VendingMachine.sol\":1439:1715  function addProduct(... */\n    tag_2:\n      callvalue\n      dup1\n      iszero\n      tag_17\n      jumpi\n      0x00\n      dup1\n      revert\n    tag_17:\n      pop\n      tag_18\n      0x04\n      dup1\n      calldatasize\n      sub\n      dup2\n      add\n      swap1\n      tag_19\n      swap2\n      swap1\n      tag_20\n      jump\t// in\n    tag_19:\n      tag_21\n      jump\t// in\n    tag_18:\n      stop\n        /* \"VendingMachine.sol\":2965:3329  function getTransaction() public view returns (Transaction[] memory) {... */\n    tag_3:\n      callvalue\n      dup1\n      iszero\n      tag_22\n      jumpi\n      0x00\n      dup1\n      revert\n    tag_22:\n      pop\n      tag_23\n      tag_24\n      jump\t// in\n    tag_23:\n      mload(0x40)\n      tag_25\n      swap2\n      swap1\n      tag_26\n      jump\t// in\n    tag_25:\n      mload(0x40)\n      dup1\n      swap2\n      sub\n      swap1\n      return\n        /* \"VendingMachine.sol\":2746:2958  function widthdrawBalance(uint256 _amount) public payable onlyOwner {... */\n    tag_4:\n      tag_27\n      0x04\n      dup1\n      calldatasize\n      sub\n      dup2\n      add\n      swap1\n      tag_28\n      swap2\n      swap1\n      tag_29\n      jump\t// in\n    tag_28:\n      tag_30\n      jump\t// in\n    tag_27:\n      stop\n        /* \"VendingMachine.sol\":124:152  address payable public owner */\n    tag_5:\n      callvalue\n      dup1\n      iszero\n      tag_31\n      jumpi\n      0x00\n      dup1\n      revert\n    tag_31:\n      pop\n      tag_32\n      tag_33\n      jump\t// in\n    tag_32:\n      mload(0x40)\n      tag_34\n      swap2\n      swap1\n      tag_35\n      jump\t// in\n    tag_34:\n      mload(0x40)\n      dup1\n      swap2\n      sub\n      swap1\n      return\n        /* \"VendingMachine.sol\":771:804  Transaction[] public transactions */\n    tag_6:\n      callvalue\n      dup1\n      iszero\n      tag_36\n      jumpi\n      0x00\n      dup1\n      revert\n    tag_36:\n      pop\n      tag_37\n      0x04\n      dup1\n      calldatasize\n      sub\n      dup2\n      add\n      swap1\n      tag_38\n      swap2\n      swap1\n      tag_29\n      jump\t// in\n    tag_38:\n      tag_39\n      jump\t// in\n    tag_37:\n      mload(0x40)\n      tag_40\n      swap4\n      swap3\n      swap2\n      swap1\n      tag_41\n      jump\t// in\n    tag_40:\n      mload(0x40)\n      dup1\n      swap2\n      sub\n      swap1\n      return\n        /* \"VendingMachine.sol\":2117:2740  function buyProduct(... */\n    tag_7:\n      tag_42\n      0x04\n      dup1\n      calldatasize\n      sub\n      dup2\n      add\n      swap1\n      tag_43\n      swap2\n      swap1\n      tag_44\n      jump\t// in\n    tag_43:\n      tag_45\n      jump\t// in\n    tag_42:\n      stop\n        /* \"VendingMachine.sol\":3335:3480  function getCustomerBag(address _customerAddress) public view returns (CustomerBag[] memory) {... */\n    tag_8:\n      callvalue\n      dup1\n      iszero\n      tag_46\n      jumpi\n      0x00\n      dup1\n      revert\n    tag_46:\n      pop\n      tag_47\n      0x04\n      dup1\n      calldatasize\n      sub\n      dup2\n      add\n      swap1\n      tag_48\n      swap2\n      swap1\n      tag_49\n      jump\t// in\n    tag_48:\n      tag_50\n      jump\t// in\n    tag_47:\n      mload(0x40)\n      tag_51\n      swap2\n      swap1\n      tag_52\n      jump\t// in\n    tag_51:\n      mload(0x40)\n      dup1\n      swap2\n      sub\n      swap1\n      return\n        /* \"VendingMachine.sol\":1293:1433  function getProducts(ProductCategories _productType) public view returns(Product[] memory) {... */\n    tag_9:\n      callvalue\n      dup1\n      iszero\n      tag_53\n      jumpi\n      0x00\n      dup1\n      revert\n    tag_53:\n      pop\n      tag_54\n      0x04\n      dup1\n      calldatasize\n      sub\n      dup2\n      add\n      swap1\n      tag_55\n      swap2\n      swap1\n      tag_56\n      jump\t// in\n    tag_55:\n      tag_57\n      jump\t// in\n    tag_54:\n      mload(0x40)\n      tag_58\n      swap2\n      swap1\n      tag_59\n      jump\t// in\n    tag_58:\n      mload(0x40)\n      dup1\n      swap2\n      sub\n      swap1\n      return\n        /* \"VendingMachine.sol\":205:229  uint public ownerBalance */\n    tag_10:\n      callvalue\n      dup1\n      iszero\n      tag_60\n      jumpi\n      0x00\n      dup1\n      revert\n    tag_60:\n      pop\n      tag_61\n      tag_62\n      jump\t// in\n    tag_61:\n      mload(0x40)\n      tag_63\n      swap2\n      swap1\n      tag_64\n      jump\t// in\n    tag_63:\n      mload(0x40)\n      dup1\n      swap2\n      sub\n      swap1\n      return\n        /* \"VendingMachine.sol\":859:921  mapping (ProductCategories => Product[]) public VendingMachine */\n    tag_11:\n      callvalue\n      dup1\n      iszero\n      tag_65\n      jumpi\n      0x00\n      dup1\n      revert\n    tag_65:\n      pop\n      tag_66\n      0x04\n      dup1\n      calldatasize\n      sub\n      dup2\n      add\n      swap1\n      tag_67\n      swap2\n      swap1\n      tag_44\n      jump\t// in\n    tag_67:\n      tag_68\n      jump\t// in\n    tag_66:\n      mload(0x40)\n      tag_69\n      swap5\n      swap4\n      swap3\n      swap2\n      swap1\n      tag_70\n      jump\t// in\n    tag_69:\n      mload(0x40)\n      dup1\n      swap2\n      sub\n      swap1\n      return\n        /* \"VendingMachine.sol\":981:1035  mapping (address => CustomerBag[]) public customerBags */\n    tag_12:\n      callvalue\n      dup1\n      iszero\n      tag_71\n      jumpi\n      0x00\n      dup1\n      revert\n    tag_71:\n      pop\n      tag_72\n      0x04\n      dup1\n      calldatasize\n      sub\n      dup2\n      add\n      swap1\n      tag_73\n      swap2\n      swap1\n      tag_74\n      jump\t// in\n    tag_73:\n      tag_75\n      jump\t// in\n    tag_72:\n      mload(0x40)\n      tag_76\n      swap5\n      swap4\n      swap3\n      swap2\n      swap1\n      tag_77\n      jump\t// in\n    tag_76:\n      mload(0x40)\n      dup1\n      swap2\n      sub\n      swap1\n      return\n        /* \"VendingMachine.sol\":1920:2111  function updatePrice(... */\n    tag_13:\n      callvalue\n      dup1\n      iszero\n      tag_78\n      jumpi\n      0x00\n      dup1\n      revert\n    tag_78:\n      pop\n      tag_79\n      0x04\n      dup1\n      calldatasize\n      sub\n      dup2\n      add\n      swap1\n      tag_80\n      swap2\n      swap1\n      tag_81\n      jump\t// in\n    tag_80:\n      tag_82\n      jump\t// in\n    tag_79:\n      stop\n        /* \"VendingMachine.sol\":1721:1914  function updateStock(... */\n    tag_14:\n      callvalue\n      dup1\n      iszero\n      tag_83\n      jumpi\n      0x00\n      dup1\n      revert\n    tag_83:\n      pop\n      tag_84\n      0x04\n      dup1\n      calldatasize\n      sub\n      dup2\n      add\n      swap1\n      tag_85\n      swap2\n      swap1\n      tag_81\n      jump\t// in\n    tag_85:\n      tag_86\n      jump\t// in\n    tag_84:\n      stop\n        /* \"VendingMachine.sol\":1439:1715  function addProduct(... */\n    tag_21:\n        /* \"VendingMachine.sol\":1156:1161  owner */\n      0x00\n      dup1\n      sload\n      swap1\n      0x0100\n      exp\n      swap1\n      div\n      0xffffffffffffffffffffffffffffffffffffffff\n      and\n        /* \"VendingMachine.sol\":1142:1161  msg.sender == owner */\n      0xffffffffffffffffffffffffffffffffffffffff\n      and\n        /* \"VendingMachine.sol\":1142:1152  msg.sender */\n      caller\n        /* \"VendingMachine.sol\":1142:1161  msg.sender == owner */\n      0xffffffffffffffffffffffffffffffffffffffff\n      and\n      eq\n        /* \"VendingMachine.sol\":1134:1189  require(msg.sender == owner, \"You dont have authorize\") */\n      tag_88\n      jumpi\n      mload(0x40)\n      0x08c379a000000000000000000000000000000000000000000000000000000000\n      dup2\n      mstore\n      0x04\n      add\n      tag_89\n      swap1\n      tag_90\n      jump\t// in\n    tag_89:\n      mload(0x40)\n      dup1\n      swap2\n      sub\n      swap1\n      revert\n    tag_88:\n        /* \"VendingMachine.sol\":1636:1650  VendingMachine */\n      0x03\n        /* \"VendingMachine.sol\":1636:1664  VendingMachine[_productType] */\n      0x00\n        /* \"VendingMachine.sol\":1651:1663  _productType */\n      dup7\n        /* \"VendingMachine.sol\":1636:1664  VendingMachine[_productType] */\n      0x01\n      dup2\n      gt\n      iszero\n      tag_92\n      jumpi\n      tag_93\n      tag_94\n      jump\t// in\n    tag_93:\n    tag_92:\n      0x01\n      dup2\n      gt\n      iszero\n      tag_95\n      jumpi\n      tag_96\n      tag_94\n      jump\t// in\n    tag_96:\n    tag_95:\n      dup2\n      mstore\n      0x20\n      add\n      swap1\n      dup2\n      mstore\n      0x20\n      add\n      0x00\n      keccak256\n        /* \"VendingMachine.sol\":1670:1708  Product(_name, _price, _stock, _image) */\n      mload(0x40)\n      dup1\n      0x80\n      add\n      0x40\n      mstore\n      dup1\n        /* \"VendingMachine.sol\":1678:1683  _name */\n      dup7\n        /* \"VendingMachine.sol\":1670:1708  Product(_name, _price, _stock, _image) */\n      dup2\n      mstore\n      0x20\n      add\n        /* \"VendingMachine.sol\":1685:1691  _price */\n      dup6\n        /* \"VendingMachine.sol\":1670:1708  Product(_name, _price, _stock, _image) */\n      dup2\n      mstore\n      0x20\n      add\n        /* \"VendingMachine.sol\":1693:1699  _stock */\n      dup5\n        /* \"VendingMachine.sol\":1670:1708  Product(_name, _price, _stock, _image) */\n      dup2\n      mstore\n      0x20\n      add\n        /* \"VendingMachine.sol\":1701:1707  _image */\n      dup4\n        /* \"VendingMachine.sol\":1670:1708  Product(_name, _price, _stock, _image) */\n      dup2\n      mstore\n      pop\n        /* \"VendingMachine.sol\":1636:1709  VendingMachine[_productType].push(Product(_name, _price, _stock, _image)) */\n      swap1\n      dup1\n      0x01\n      dup2\n      sload\n      add\n      dup1\n      dup3\n      sstore\n      dup1\n      swap2\n      pop\n      pop\n      0x01\n      swap1\n      sub\n      swap1\n      0x00\n      mstore\n      keccak256(0x00, 0x20)\n      swap1\n      0x04\n      mul\n      add\n      0x00\n      swap1\n      swap2\n      swap1\n      swap2\n      swap1\n      swap2\n      pop\n      0x00\n      dup3\n      add\n      mload\n      dup2\n      0x00\n      add\n      swap1\n      dup2\n      tag_98\n      swap2\n      swap1\n      tag_99\n      jump\t// in\n    tag_98:\n      pop\n      0x20\n      dup3\n      add\n      mload\n      dup2\n      0x01\n      add\n      sstore\n      0x40\n      dup3\n      add\n      mload\n      dup2\n      0x02\n      add\n      sstore\n      0x60\n      dup3\n      add\n      mload\n      dup2\n      0x03\n      add\n      swap1\n      dup2\n      tag_100\n      swap2\n      swap1\n      tag_99\n      jump\t// in\n    tag_100:\n      pop\n      pop\n      pop\n        /* \"VendingMachine.sol\":1439:1715  function addProduct(... */\n      pop\n      pop\n      pop\n      pop\n      pop\n      jump\t// out\n        /* \"VendingMachine.sol\":2965:3329  function getTransaction() public view returns (Transaction[] memory) {... */\n    tag_24:\n        /* \"VendingMachine.sol\":3012:3032  Transaction[] memory */\n      0x60\n        /* \"VendingMachine.sol\":3043:3079  Transaction[] memory allTransactions */\n      0x00\n        /* \"VendingMachine.sol\":3100:3112  transactions */\n      0x02\n        /* \"VendingMachine.sol\":3100:3119  transactions.length */\n      dup1\n      sload\n      swap1\n      pop\n        /* \"VendingMachine.sol\":3082:3120  new Transaction[](transactions.length) */\n      0xffffffffffffffff\n      dup2\n      gt\n      iszero\n      tag_102\n      jumpi\n      tag_103\n      tag_104\n      jump\t// in\n    tag_103:\n    tag_102:\n      mload(0x40)\n      swap1\n      dup1\n      dup3\n      mstore\n      dup1\n      0x20\n      mul\n      0x20\n      add\n      dup3\n      add\n      0x40\n      mstore\n      dup1\n      iszero\n      tag_105\n      jumpi\n      dup2\n      0x20\n      add\n    tag_106:\n      tag_107\n      tag_108\n      jump\t// in\n    tag_107:\n      dup2\n      mstore\n      0x20\n      add\n      swap1\n      0x01\n      swap1\n      sub\n      swap1\n      dup2\n      tag_106\n      jumpi\n      swap1\n      pop\n    tag_105:\n      pop\n        /* \"VendingMachine.sol\":3043:3120  Transaction[] memory allTransactions = new Transaction[](transactions.length) */\n      swap1\n      pop\n        /* \"VendingMachine.sol\":3134:3140  uint i */\n      0x00\n        /* \"VendingMachine.sol\":3129:3293  for (uint i = 0; i < transactions.length; i++) {... */\n    tag_109:\n        /* \"VendingMachine.sol\":3150:3162  transactions */\n      0x02\n        /* \"VendingMachine.sol\":3150:3169  transactions.length */\n      dup1\n      sload\n      swap1\n      pop\n        /* \"VendingMachine.sol\":3146:3147  i */\n      dup2\n        /* \"VendingMachine.sol\":3146:3169  i < transactions.length */\n      lt\n        /* \"VendingMachine.sol\":3129:3293  for (uint i = 0; i < transactions.length; i++) {... */\n      iszero\n      tag_110\n      jumpi\n        /* \"VendingMachine.sol\":3189:3220  Transaction storage transaction */\n      0x00\n        /* \"VendingMachine.sol\":3223:3235  transactions */\n      0x02\n        /* \"VendingMachine.sol\":3236:3237  i */\n      dup3\n        /* \"VendingMachine.sol\":3223:3238  transactions[i] */\n      dup2\n      sload\n      dup2\n      lt\n      tag_112\n      jumpi\n      tag_113\n      tag_114\n      jump\t// in\n    tag_113:\n    tag_112:\n      swap1\n      0x00\n      mstore\n      keccak256(0x00, 0x20)\n      swap1\n      0x03\n      mul\n      add\n        /* \"VendingMachine.sol\":3189:3238  Transaction storage transaction = transactions[i] */\n      swap1\n      pop\n        /* \"VendingMachine.sol\":3272:3283  transaction */\n      dup1\n        /* \"VendingMachine.sol\":3251:3283  allTransactions[i] = transaction */\n      mload(0x40)\n      dup1\n      0x60\n      add\n      0x40\n      mstore\n      swap1\n      dup2\n      0x00\n      dup3\n      add\n      0x00\n      swap1\n      sload\n      swap1\n      0x0100\n      exp\n      swap1\n      div\n      0xffffffffffffffffffffffffffffffffffffffff\n      and\n      0xffffffffffffffffffffffffffffffffffffffff\n      and\n      0xffffffffffffffffffffffffffffffffffffffff\n      and\n      dup2\n      mstore\n      0x20\n      add\n      0x01\n      dup3\n      add\n      dup1\n      sload\n      tag_116\n      swap1\n      tag_117\n      jump\t// in\n    tag_116:\n      dup1\n      0x1f\n      add\n      0x20\n      dup1\n      swap2\n      div\n      mul\n      0x20\n      add\n      mload(0x40)\n      swap1\n      dup2\n      add\n      0x40\n      mstore\n      dup1\n      swap3\n      swap2\n      swap1\n      dup2\n      dup2\n      mstore\n      0x20\n      add\n      dup3\n      dup1\n      sload\n      tag_118\n      swap1\n      tag_117\n      jump\t// in\n    tag_118:\n      dup1\n      iszero\n      tag_119\n      jumpi\n      dup1\n      0x1f\n      lt\n      tag_120\n      jumpi\n      0x0100\n      dup1\n      dup4\n      sload\n      div\n      mul\n      dup4\n      mstore\n      swap2\n      0x20\n      add\n      swap2\n      jump(tag_119)\n    tag_120:\n      dup3\n      add\n      swap2\n      swap1\n      0x00\n      mstore\n      keccak256(0x00, 0x20)\n      swap1\n    tag_121:\n      dup2\n      sload\n      dup2\n      mstore\n      swap1\n      0x01\n      add\n      swap1\n      0x20\n      add\n      dup1\n      dup4\n      gt\n      tag_121\n      jumpi\n      dup3\n      swap1\n      sub\n      0x1f\n      and\n      dup3\n      add\n      swap2\n    tag_119:\n      pop\n      pop\n      pop\n      pop\n      pop\n      dup2\n      mstore\n      0x20\n      add\n      0x02\n      dup3\n      add\n      sload\n      dup2\n      mstore\n      pop\n      pop\n        /* \"VendingMachine.sol\":3251:3266  allTransactions */\n      dup4\n        /* \"VendingMachine.sol\":3267:3268  i */\n      dup4\n        /* \"VendingMachine.sol\":3251:3269  allTransactions[i] */\n      dup2\n      mload\n      dup2\n      lt\n      tag_122\n      jumpi\n      tag_123\n      tag_114\n      jump\t// in\n    tag_123:\n    tag_122:\n      0x20\n      mul\n      0x20\n      add\n      add\n        /* \"VendingMachine.sol\":3251:3283  allTransactions[i] = transaction */\n      dup2\n      swap1\n      mstore\n      pop\n        /* \"VendingMachine.sol\":3176:3293  {... */\n      pop\n        /* \"VendingMachine.sol\":3171:3174  i++ */\n      dup1\n      dup1\n      0x01\n      add\n      swap2\n      pop\n      pop\n        /* \"VendingMachine.sol\":3129:3293  for (uint i = 0; i < transactions.length; i++) {... */\n      jump(tag_109)\n    tag_110:\n      pop\n        /* \"VendingMachine.sol\":3308:3323  allTransactions */\n      dup1\n        /* \"VendingMachine.sol\":3301:3323  return allTransactions */\n      swap2\n      pop\n      pop\n        /* \"VendingMachine.sol\":2965:3329  function getTransaction() public view returns (Transaction[] memory) {... */\n      swap1\n      jump\t// out\n        /* \"VendingMachine.sol\":2746:2958  function widthdrawBalance(uint256 _amount) public payable onlyOwner {... */\n    tag_30:\n        /* \"VendingMachine.sol\":1156:1161  owner */\n      0x00\n      dup1\n      sload\n      swap1\n      0x0100\n      exp\n      swap1\n      div\n      0xffffffffffffffffffffffffffffffffffffffff\n      and\n        /* \"VendingMachine.sol\":1142:1161  msg.sender == owner */\n      0xffffffffffffffffffffffffffffffffffffffff\n      and\n        /* \"VendingMachine.sol\":1142:1152  msg.sender */\n      caller\n        /* \"VendingMachine.sol\":1142:1161  msg.sender == owner */\n      0xffffffffffffffffffffffffffffffffffffffff\n      and\n      eq\n        /* \"VendingMachine.sol\":1134:1189  require(msg.sender == owner, \"You dont have authorize\") */\n      tag_125\n      jumpi\n      mload(0x40)\n      0x08c379a000000000000000000000000000000000000000000000000000000000\n      dup2\n      mstore\n      0x04\n      add\n      tag_126\n      swap1\n      tag_90\n      jump\t// in\n    tag_126:\n      mload(0x40)\n      dup1\n      swap2\n      sub\n      swap1\n      revert\n    tag_125:\n        /* \"VendingMachine.sol\":2842:2854  ownerBalance */\n      sload(0x01)\n        /* \"VendingMachine.sol\":2831:2838  _amount */\n      dup2\n        /* \"VendingMachine.sol\":2831:2854  _amount <= ownerBalance */\n      gt\n      iszero\n        /* \"VendingMachine.sol\":2823:2879  require(_amount <= ownerBalance, \"Insufficient balance\") */\n      tag_128\n      jumpi\n      mload(0x40)\n      0x08c379a000000000000000000000000000000000000000000000000000000000\n      dup2\n      mstore\n      0x04\n      add\n      tag_129\n      swap1\n      tag_130\n      jump\t// in\n    tag_129:\n      mload(0x40)\n      dup1\n      swap2\n      sub\n      swap1\n      revert\n    tag_128:\n        /* \"VendingMachine.sol\":2904:2911  _amount */\n      dup1\n        /* \"VendingMachine.sol\":2888:2900  ownerBalance */\n      0x01\n      0x00\n        /* \"VendingMachine.sol\":2888:2911  ownerBalance -= _amount */\n      dup3\n      dup3\n      sload\n      tag_131\n      swap2\n      swap1\n      tag_132\n      jump\t// in\n    tag_131:\n      swap3\n      pop\n      pop\n      dup2\n      swap1\n      sstore\n      pop\n        /* \"VendingMachine.sol\":2928:2933  owner */\n      0x00\n      dup1\n      sload\n      swap1\n      0x0100\n      exp\n      swap1\n      div\n      0xffffffffffffffffffffffffffffffffffffffff\n      and\n        /* \"VendingMachine.sol\":2920:2943  payable(owner).transfer */\n      0xffffffffffffffffffffffffffffffffffffffff\n      and\n        /* \"VendingMachine.sol\":2920:2952  payable(owner).transfer(_amount) */\n      0x08fc\n        /* \"VendingMachine.sol\":2944:2951  _amount */\n      dup3\n        /* \"VendingMachine.sol\":2920:2952  payable(owner).transfer(_amount) */\n      swap1\n      dup2\n      iszero\n      mul\n      swap1\n      mload(0x40)\n      0x00\n      mload(0x40)\n      dup1\n      dup4\n      sub\n      dup2\n      dup6\n      dup9\n      dup9\n      call\n      swap4\n      pop\n      pop\n      pop\n      pop\n      iszero\n      dup1\n      iszero\n      tag_134\n      jumpi\n      returndatasize\n      0x00\n      dup1\n      returndatacopy\n      revert(0x00, returndatasize)\n    tag_134:\n      pop\n        /* \"VendingMachine.sol\":2746:2958  function widthdrawBalance(uint256 _amount) public payable onlyOwner {... */\n      pop\n      jump\t// out\n        /* \"VendingMachine.sol\":124:152  address payable public owner */\n    tag_33:\n      0x00\n      dup1\n      sload\n      swap1\n      0x0100\n      exp\n      swap1\n      div\n      0xffffffffffffffffffffffffffffffffffffffff\n      and\n      dup2\n      jump\t// out\n        /* \"VendingMachine.sol\":771:804  Transaction[] public transactions */\n    tag_39:\n      0x02\n      dup2\n      dup2\n      sload\n      dup2\n      lt\n      tag_135\n      jumpi\n      0x00\n      dup1\n      revert\n    tag_135:\n      swap1\n      0x00\n      mstore\n      keccak256(0x00, 0x20)\n      swap1\n      0x03\n      mul\n      add\n      0x00\n      swap2\n      pop\n      swap1\n      pop\n      dup1\n      0x00\n      add\n      0x00\n      swap1\n      sload\n      swap1\n      0x0100\n      exp\n      swap1\n      div\n      0xffffffffffffffffffffffffffffffffffffffff\n      and\n      swap1\n      dup1\n      0x01\n      add\n      dup1\n      sload\n      tag_137\n      swap1\n      tag_117\n      jump\t// in\n    tag_137:\n      dup1\n      0x1f\n      add\n      0x20\n      dup1\n      swap2\n      div\n      mul\n      0x20\n      add\n      mload(0x40)\n      swap1\n      dup2\n      add\n      0x40\n      mstore\n      dup1\n      swap3\n      swap2\n      swap1\n      dup2\n      dup2\n      mstore\n      0x20\n      add\n      dup3\n      dup1\n      sload\n      tag_138\n      swap1\n      tag_117\n      jump\t// in\n    tag_138:\n      dup1\n      iszero\n      tag_139\n      jumpi\n      dup1\n      0x1f\n      lt\n      tag_140\n      jumpi\n      0x0100\n      dup1\n      dup4\n      sload\n      div\n      mul\n      dup4\n      mstore\n      swap2\n      0x20\n      add\n      swap2\n      jump(tag_139)\n    tag_140:\n      dup3\n      add\n      swap2\n      swap1\n      0x00\n      mstore\n      keccak256(0x00, 0x20)\n      swap1\n    tag_141:\n      dup2\n      sload\n      dup2\n      mstore\n      swap1\n      0x01\n      add\n      swap1\n      0x20\n      add\n      dup1\n      dup4\n      gt\n      tag_141\n      jumpi\n      dup3\n      swap1\n      sub\n      0x1f\n      and\n      dup3\n      add\n      swap2\n    tag_139:\n      pop\n      pop\n      pop\n      pop\n      pop\n      swap1\n      dup1\n      0x02\n      add\n      sload\n      swap1\n      pop\n      dup4\n      jump\t// out\n        /* \"VendingMachine.sol\":2117:2740  function buyProduct(... */\n    tag_45:\n        /* \"VendingMachine.sol\":2225:2248  Product storage product */\n      0x00\n        /* \"VendingMachine.sol\":2251:2265  VendingMachine */\n      0x03\n        /* \"VendingMachine.sol\":2251:2279  VendingMachine[_productType] */\n      0x00\n        /* \"VendingMachine.sol\":2266:2278  _productType */\n      dup5\n        /* \"VendingMachine.sol\":2251:2279  VendingMachine[_productType] */\n      0x01\n      dup2\n      gt\n      iszero\n      tag_143\n      jumpi\n      tag_144\n      tag_94\n      jump\t// in\n    tag_144:\n    tag_143:\n      0x01\n      dup2\n      gt\n      iszero\n      tag_145\n      jumpi\n      tag_146\n      tag_94\n      jump\t// in\n    tag_146:\n    tag_145:\n      dup2\n      mstore\n      0x20\n      add\n      swap1\n      dup2\n      mstore\n      0x20\n      add\n      0x00\n      keccak256\n        /* \"VendingMachine.sol\":2280:2285  index */\n      dup3\n        /* \"VendingMachine.sol\":2251:2286  VendingMachine[_productType][index] */\n      dup2\n      sload\n      dup2\n      lt\n      tag_147\n      jumpi\n      tag_148\n      tag_114\n      jump\t// in\n    tag_148:\n    tag_147:\n      swap1\n      0x00\n      mstore\n      keccak256(0x00, 0x20)\n      swap1\n      0x04\n      mul\n      add\n        /* \"VendingMachine.sol\":2225:2286  Product storage product = VendingMachine[_productType][index] */\n      swap1\n      pop\n        /* \"VendingMachine.sol\":2319:2320  0 */\n      0x00\n        /* \"VendingMachine.sol\":2303:2310  product */\n      dup2\n        /* \"VendingMachine.sol\":2303:2316  product.stock */\n      0x02\n      add\n      sload\n        /* \"VendingMachine.sol\":2303:2320  product.stock > 0 */\n      gt\n        /* \"VendingMachine.sol\":2295:2343  require(product.stock > 0, \"Insufficient stock\") */\n      tag_150\n      jumpi\n      mload(0x40)\n      0x08c379a000000000000000000000000000000000000000000000000000000000\n      dup2\n      mstore\n      0x04\n      add\n      tag_151\n      swap1\n      tag_152\n      jump\t// in\n    tag_151:\n      mload(0x40)\n      dup1\n      swap2\n      sub\n      swap1\n      revert\n    tag_150:\n        /* \"VendingMachine.sol\":2377:2386  msg.value */\n      callvalue\n        /* \"VendingMachine.sol\":2360:2367  product */\n      dup2\n        /* \"VendingMachine.sol\":2360:2373  product.price */\n      0x01\n      add\n      sload\n        /* \"VendingMachine.sol\":2360:2386  product.price == msg.value */\n      eq\n        /* \"VendingMachine.sol\":2352:2411  require(product.price == msg.value, \"Input actual balance\") */\n      tag_153\n      jumpi\n      mload(0x40)\n      0x08c379a000000000000000000000000000000000000000000000000000000000\n      dup2\n      mstore\n      0x04\n      add\n      tag_154\n      swap1\n      tag_155\n      jump\t// in\n    tag_154:\n      mload(0x40)\n      dup1\n      swap2\n      sub\n      swap1\n      revert\n    tag_153:\n        /* \"VendingMachine.sol\":2437:2438  1 */\n      0x01\n        /* \"VendingMachine.sol\":2420:2427  product */\n      dup2\n        /* \"VendingMachine.sol\":2420:2433  product.stock */\n      0x02\n      add\n      0x00\n        /* \"VendingMachine.sol\":2420:2438  product.stock -= 1 */\n      dup3\n      dup3\n      sload\n      tag_156\n      swap2\n      swap1\n      tag_132\n      jump\t// in\n    tag_156:\n      swap3\n      pop\n      pop\n      dup2\n      swap1\n      sstore\n      pop\n        /* \"VendingMachine.sol\":2463:2472  msg.value */\n      callvalue\n        /* \"VendingMachine.sol\":2447:2459  ownerBalance */\n      0x01\n      0x00\n        /* \"VendingMachine.sol\":2447:2472  ownerBalance += msg.value */\n      dup3\n      dup3\n      sload\n      tag_157\n      swap2\n      swap1\n      tag_158\n      jump\t// in\n    tag_157:\n      swap3\n      pop\n      pop\n      dup2\n      swap1\n      sstore\n      pop\n        /* \"VendingMachine.sol\":2482:2494  transactions */\n      0x02\n        /* \"VendingMachine.sol\":2500:2552  Transaction(msg.sender, product.name, product.price) */\n      mload(0x40)\n      dup1\n      0x60\n      add\n      0x40\n      mstore\n      dup1\n        /* \"VendingMachine.sol\":2512:2522  msg.sender */\n      caller\n        /* \"VendingMachine.sol\":2500:2552  Transaction(msg.sender, product.name, product.price) */\n      0xffffffffffffffffffffffffffffffffffffffff\n      and\n      dup2\n      mstore\n      0x20\n      add\n        /* \"VendingMachine.sol\":2524:2531  product */\n      dup4\n        /* \"VendingMachine.sol\":2524:2536  product.name */\n      0x00\n      add\n        /* \"VendingMachine.sol\":2500:2552  Transaction(msg.sender, product.name, product.price) */\n      dup1\n      sload\n      tag_159\n      swap1\n      tag_117\n      jump\t// in\n    tag_159:\n      dup1\n      0x1f\n      add\n      0x20\n      dup1\n      swap2\n      div\n      mul\n      0x20\n      add\n      mload(0x40)\n      swap1\n      dup2\n      add\n      0x40\n      mstore\n      dup1\n      swap3\n      swap2\n      swap1\n      dup2\n      dup2\n      mstore\n      0x20\n      add\n      dup3\n      dup1\n      sload\n      tag_160\n      swap1\n      tag_117\n      jump\t// in\n    tag_160:\n      dup1\n      iszero\n      tag_161\n      jumpi\n      dup1\n      0x1f\n      lt\n      tag_162\n      jumpi\n      0x0100\n      dup1\n      dup4\n      sload\n      div\n      mul\n      dup4\n      mstore\n      swap2\n      0x20\n      add\n      swap2\n      jump(tag_161)\n    tag_162:\n      dup3\n      add\n      swap2\n      swap1\n      0x00\n      mstore\n      keccak256(0x00, 0x20)\n      swap1\n    tag_163:\n      dup2\n      sload\n      dup2\n      mstore\n      swap1\n      0x01\n      add\n      swap1\n      0x20\n      add\n      dup1\n      dup4\n      gt\n      tag_163\n      jumpi\n      dup3\n      swap1\n      sub\n      0x1f\n      and\n      dup3\n      add\n      swap2\n    tag_161:\n      pop\n      pop\n      pop\n      pop\n      pop\n      dup2\n      mstore\n      0x20\n      add\n        /* \"VendingMachine.sol\":2538:2545  product */\n      dup4\n        /* \"VendingMachine.sol\":2538:2551  product.price */\n      0x01\n      add\n      sload\n        /* \"VendingMachine.sol\":2500:2552  Transaction(msg.sender, product.name, product.price) */\n      dup2\n      mstore\n      pop\n        /* \"VendingMachine.sol\":2482:2553  transactions.push(Transaction(msg.sender, product.name, product.price)) */\n      swap1\n      dup1\n      0x01\n      dup2\n      sload\n      add\n      dup1\n      dup3\n      sstore\n      dup1\n      swap2\n      pop\n      pop\n      0x01\n      swap1\n      sub\n      swap1\n      0x00\n      mstore\n      keccak256(0x00, 0x20)\n      swap1\n      0x03\n      mul\n      add\n      0x00\n      swap1\n      swap2\n      swap1\n      swap2\n      swap1\n      swap2\n      pop\n      0x00\n      dup3\n      add\n      mload\n      dup2\n      0x00\n      add\n      exp(0x0100, 0x00)\n      dup2\n      sload\n      dup2\n      0xffffffffffffffffffffffffffffffffffffffff\n      mul\n      not\n      and\n      swap1\n      dup4\n      0xffffffffffffffffffffffffffffffffffffffff\n      and\n      mul\n      or\n      swap1\n      sstore\n      pop\n      0x20\n      dup3\n      add\n      mload\n      dup2\n      0x01\n      add\n      swap1\n      dup2\n      tag_165\n      swap2\n      swap1\n      tag_99\n      jump\t// in\n    tag_165:\n      pop\n      0x40\n      dup3\n      add\n      mload\n      dup2\n      0x02\n      add\n      sstore\n      pop\n      pop\n        /* \"VendingMachine.sol\":2562:2574  customerBags */\n      0x04\n        /* \"VendingMachine.sol\":2562:2586  customerBags[msg.sender] */\n      0x00\n        /* \"VendingMachine.sol\":2575:2585  msg.sender */\n      caller\n        /* \"VendingMachine.sol\":2562:2586  customerBags[msg.sender] */\n      0xffffffffffffffffffffffffffffffffffffffff\n      and\n      0xffffffffffffffffffffffffffffffffffffffff\n      and\n      dup2\n      mstore\n      0x20\n      add\n      swap1\n      dup2\n      mstore\n      0x20\n      add\n      0x00\n      keccak256\n        /* \"VendingMachine.sol\":2592:2664  CustomerBag(product.name, product.price, product.image, block.timestamp) */\n      mload(0x40)\n      dup1\n      0x80\n      add\n      0x40\n      mstore\n      dup1\n        /* \"VendingMachine.sol\":2604:2611  product */\n      dup4\n        /* \"VendingMachine.sol\":2604:2616  product.name */\n      0x00\n      add\n        /* \"VendingMachine.sol\":2592:2664  CustomerBag(product.name, product.price, product.image, block.timestamp) */\n      dup1\n      sload\n      tag_166\n      swap1\n      tag_117\n      jump\t// in\n    tag_166:\n      dup1\n      0x1f\n      add\n      0x20\n      dup1\n      swap2\n      div\n      mul\n      0x20\n      add\n      mload(0x40)\n      swap1\n      dup2\n      add\n      0x40\n      mstore\n      dup1\n      swap3\n      swap2\n      swap1\n      dup2\n      dup2\n      mstore\n      0x20\n      add\n      dup3\n      dup1\n      sload\n      tag_167\n      swap1\n      tag_117\n      jump\t// in\n    tag_167:\n      dup1\n      iszero\n      tag_168\n      jumpi\n      dup1\n      0x1f\n      lt\n      tag_169\n      jumpi\n      0x0100\n      dup1\n      dup4\n      sload\n      div\n      mul\n      dup4\n      mstore\n      swap2\n      0x20\n      add\n      swap2\n      jump(tag_168)\n    tag_169:\n      dup3\n      add\n      swap2\n      swap1\n      0x00\n      mstore\n      keccak256(0x00, 0x20)\n      swap1\n    tag_170:\n      dup2\n      sload\n      dup2\n      mstore\n      swap1\n      0x01\n      add\n      swap1\n      0x20\n      add\n      dup1\n      dup4\n      gt\n      tag_170\n      jumpi\n      dup3\n      swap1\n      sub\n      0x1f\n      and\n      dup3\n      add\n      swap2\n    tag_168:\n      pop\n      pop\n      pop\n      pop\n      pop\n      dup2\n      mstore\n      0x20\n      add\n        /* \"VendingMachine.sol\":2618:2625  product */\n      dup4\n        /* \"VendingMachine.sol\":2618:2631  product.price */\n      0x01\n      add\n      sload\n        /* \"VendingMachine.sol\":2592:2664  CustomerBag(product.name, product.price, product.image, block.timestamp) */\n      dup2\n      mstore\n      0x20\n      add\n        /* \"VendingMachine.sol\":2633:2640  product */\n      dup4\n        /* \"VendingMachine.sol\":2633:2646  product.image */\n      0x03\n      add\n        /* \"VendingMachine.sol\":2592:2664  CustomerBag(product.name, product.price, product.image, block.timestamp) */\n      dup1\n      sload\n      tag_171\n      swap1\n      tag_117\n      jump\t// in\n    tag_171:\n      dup1\n      0x1f\n      add\n      0x20\n      dup1\n      swap2\n      div\n      mul\n      0x20\n      add\n      mload(0x40)\n      swap1\n      dup2\n      add\n      0x40\n      mstore\n      dup1\n      swap3\n      swap2\n      swap1\n      dup2\n      dup2\n      mstore\n      0x20\n      add\n      dup3\n      dup1\n      sload\n      tag_172\n      swap1\n      tag_117\n      jump\t// in\n    tag_172:\n      dup1\n      iszero\n      tag_173\n      jumpi\n      dup1\n      0x1f\n      lt\n      tag_174\n      jumpi\n      0x0100\n      dup1\n      dup4\n      sload\n      div\n      mul\n      dup4\n      mstore\n      swap2\n      0x20\n      add\n      swap2\n      jump(tag_173)\n    tag_174:\n      dup3\n      add\n      swap2\n      swap1\n      0x00\n      mstore\n      keccak256(0x00, 0x20)\n      swap1\n    tag_175:\n      dup2\n      sload\n      dup2\n      mstore\n      swap1\n      0x01\n      add\n      swap1\n      0x20\n      add\n      dup1\n      dup4\n      gt\n      tag_175\n      jumpi\n      dup3\n      swap1\n      sub\n      0x1f\n      and\n      dup3\n      add\n      swap2\n    tag_173:\n      pop\n      pop\n      pop\n      pop\n      pop\n      dup2\n      mstore\n      0x20\n      add\n        /* \"VendingMachine.sol\":2648:2663  block.timestamp */\n      timestamp\n        /* \"VendingMachine.sol\":2592:2664  CustomerBag(product.name, product.price, product.image, block.timestamp) */\n      dup2\n      mstore\n      pop\n        /* \"VendingMachine.sol\":2562:2665  customerBags[msg.sender].push(CustomerBag(product.name, product.price, product.image, block.timestamp)) */\n      swap1\n      dup1\n      0x01\n      dup2\n      sload\n      add\n      dup1\n      dup3\n      sstore\n      dup1\n      swap2\n      pop\n      pop\n      0x01\n      swap1\n      sub\n      swap1\n      0x00\n      mstore\n      keccak256(0x00, 0x20)\n      swap1\n      0x04\n      mul\n      add\n      0x00\n      swap1\n      swap2\n      swap1\n      swap2\n      swap1\n      swap2\n      pop\n      0x00\n      dup3\n      add\n      mload\n      dup2\n      0x00\n      add\n      swap1\n      dup2\n      tag_177\n      swap2\n      swap1\n      tag_99\n      jump\t// in\n    tag_177:\n      pop\n      0x20\n      dup3\n      add\n      mload\n      dup2\n      0x01\n      add\n      sstore\n      0x40\n      dup3\n      add\n      mload\n      dup2\n      0x02\n      add\n      swap1\n      dup2\n      tag_178\n      swap2\n      swap1\n      tag_99\n      jump\t// in\n    tag_178:\n      pop\n      0x60\n      dup3\n      add\n      mload\n      dup2\n      0x03\n      add\n      sstore\n      pop\n      pop\n        /* \"VendingMachine.sol\":2679:2734  LogTransaction(msg.sender, product.name, product.price) */\n      0x2684dcc6eb87e1e9139a0475e85e88be318d84ee8535f407cd8fe2a5ff187fde\n        /* \"VendingMachine.sol\":2694:2704  msg.sender */\n      caller\n        /* \"VendingMachine.sol\":2706:2713  product */\n      dup3\n        /* \"VendingMachine.sol\":2706:2718  product.name */\n      0x00\n      add\n        /* \"VendingMachine.sol\":2720:2727  product */\n      dup4\n        /* \"VendingMachine.sol\":2720:2733  product.price */\n      0x01\n      add\n      sload\n        /* \"VendingMachine.sol\":2679:2734  LogTransaction(msg.sender, product.name, product.price) */\n      mload(0x40)\n      tag_179\n      swap4\n      swap3\n      swap2\n      swap1\n      tag_180\n      jump\t// in\n    tag_179:\n      mload(0x40)\n      dup1\n      swap2\n      sub\n      swap1\n      log1\n        /* \"VendingMachine.sol\":2216:2740  {... */\n      pop\n        /* \"VendingMachine.sol\":2117:2740  function buyProduct(... */\n      pop\n      pop\n      jump\t// out\n        /* \"VendingMachine.sol\":3335:3480  function getCustomerBag(address _customerAddress) public view returns (CustomerBag[] memory) {... */\n    tag_50:\n        /* \"VendingMachine.sol\":3406:3426  CustomerBag[] memory */\n      0x60\n        /* \"VendingMachine.sol\":3444:3456  customerBags */\n      0x04\n        /* \"VendingMachine.sol\":3444:3474  customerBags[_customerAddress] */\n      0x00\n        /* \"VendingMachine.sol\":3457:3473  _customerAddress */\n      dup4\n        /* \"VendingMachine.sol\":3444:3474  customerBags[_customerAddress] */\n      0xffffffffffffffffffffffffffffffffffffffff\n      and\n      0xffffffffffffffffffffffffffffffffffffffff\n      and\n      dup2\n      mstore\n      0x20\n      add\n      swap1\n      dup2\n      mstore\n      0x20\n      add\n      0x00\n      keccak256\n        /* \"VendingMachine.sol\":3437:3474  return customerBags[_customerAddress] */\n      dup1\n      sload\n      dup1\n      0x20\n      mul\n      0x20\n      add\n      mload(0x40)\n      swap1\n      dup2\n      add\n      0x40\n      mstore\n      dup1\n      swap3\n      swap2\n      swap1\n      dup2\n      dup2\n      mstore\n      0x20\n      add\n      0x00\n      swap1\n    tag_182:\n      dup3\n      dup3\n      lt\n      iszero\n      tag_183\n      jumpi\n      dup4\n      dup3\n      swap1\n      0x00\n      mstore\n      keccak256(0x00, 0x20)\n      swap1\n      0x04\n      mul\n      add\n      mload(0x40)\n      dup1\n      0x80\n      add\n      0x40\n      mstore\n      swap1\n      dup2\n      0x00\n      dup3\n      add\n      dup1\n      sload\n      tag_185\n      swap1\n      tag_117\n      jump\t// in\n    tag_185:\n      dup1\n      0x1f\n      add\n      0x20\n      dup1\n      swap2\n      div\n      mul\n      0x20\n      add\n      mload(0x40)\n      swap1\n      dup2\n      add\n      0x40\n      mstore\n      dup1\n      swap3\n      swap2\n      swap1\n      dup2\n      dup2\n      mstore\n      0x20\n      add\n      dup3\n      dup1\n      sload\n      tag_186\n      swap1\n      tag_117\n      jump\t// in\n    tag_186:\n      dup1\n      iszero\n      tag_187\n      jumpi\n      dup1\n      0x1f\n      lt\n      tag_188\n      jumpi\n      0x0100\n      dup1\n      dup4\n      sload\n      div\n      mul\n      dup4\n      mstore\n      swap2\n      0x20\n      add\n      swap2\n      jump(tag_187)\n    tag_188:\n      dup3\n      add\n      swap2\n      swap1\n      0x00\n      mstore\n      keccak256(0x00, 0x20)\n      swap1\n    tag_189:\n      dup2\n      sload\n      dup2\n      mstore\n      swap1\n      0x01\n      add\n      swap1\n      0x20\n      add\n      dup1\n      dup4\n      gt\n      tag_189\n      jumpi\n      dup3\n      swap1\n      sub\n      0x1f\n      and\n      dup3\n      add\n      swap2\n    tag_187:\n      pop\n      pop\n      pop\n      pop\n      pop\n      dup2\n      mstore\n      0x20\n      add\n      0x01\n      dup3\n      add\n      sload\n      dup2\n      mstore\n      0x20\n      add\n      0x02\n      dup3\n      add\n      dup1\n      sload\n      tag_190\n      swap1\n      tag_117\n      jump\t// in\n    tag_190:\n      dup1\n      0x1f\n      add\n      0x20\n      dup1\n      swap2\n      div\n      mul\n      0x20\n      add\n      mload(0x40)\n      swap1\n      dup2\n      add\n      0x40\n      mstore\n      dup1\n      swap3\n      swap2\n      swap1\n      dup2\n      dup2\n      mstore\n      0x20\n      add\n      dup3\n      dup1\n      sload\n      tag_191\n      swap1\n      tag_117\n      jump\t// in\n    tag_191:\n      dup1\n      iszero\n      tag_192\n      jumpi\n      dup1\n      0x1f\n      lt\n      tag_193\n      jumpi\n      0x0100\n      dup1\n      dup4\n      sload\n      div\n      mul\n      dup4\n      mstore\n      swap2\n      0x20\n      add\n      swap2\n      jump(tag_192)\n    tag_193:\n      dup3\n      add\n      swap2\n      swap1\n      0x00\n      mstore\n      keccak256(0x00, 0x20)\n      swap1\n    tag_194:\n      dup2\n      sload\n      dup2\n      mstore\n      swap1\n      0x01\n      add\n      swap1\n      0x20\n      add\n      dup1\n      dup4\n      gt\n      tag_194\n      jumpi\n      dup3\n      swap1\n      sub\n      0x1f\n      and\n      dup3\n      add\n      swap2\n    tag_192:\n      pop\n      pop\n      pop\n      pop\n      pop\n      dup2\n      mstore\n      0x20\n      add\n      0x03\n      dup3\n      add\n      sload\n      dup2\n      mstore\n      pop\n      pop\n      dup2\n      mstore\n      0x20\n      add\n      swap1\n      0x01\n      add\n      swap1\n      jump(tag_182)\n    tag_183:\n      pop\n      pop\n      pop\n      pop\n      swap1\n      pop\n        /* \"VendingMachine.sol\":3335:3480  function getCustomerBag(address _customerAddress) public view returns (CustomerBag[] memory) {... */\n      swap2\n      swap1\n      pop\n      jump\t// out\n        /* \"VendingMachine.sol\":1293:1433  function getProducts(ProductCategories _productType) public view returns(Product[] memory) {... */\n    tag_57:\n        /* \"VendingMachine.sol\":1366:1382  Product[] memory */\n      0x60\n        /* \"VendingMachine.sol\":1399:1413  VendingMachine */\n      0x03\n        /* \"VendingMachine.sol\":1399:1427  VendingMachine[_productType] */\n      0x00\n        /* \"VendingMachine.sol\":1414:1426  _productType */\n      dup4\n        /* \"VendingMachine.sol\":1399:1427  VendingMachine[_productType] */\n      0x01\n      dup2\n      gt\n      iszero\n      tag_196\n      jumpi\n      tag_197\n      tag_94\n      jump\t// in\n    tag_197:\n    tag_196:\n      0x01\n      dup2\n      gt\n      iszero\n      tag_198\n      jumpi\n      tag_199\n      tag_94\n      jump\t// in\n    tag_199:\n    tag_198:\n      dup2\n      mstore\n      0x20\n      add\n      swap1\n      dup2\n      mstore\n      0x20\n      add\n      0x00\n      keccak256\n        /* \"VendingMachine.sol\":1392:1427  return VendingMachine[_productType] */\n      dup1\n      sload\n      dup1\n      0x20\n      mul\n      0x20\n      add\n      mload(0x40)\n      swap1\n      dup2\n      add\n      0x40\n      mstore\n      dup1\n      swap3\n      swap2\n      swap1\n      dup2\n      dup2\n      mstore\n      0x20\n      add\n      0x00\n      swap1\n    tag_200:\n      dup3\n      dup3\n      lt\n      iszero\n      tag_201\n      jumpi\n      dup4\n      dup3\n      swap1\n      0x00\n      mstore\n      keccak256(0x00, 0x20)\n      swap1\n      0x04\n      mul\n      add\n      mload(0x40)\n      dup1\n      0x80\n      add\n      0x40\n      mstore\n      swap1\n      dup2\n      0x00\n      dup3\n      add\n      dup1\n      sload\n      tag_203\n      swap1\n      tag_117\n      jump\t// in\n    tag_203:\n      dup1\n      0x1f\n      add\n      0x20\n      dup1\n      swap2\n      div\n      mul\n      0x20\n      add\n      mload(0x40)\n      swap1\n      dup2\n      add\n      0x40\n      mstore\n      dup1\n      swap3\n      swap2\n      swap1\n      dup2\n      dup2\n      mstore\n      0x20\n      add\n      dup3\n      dup1\n      sload\n      tag_204\n      swap1\n      tag_117\n      jump\t// in\n    tag_204:\n      dup1\n      iszero\n      tag_205\n      jumpi\n      dup1\n      0x1f\n      lt\n      tag_206\n      jumpi\n      0x0100\n      dup1\n      dup4\n      sload\n      div\n      mul\n      dup4\n      mstore\n      swap2\n      0x20\n      add\n      swap2\n      jump(tag_205)\n    tag_206:\n      dup3\n      add\n      swap2\n      swap1\n      0x00\n      mstore\n      keccak256(0x00, 0x20)\n      swap1\n    tag_207:\n      dup2\n      sload\n      dup2\n      mstore\n      swap1\n      0x01\n      add\n      swap1\n      0x20\n      add\n      dup1\n      dup4\n      gt\n      tag_207\n      jumpi\n      dup3\n      swap1\n      sub\n      0x1f\n      and\n      dup3\n      add\n      swap2\n    tag_205:\n      pop\n      pop\n      pop\n      pop\n      pop\n      dup2\n      mstore\n      0x20\n      add\n      0x01\n      dup3\n      add\n      sload\n      dup2\n      mstore\n      0x20\n      add\n      0x02\n      dup3\n      add\n      sload\n      dup2\n      mstore\n      0x20\n      add\n      0x03\n      dup3\n      add\n      dup1\n      sload\n      tag_208\n      swap1\n      tag_117\n      jump\t// in\n    tag_208:\n      dup1\n      0x1f\n      add\n      0x20\n      dup1\n      swap2\n      div\n      mul\n      0x20\n      add\n      mload(0x40)\n      swap1\n      dup2\n      add\n      0x40\n      mstore\n      dup1\n      swap3\n      swap2\n      swap1\n      dup2\n      dup2\n      mstore\n      0x20\n      add\n      dup3\n      dup1\n      sload\n      tag_209\n      swap1\n      tag_117\n      jump\t// in\n    tag_209:\n      dup1\n      iszero\n      tag_210\n      jumpi\n      dup1\n      0x1f\n      lt\n      tag_211\n      jumpi\n      0x0100\n      dup1\n      dup4\n      sload\n      div\n      mul\n      dup4\n      mstore\n      swap2\n      0x20\n      add\n      swap2\n      jump(tag_210)\n    tag_211:\n      dup3\n      add\n      swap2\n      swap1\n      0x00\n      mstore\n      keccak256(0x00, 0x20)\n      swap1\n    tag_212:\n      dup2\n      sload\n      dup2\n      mstore\n      swap1\n      0x01\n      add\n      swap1\n      0x20\n      add\n      dup1\n      dup4\n      gt\n      tag_212\n      jumpi\n      dup3\n      swap1\n      sub\n      0x1f\n      and\n      dup3\n      add\n      swap2\n    tag_210:\n      pop\n      pop\n      pop\n      pop\n      pop\n      dup2\n      mstore\n      pop\n      pop\n      dup2\n      mstore\n      0x20\n      add\n      swap1\n      0x01\n      add\n      swap1\n      jump(tag_200)\n    tag_201:\n      pop\n      pop\n      pop\n      pop\n      swap1\n      pop\n        /* \"VendingMachine.sol\":1293:1433  function getProducts(ProductCategories _productType) public view returns(Product[] memory) {... */\n      swap2\n      swap1\n      pop\n      jump\t// out\n        /* \"VendingMachine.sol\":205:229  uint public ownerBalance */\n    tag_62:\n      sload(0x01)\n      dup2\n      jump\t// out\n        /* \"VendingMachine.sol\":859:921  mapping (ProductCategories => Product[]) public VendingMachine */\n    tag_68:\n      mstore(0x20, 0x03)\n      dup2\n      0x00\n      mstore\n      keccak256(0x00, 0x40)\n      dup2\n      dup2\n      sload\n      dup2\n      lt\n      tag_213\n      jumpi\n      0x00\n      dup1\n      revert\n    tag_213:\n      swap1\n      0x00\n      mstore\n      keccak256(0x00, 0x20)\n      swap1\n      0x04\n      mul\n      add\n      0x00\n      swap2\n      pop\n      swap2\n      pop\n      pop\n      dup1\n      0x00\n      add\n      dup1\n      sload\n      tag_215\n      swap1\n      tag_117\n      jump\t// in\n    tag_215:\n      dup1\n      0x1f\n      add\n      0x20\n      dup1\n      swap2\n      div\n      mul\n      0x20\n      add\n      mload(0x40)\n      swap1\n      dup2\n      add\n      0x40\n      mstore\n      dup1\n      swap3\n      swap2\n      swap1\n      dup2\n      dup2\n      mstore\n      0x20\n      add\n      dup3\n      dup1\n      sload\n      tag_216\n      swap1\n      tag_117\n      jump\t// in\n    tag_216:\n      dup1\n      iszero\n      tag_217\n      jumpi\n      dup1\n      0x1f\n      lt\n      tag_218\n      jumpi\n      0x0100\n      dup1\n      dup4\n      sload\n      div\n      mul\n      dup4\n      mstore\n      swap2\n      0x20\n      add\n      swap2\n      jump(tag_217)\n    tag_218:\n      dup3\n      add\n      swap2\n      swap1\n      0x00\n      mstore\n      keccak256(0x00, 0x20)\n      swap1\n    tag_219:\n      dup2\n      sload\n      dup2\n      mstore\n      swap1\n      0x01\n      add\n      swap1\n      0x20\n      add\n      dup1\n      dup4\n      gt\n      tag_219\n      jumpi\n      dup3\n      swap1\n      sub\n      0x1f\n      and\n      dup3\n      add\n      swap2\n    tag_217:\n      pop\n      pop\n      pop\n      pop\n      pop\n      swap1\n      dup1\n      0x01\n      add\n      sload\n      swap1\n      dup1\n      0x02\n      add\n      sload\n      swap1\n      dup1\n      0x03\n      add\n      dup1\n      sload\n      tag_220\n      swap1\n      tag_117\n      jump\t// in\n    tag_220:\n      dup1\n      0x1f\n      add\n      0x20\n      dup1\n      swap2\n      div\n      mul\n      0x20\n      add\n      mload(0x40)\n      swap1\n      dup2\n      add\n      0x40\n      mstore\n      dup1\n      swap3\n      swap2\n      swap1\n      dup2\n      dup2\n      mstore\n      0x20\n      add\n      dup3\n      dup1\n      sload\n      tag_221\n      swap1\n      tag_117\n      jump\t// in\n    tag_221:\n      dup1\n      iszero\n      tag_222\n      jumpi\n      dup1\n      0x1f\n      lt\n      tag_223\n      jumpi\n      0x0100\n      dup1\n      dup4\n      sload\n      div\n      mul\n      dup4\n      mstore\n      swap2\n      0x20\n      add\n      swap2\n      jump(tag_222)\n    tag_223:\n      dup3\n      add\n      swap2\n      swap1\n      0x00\n      mstore\n      keccak256(0x00, 0x20)\n      swap1\n    tag_224:\n      dup2\n      sload\n      dup2\n      mstore\n      swap1\n      0x01\n      add\n      swap1\n      0x20\n      add\n      dup1\n      dup4\n      gt\n      tag_224\n      jumpi\n      dup3\n      swap1\n      sub\n      0x1f\n      and\n      dup3\n      add\n      swap2\n    tag_222:\n      pop\n      pop\n      pop\n      pop\n      pop\n      swap1\n      pop\n      dup5\n      jump\t// out\n        /* \"VendingMachine.sol\":981:1035  mapping (address => CustomerBag[]) public customerBags */\n    tag_75:\n      mstore(0x20, 0x04)\n      dup2\n      0x00\n      mstore\n      keccak256(0x00, 0x40)\n      dup2\n      dup2\n      sload\n      dup2\n      lt\n      tag_225\n      jumpi\n      0x00\n      dup1\n      revert\n    tag_225:\n      swap1\n      0x00\n      mstore\n      keccak256(0x00, 0x20)\n      swap1\n      0x04\n      mul\n      add\n      0x00\n      swap2\n      pop\n      swap2\n      pop\n      pop\n      dup1\n      0x00\n      add\n      dup1\n      sload\n      tag_227\n      swap1\n      tag_117\n      jump\t// in\n    tag_227:\n      dup1\n      0x1f\n      add\n      0x20\n      dup1\n      swap2\n      div\n      mul\n      0x20\n      add\n      mload(0x40)\n      swap1\n      dup2\n      add\n      0x40\n      mstore\n      dup1\n      swap3\n      swap2\n      swap1\n      dup2\n      dup2\n      mstore\n      0x20\n      add\n      dup3\n      dup1\n      sload\n      tag_228\n      swap1\n      tag_117\n      jump\t// in\n    tag_228:\n      dup1\n      iszero\n      tag_229\n      jumpi\n      dup1\n      0x1f\n      lt\n      tag_230\n      jumpi\n      0x0100\n      dup1\n      dup4\n      sload\n      div\n      mul\n      dup4\n      mstore\n      swap2\n      0x20\n      add\n      swap2\n      jump(tag_229)\n    tag_230:\n      dup3\n      add\n      swap2\n      swap1\n      0x00\n      mstore\n      keccak256(0x00, 0x20)\n      swap1\n    tag_231:\n      dup2\n      sload\n      dup2\n      mstore\n      swap1\n      0x01\n      add\n      swap1\n      0x20\n      add\n      dup1\n      dup4\n      gt\n      tag_231\n      jumpi\n      dup3\n      swap1\n      sub\n      0x1f\n      and\n      dup3\n      add\n      swap2\n    tag_229:\n      pop\n      pop\n      pop\n      pop\n      pop\n      swap1\n      dup1\n      0x01\n      add\n      sload\n      swap1\n      dup1\n      0x02\n      add\n      dup1\n      sload\n      tag_232\n      swap1\n      tag_117\n      jump\t// in\n    tag_232:\n      dup1\n      0x1f\n      add\n      0x20\n      dup1\n      swap2\n      div\n      mul\n      0x20\n      add\n      mload(0x40)\n      swap1\n      dup2\n      add\n      0x40\n      mstore\n      dup1\n      swap3\n      swap2\n      swap1\n      dup2\n      dup2\n      mstore\n      0x20\n      add\n      dup3\n      dup1\n      sload\n      tag_233\n      swap1\n      tag_117\n      jump\t// in\n    tag_233:\n      dup1\n      iszero\n      tag_234\n      jumpi\n      dup1\n      0x1f\n      lt\n      tag_235\n      jumpi\n      0x0100\n      dup1\n      dup4\n      sload\n      div\n      mul\n      dup4\n      mstore\n      swap2\n      0x20\n      add\n      swap2\n      jump(tag_234)\n    tag_235:\n      dup3\n      add\n      swap2\n      swap1\n      0x00\n      mstore\n      keccak256(0x00, 0x20)\n      swap1\n    tag_236:\n      dup2\n      sload\n      dup2\n      mstore\n      swap1\n      0x01\n      add\n      swap1\n      0x20\n      add\n      dup1\n      dup4\n      gt\n      tag_236\n      jumpi\n      dup3\n      swap1\n      sub\n      0x1f\n      and\n      dup3\n      add\n      swap2\n    tag_234:\n      pop\n      pop\n      pop\n      pop\n      pop\n      swap1\n      dup1\n      0x03\n      add\n      sload\n      swap1\n      pop\n      dup5\n      jump\t// out\n        /* \"VendingMachine.sol\":1920:2111  function updatePrice(... */\n    tag_82:\n        /* \"VendingMachine.sol\":1156:1161  owner */\n      0x00\n      dup1\n      sload\n      swap1\n      0x0100\n      exp\n      swap1\n      div\n      0xffffffffffffffffffffffffffffffffffffffff\n      and\n        /* \"VendingMachine.sol\":1142:1161  msg.sender == owner */\n      0xffffffffffffffffffffffffffffffffffffffff\n      and\n        /* \"VendingMachine.sol\":1142:1152  msg.sender */\n      caller\n        /* \"VendingMachine.sol\":1142:1161  msg.sender == owner */\n      0xffffffffffffffffffffffffffffffffffffffff\n      and\n      eq\n        /* \"VendingMachine.sol\":1134:1189  require(msg.sender == owner, \"You dont have authorize\") */\n      tag_238\n      jumpi\n      mload(0x40)\n      0x08c379a000000000000000000000000000000000000000000000000000000000\n      dup2\n      mstore\n      0x04\n      add\n      tag_239\n      swap1\n      tag_90\n      jump\t// in\n    tag_239:\n      mload(0x40)\n      dup1\n      swap2\n      sub\n      swap1\n      revert\n    tag_238:\n        /* \"VendingMachine.sol\":2099:2105  _price */\n      dup1\n        /* \"VendingMachine.sol\":2055:2069  VendingMachine */\n      0x03\n        /* \"VendingMachine.sol\":2055:2083  VendingMachine[_productType] */\n      0x00\n        /* \"VendingMachine.sol\":2070:2082  _productType */\n      dup6\n        /* \"VendingMachine.sol\":2055:2083  VendingMachine[_productType] */\n      0x01\n      dup2\n      gt\n      iszero\n      tag_241\n      jumpi\n      tag_242\n      tag_94\n      jump\t// in\n    tag_242:\n    tag_241:\n      0x01\n      dup2\n      gt\n      iszero\n      tag_243\n      jumpi\n      tag_244\n      tag_94\n      jump\t// in\n    tag_244:\n    tag_243:\n      dup2\n      mstore\n      0x20\n      add\n      swap1\n      dup2\n      mstore\n      0x20\n      add\n      0x00\n      keccak256\n        /* \"VendingMachine.sol\":2084:2089  index */\n      dup4\n        /* \"VendingMachine.sol\":2055:2090  VendingMachine[_productType][index] */\n      dup2\n      sload\n      dup2\n      lt\n      tag_245\n      jumpi\n      tag_246\n      tag_114\n      jump\t// in\n    tag_246:\n    tag_245:\n      swap1\n      0x00\n      mstore\n      keccak256(0x00, 0x20)\n      swap1\n      0x04\n      mul\n      add\n        /* \"VendingMachine.sol\":2055:2096  VendingMachine[_productType][index].price */\n      0x01\n      add\n        /* \"VendingMachine.sol\":2055:2105  VendingMachine[_productType][index].price = _price */\n      dup2\n      swap1\n      sstore\n      pop\n        /* \"VendingMachine.sol\":1920:2111  function updatePrice(... */\n      pop\n      pop\n      pop\n      jump\t// out\n        /* \"VendingMachine.sol\":1721:1914  function updateStock(... */\n    tag_86:\n        /* \"VendingMachine.sol\":1156:1161  owner */\n      0x00\n      dup1\n      sload\n      swap1\n      0x0100\n      exp\n      swap1\n      div\n      0xffffffffffffffffffffffffffffffffffffffff\n      and\n        /* \"VendingMachine.sol\":1142:1161  msg.sender == owner */\n      0xffffffffffffffffffffffffffffffffffffffff\n      and\n        /* \"VendingMachine.sol\":1142:1152  msg.sender */\n      caller\n        /* \"VendingMachine.sol\":1142:1161  msg.sender == owner */\n      0xffffffffffffffffffffffffffffffffffffffff\n      and\n      eq\n        /* \"VendingMachine.sol\":1134:1189  require(msg.sender == owner, \"You dont have authorize\") */\n      tag_249\n      jumpi\n      mload(0x40)\n      0x08c379a000000000000000000000000000000000000000000000000000000000\n      dup2\n      mstore\n      0x04\n      add\n      tag_250\n      swap1\n      tag_90\n      jump\t// in\n    tag_250:\n      mload(0x40)\n      dup1\n      swap2\n      sub\n      swap1\n      revert\n    tag_249:\n        /* \"VendingMachine.sol\":1901:1908  _amount */\n      dup1\n        /* \"VendingMachine.sol\":1857:1871  VendingMachine */\n      0x03\n        /* \"VendingMachine.sol\":1857:1885  VendingMachine[_productType] */\n      0x00\n        /* \"VendingMachine.sol\":1872:1884  _productType */\n      dup6\n        /* \"VendingMachine.sol\":1857:1885  VendingMachine[_productType] */\n      0x01\n      dup2\n      gt\n      iszero\n      tag_252\n      jumpi\n      tag_253\n      tag_94\n      jump\t// in\n    tag_253:\n    tag_252:\n      0x01\n      dup2\n      gt\n      iszero\n      tag_254\n      jumpi\n      tag_255\n      tag_94\n      jump\t// in\n    tag_255:\n    tag_254:\n      dup2\n      mstore\n      0x20\n      add\n      swap1\n      dup2\n      mstore\n      0x20\n      add\n      0x00\n      keccak256\n        /* \"VendingMachine.sol\":1886:1891  index */\n      dup4\n        /* \"VendingMachine.sol\":1857:1892  VendingMachine[_productType][index] */\n      dup2\n      sload\n      dup2\n      lt\n      tag_256\n      jumpi\n      tag_257\n      tag_114\n      jump\t// in\n    tag_257:\n    tag_256:\n      swap1\n      0x00\n      mstore\n      keccak256(0x00, 0x20)\n      swap1\n      0x04\n      mul\n      add\n        /* \"VendingMachine.sol\":1857:1898  VendingMachine[_productType][index].stock */\n      0x02\n      add\n        /* \"VendingMachine.sol\":1857:1908  VendingMachine[_productType][index].stock = _amount */\n      dup2\n      swap1\n      sstore\n      pop\n        /* \"VendingMachine.sol\":1721:1914  function updateStock(... */\n      pop\n      pop\n      pop\n      jump\t// out\n    tag_108:\n      mload(0x40)\n      dup1\n      0x60\n      add\n      0x40\n      mstore\n      dup1\n      and(0xffffffffffffffffffffffffffffffffffffffff, 0x00)\n      dup2\n      mstore\n      0x20\n      add\n      0x60\n      dup2\n      mstore\n      0x20\n      add\n      0x00\n      dup2\n      mstore\n      pop\n      swap1\n      jump\t// out\n        /* \"#utility.yul\":7:82   */\n    tag_259:\n        /* \"#utility.yul\":40:46   */\n      0x00\n        /* \"#utility.yul\":73:75   */\n      0x40\n        /* \"#utility.yul\":67:76   */\n      mload\n        /* \"#utility.yul\":57:76   */\n      swap1\n      pop\n        /* \"#utility.yul\":7:82   */\n      swap1\n      jump\t// out\n        /* \"#utility.yul\":88:205   */\n    tag_260:\n        /* \"#utility.yul\":197:198   */\n      0x00\n        /* \"#utility.yul\":194:195   */\n      dup1\n        /* \"#utility.yul\":187:199   */\n      revert\n        /* \"#utility.yul\":211:328   */\n    tag_261:\n        /* \"#utility.yul\":320:321   */\n      0x00\n        /* \"#utility.yul\":317:318   */\n      dup1\n        /* \"#utility.yul\":310:322   */\n      revert\n        /* \"#utility.yul\":334:452   */\n    tag_262:\n        /* \"#utility.yul\":426:427   */\n      0x02\n        /* \"#utility.yul\":419:424   */\n      dup2\n        /* \"#utility.yul\":416:428   */\n      lt\n        /* \"#utility.yul\":406:446   */\n      tag_344\n      jumpi\n        /* \"#utility.yul\":442:443   */\n      0x00\n        /* \"#utility.yul\":439:440   */\n      dup1\n        /* \"#utility.yul\":432:444   */\n      revert\n        /* \"#utility.yul\":406:446   */\n    tag_344:\n        /* \"#utility.yul\":334:452   */\n      pop\n      jump\t// out\n        /* \"#utility.yul\":458:635   */\n    tag_263:\n        /* \"#utility.yul\":523:528   */\n      0x00\n        /* \"#utility.yul\":561:567   */\n      dup2\n        /* \"#utility.yul\":548:568   */\n      calldataload\n        /* \"#utility.yul\":539:568   */\n      swap1\n      pop\n        /* \"#utility.yul\":577:629   */\n      tag_346\n        /* \"#utility.yul\":623:628   */\n      dup2\n        /* \"#utility.yul\":577:629   */\n      tag_262\n      jump\t// in\n    tag_346:\n        /* \"#utility.yul\":458:635   */\n      swap3\n      swap2\n      pop\n      pop\n      jump\t// out\n        /* \"#utility.yul\":641:758   */\n    tag_264:\n        /* \"#utility.yul\":750:751   */\n      0x00\n        /* \"#utility.yul\":747:748   */\n      dup1\n        /* \"#utility.yul\":740:752   */\n      revert\n        /* \"#utility.yul\":764:881   */\n    tag_265:\n        /* \"#utility.yul\":873:874   */\n      0x00\n        /* \"#utility.yul\":870:871   */\n      dup1\n        /* \"#utility.yul\":863:875   */\n      revert\n        /* \"#utility.yul\":887:989   */\n    tag_266:\n        /* \"#utility.yul\":928:934   */\n      0x00\n        /* \"#utility.yul\":979:981   */\n      0x1f\n        /* \"#utility.yul\":975:982   */\n      not\n        /* \"#utility.yul\":970:972   */\n      0x1f\n        /* \"#utility.yul\":963:968   */\n      dup4\n        /* \"#utility.yul\":959:973   */\n      add\n        /* \"#utility.yul\":955:983   */\n      and\n        /* \"#utility.yul\":945:983   */\n      swap1\n      pop\n        /* \"#utility.yul\":887:989   */\n      swap2\n      swap1\n      pop\n      jump\t// out\n        /* \"#utility.yul\":995:1175   */\n    tag_104:\n        /* \"#utility.yul\":1043:1120   */\n      0x4e487b7100000000000000000000000000000000000000000000000000000000\n        /* \"#utility.yul\":1040:1041   */\n      0x00\n        /* \"#utility.yul\":1033:1121   */\n      mstore\n        /* \"#utility.yul\":1140:1144   */\n      0x41\n        /* \"#utility.yul\":1137:1138   */\n      0x04\n        /* \"#utility.yul\":1130:1145   */\n      mstore\n        /* \"#utility.yul\":1164:1168   */\n      0x24\n        /* \"#utility.yul\":1161:1162   */\n      0x00\n        /* \"#utility.yul\":1154:1169   */\n      revert\n        /* \"#utility.yul\":1181:1462   */\n    tag_267:\n        /* \"#utility.yul\":1264:1291   */\n      tag_352\n        /* \"#utility.yul\":1286:1290   */\n      dup3\n        /* \"#utility.yul\":1264:1291   */\n      tag_266\n      jump\t// in\n    tag_352:\n        /* \"#utility.yul\":1256:1262   */\n      dup2\n        /* \"#utility.yul\":1252:1292   */\n      add\n        /* \"#utility.yul\":1394:1400   */\n      dup2\n        /* \"#utility.yul\":1382:1392   */\n      dup2\n        /* \"#utility.yul\":1379:1401   */\n      lt\n        /* \"#utility.yul\":1358:1376   */\n      0xffffffffffffffff\n        /* \"#utility.yul\":1346:1356   */\n      dup3\n        /* \"#utility.yul\":1343:1377   */\n      gt\n        /* \"#utility.yul\":1340:1402   */\n      or\n        /* \"#utility.yul\":1337:1425   */\n      iszero\n      tag_353\n      jumpi\n        /* \"#utility.yul\":1405:1423   */\n      tag_354\n      tag_104\n      jump\t// in\n    tag_354:\n        /* \"#utility.yul\":1337:1425   */\n    tag_353:\n        /* \"#utility.yul\":1445:1455   */\n      dup1\n        /* \"#utility.yul\":1441:1443   */\n      0x40\n        /* \"#utility.yul\":1434:1456   */\n      mstore\n        /* \"#utility.yul\":1224:1462   */\n      pop\n        /* \"#utility.yul\":1181:1462   */\n      pop\n      pop\n      jump\t// out\n        /* \"#utility.yul\":1468:1597   */\n    tag_268:\n        /* \"#utility.yul\":1502:1508   */\n      0x00\n        /* \"#utility.yul\":1529:1549   */\n      tag_356\n      tag_259\n      jump\t// in\n    tag_356:\n        /* \"#utility.yul\":1519:1549   */\n      swap1\n      pop\n        /* \"#utility.yul\":1558:1591   */\n      tag_357\n        /* \"#utility.yul\":1586:1590   */\n      dup3\n        /* \"#utility.yul\":1578:1584   */\n      dup3\n        /* \"#utility.yul\":1558:1591   */\n      tag_267\n      jump\t// in\n    tag_357:\n        /* \"#utility.yul\":1468:1597   */\n      swap2\n      swap1\n      pop\n      jump\t// out\n        /* \"#utility.yul\":1603:1911   */\n    tag_269:\n        /* \"#utility.yul\":1665:1669   */\n      0x00\n        /* \"#utility.yul\":1755:1773   */\n      0xffffffffffffffff\n        /* \"#utility.yul\":1747:1753   */\n      dup3\n        /* \"#utility.yul\":1744:1774   */\n      gt\n        /* \"#utility.yul\":1741:1797   */\n      iszero\n      tag_359\n      jumpi\n        /* \"#utility.yul\":1777:1795   */\n      tag_360\n      tag_104\n      jump\t// in\n    tag_360:\n        /* \"#utility.yul\":1741:1797   */\n    tag_359:\n        /* \"#utility.yul\":1815:1844   */\n      tag_361\n        /* \"#utility.yul\":1837:1843   */\n      dup3\n        /* \"#utility.yul\":1815:1844   */\n      tag_266\n      jump\t// in\n    tag_361:\n        /* \"#utility.yul\":1807:1844   */\n      swap1\n      pop\n        /* \"#utility.yul\":1899:1903   */\n      0x20\n        /* \"#utility.yul\":1893:1897   */\n      dup2\n        /* \"#utility.yul\":1889:1904   */\n      add\n        /* \"#utility.yul\":1881:1904   */\n      swap1\n      pop\n        /* \"#utility.yul\":1603:1911   */\n      swap2\n      swap1\n      pop\n      jump\t// out\n        /* \"#utility.yul\":1917:2065   */\n    tag_270:\n        /* \"#utility.yul\":2015:2021   */\n      dup3\n        /* \"#utility.yul\":2010:2013   */\n      dup2\n        /* \"#utility.yul\":2005:2008   */\n      dup4\n        /* \"#utility.yul\":1992:2022   */\n      calldatacopy\n        /* \"#utility.yul\":2056:2057   */\n      0x00\n        /* \"#utility.yul\":2047:2053   */\n      dup4\n        /* \"#utility.yul\":2042:2045   */\n      dup4\n        /* \"#utility.yul\":2038:2054   */\n      add\n        /* \"#utility.yul\":2031:2058   */\n      mstore\n        /* \"#utility.yul\":1917:2065   */\n      pop\n      pop\n      pop\n      jump\t// out\n        /* \"#utility.yul\":2071:2496   */\n    tag_271:\n        /* \"#utility.yul\":2149:2154   */\n      0x00\n        /* \"#utility.yul\":2174:2240   */\n      tag_364\n        /* \"#utility.yul\":2190:2239   */\n      tag_365\n        /* \"#utility.yul\":2232:2238   */\n      dup5\n        /* \"#utility.yul\":2190:2239   */\n      tag_269\n      jump\t// in\n    tag_365:\n        /* \"#utility.yul\":2174:2240   */\n      tag_268\n      jump\t// in\n    tag_364:\n        /* \"#utility.yul\":2165:2240   */\n      swap1\n      pop\n        /* \"#utility.yul\":2263:2269   */\n      dup3\n        /* \"#utility.yul\":2256:2261   */\n      dup2\n        /* \"#utility.yul\":2249:2270   */\n      mstore\n        /* \"#utility.yul\":2301:2305   */\n      0x20\n        /* \"#utility.yul\":2294:2299   */\n      dup2\n        /* \"#utility.yul\":2290:2306   */\n      add\n        /* \"#utility.yul\":2339:2342   */\n      dup5\n        /* \"#utility.yul\":2330:2336   */\n      dup5\n        /* \"#utility.yul\":2325:2328   */\n      dup5\n        /* \"#utility.yul\":2321:2337   */\n      add\n        /* \"#utility.yul\":2318:2343   */\n      gt\n        /* \"#utility.yul\":2315:2427   */\n      iszero\n      tag_366\n      jumpi\n        /* \"#utility.yul\":2346:2425   */\n      tag_367\n      tag_265\n      jump\t// in\n    tag_367:\n        /* \"#utility.yul\":2315:2427   */\n    tag_366:\n        /* \"#utility.yul\":2436:2490   */\n      tag_368\n        /* \"#utility.yul\":2483:2489   */\n      dup5\n        /* \"#utility.yul\":2478:2481   */\n      dup3\n        /* \"#utility.yul\":2473:2476   */\n      dup6\n        /* \"#utility.yul\":2436:2490   */\n      tag_270\n      jump\t// in\n    tag_368:\n        /* \"#utility.yul\":2155:2496   */\n      pop\n        /* \"#utility.yul\":2071:2496   */\n      swap4\n      swap3\n      pop\n      pop\n      pop\n      jump\t// out\n        /* \"#utility.yul\":2516:2856   */\n    tag_272:\n        /* \"#utility.yul\":2572:2577   */\n      0x00\n        /* \"#utility.yul\":2621:2624   */\n      dup3\n        /* \"#utility.yul\":2614:2618   */\n      0x1f\n        /* \"#utility.yul\":2606:2612   */\n      dup4\n        /* \"#utility.yul\":2602:2619   */\n      add\n        /* \"#utility.yul\":2598:2625   */\n      slt\n        /* \"#utility.yul\":2588:2710   */\n      tag_370\n      jumpi\n        /* \"#utility.yul\":2629:2708   */\n      tag_371\n      tag_264\n      jump\t// in\n    tag_371:\n        /* \"#utility.yul\":2588:2710   */\n    tag_370:\n        /* \"#utility.yul\":2746:2752   */\n      dup2\n        /* \"#utility.yul\":2733:2753   */\n      calldataload\n        /* \"#utility.yul\":2771:2850   */\n      tag_372\n        /* \"#utility.yul\":2846:2849   */\n      dup5\n        /* \"#utility.yul\":2838:2844   */\n      dup3\n        /* \"#utility.yul\":2831:2835   */\n      0x20\n        /* \"#utility.yul\":2823:2829   */\n      dup7\n        /* \"#utility.yul\":2819:2836   */\n      add\n        /* \"#utility.yul\":2771:2850   */\n      tag_271\n      jump\t// in\n    tag_372:\n        /* \"#utility.yul\":2762:2850   */\n      swap2\n      pop\n        /* \"#utility.yul\":2578:2856   */\n      pop\n        /* \"#utility.yul\":2516:2856   */\n      swap3\n      swap2\n      pop\n      pop\n      jump\t// out\n        /* \"#utility.yul\":2862:2939   */\n    tag_273:\n        /* \"#utility.yul\":2899:2906   */\n      0x00\n        /* \"#utility.yul\":2928:2933   */\n      dup2\n        /* \"#utility.yul\":2917:2933   */\n      swap1\n      pop\n        /* \"#utility.yul\":2862:2939   */\n      swap2\n      swap1\n      pop\n      jump\t// out\n        /* \"#utility.yul\":2945:3067   */\n    tag_274:\n        /* \"#utility.yul\":3018:3042   */\n      tag_375\n        /* \"#utility.yul\":3036:3041   */\n      dup2\n        /* \"#utility.yul\":3018:3042   */\n      tag_273\n      jump\t// in\n    tag_375:\n        /* \"#utility.yul\":3011:3016   */\n      dup2\n        /* \"#utility.yul\":3008:3043   */\n      eq\n        /* \"#utility.yul\":2998:3061   */\n      tag_376\n      jumpi\n        /* \"#utility.yul\":3057:3058   */\n      0x00\n        /* \"#utility.yul\":3054:3055   */\n      dup1\n        /* \"#utility.yul\":3047:3059   */\n      revert\n        /* \"#utility.yul\":2998:3061   */\n    tag_376:\n        /* \"#utility.yul\":2945:3067   */\n      pop\n      jump\t// out\n        /* \"#utility.yul\":3073:3212   */\n    tag_275:\n        /* \"#utility.yul\":3119:3124   */\n      0x00\n        /* \"#utility.yul\":3157:3163   */\n      dup2\n        /* \"#utility.yul\":3144:3164   */\n      calldataload\n        /* \"#utility.yul\":3135:3164   */\n      swap1\n      pop\n        /* \"#utility.yul\":3173:3206   */\n      tag_378\n        /* \"#utility.yul\":3200:3205   */\n      dup2\n        /* \"#utility.yul\":3173:3206   */\n      tag_274\n      jump\t// in\n    tag_378:\n        /* \"#utility.yul\":3073:3212   */\n      swap3\n      swap2\n      pop\n      pop\n      jump\t// out\n        /* \"#utility.yul\":3218:4527   */\n    tag_20:\n        /* \"#utility.yul\":3352:3358   */\n      0x00\n        /* \"#utility.yul\":3360:3366   */\n      dup1\n        /* \"#utility.yul\":3368:3374   */\n      0x00\n        /* \"#utility.yul\":3376:3382   */\n      dup1\n        /* \"#utility.yul\":3384:3390   */\n      0x00\n        /* \"#utility.yul\":3433:3436   */\n      0xa0\n        /* \"#utility.yul\":3421:3430   */\n      dup7\n        /* \"#utility.yul\":3412:3419   */\n      dup9\n        /* \"#utility.yul\":3408:3431   */\n      sub\n        /* \"#utility.yul\":3404:3437   */\n      slt\n        /* \"#utility.yul\":3401:3521   */\n      iszero\n      tag_380\n      jumpi\n        /* \"#utility.yul\":3440:3519   */\n      tag_381\n      tag_260\n      jump\t// in\n    tag_381:\n        /* \"#utility.yul\":3401:3521   */\n    tag_380:\n        /* \"#utility.yul\":3560:3561   */\n      0x00\n        /* \"#utility.yul\":3585:3657   */\n      tag_382\n        /* \"#utility.yul\":3649:3656   */\n      dup9\n        /* \"#utility.yul\":3640:3646   */\n      dup3\n        /* \"#utility.yul\":3629:3638   */\n      dup10\n        /* \"#utility.yul\":3625:3647   */\n      add\n        /* \"#utility.yul\":3585:3657   */\n      tag_263\n      jump\t// in\n    tag_382:\n        /* \"#utility.yul\":3575:3657   */\n      swap6\n      pop\n        /* \"#utility.yul\":3531:3667   */\n      pop\n        /* \"#utility.yul\":3734:3736   */\n      0x20\n        /* \"#utility.yul\":3723:3732   */\n      dup7\n        /* \"#utility.yul\":3719:3737   */\n      add\n        /* \"#utility.yul\":3706:3738   */\n      calldataload\n        /* \"#utility.yul\":3765:3783   */\n      0xffffffffffffffff\n        /* \"#utility.yul\":3757:3763   */\n      dup2\n        /* \"#utility.yul\":3754:3784   */\n      gt\n        /* \"#utility.yul\":3751:3868   */\n      iszero\n      tag_383\n      jumpi\n        /* \"#utility.yul\":3787:3866   */\n      tag_384\n      tag_261\n      jump\t// in\n    tag_384:\n        /* \"#utility.yul\":3751:3868   */\n    tag_383:\n        /* \"#utility.yul\":3892:3955   */\n      tag_385\n        /* \"#utility.yul\":3947:3954   */\n      dup9\n        /* \"#utility.yul\":3938:3944   */\n      dup3\n        /* \"#utility.yul\":3927:3936   */\n      dup10\n        /* \"#utility.yul\":3923:3945   */\n      add\n        /* \"#utility.yul\":3892:3955   */\n      tag_272\n      jump\t// in\n    tag_385:\n        /* \"#utility.yul\":3882:3955   */\n      swap5\n      pop\n        /* \"#utility.yul\":3677:3965   */\n      pop\n        /* \"#utility.yul\":4004:4006   */\n      0x40\n        /* \"#utility.yul\":4030:4083   */\n      tag_386\n        /* \"#utility.yul\":4075:4082   */\n      dup9\n        /* \"#utility.yul\":4066:4072   */\n      dup3\n        /* \"#utility.yul\":4055:4064   */\n      dup10\n        /* \"#utility.yul\":4051:4073   */\n      add\n        /* \"#utility.yul\":4030:4083   */\n      tag_275\n      jump\t// in\n    tag_386:\n        /* \"#utility.yul\":4020:4083   */\n      swap4\n      pop\n        /* \"#utility.yul\":3975:4093   */\n      pop\n        /* \"#utility.yul\":4132:4134   */\n      0x60\n        /* \"#utility.yul\":4158:4211   */\n      tag_387\n        /* \"#utility.yul\":4203:4210   */\n      dup9\n        /* \"#utility.yul\":4194:4200   */\n      dup3\n        /* \"#utility.yul\":4183:4192   */\n      dup10\n        /* \"#utility.yul\":4179:4201   */\n      add\n        /* \"#utility.yul\":4158:4211   */\n      tag_275\n      jump\t// in\n    tag_387:\n        /* \"#utility.yul\":4148:4211   */\n      swap3\n      pop\n        /* \"#utility.yul\":4103:4221   */\n      pop\n        /* \"#utility.yul\":4288:4291   */\n      0x80\n        /* \"#utility.yul\":4277:4286   */\n      dup7\n        /* \"#utility.yul\":4273:4292   */\n      add\n        /* \"#utility.yul\":4260:4293   */\n      calldataload\n        /* \"#utility.yul\":4320:4338   */\n      0xffffffffffffffff\n        /* \"#utility.yul\":4312:4318   */\n      dup2\n        /* \"#utility.yul\":4309:4339   */\n      gt\n        /* \"#utility.yul\":4306:4423   */\n      iszero\n      tag_388\n      jumpi\n        /* \"#utility.yul\":4342:4421   */\n      tag_389\n      tag_261\n      jump\t// in\n    tag_389:\n        /* \"#utility.yul\":4306:4423   */\n    tag_388:\n        /* \"#utility.yul\":4447:4510   */\n      tag_390\n        /* \"#utility.yul\":4502:4509   */\n      dup9\n        /* \"#utility.yul\":4493:4499   */\n      dup3\n        /* \"#utility.yul\":4482:4491   */\n      dup10\n        /* \"#utility.yul\":4478:4500   */\n      add\n        /* \"#utility.yul\":4447:4510   */\n      tag_272\n      jump\t// in\n    tag_390:\n        /* \"#utility.yul\":4437:4510   */\n      swap2\n      pop\n        /* \"#utility.yul\":4231:4520   */\n      pop\n        /* \"#utility.yul\":3218:4527   */\n      swap3\n      swap6\n      pop\n      swap3\n      swap6\n      swap1\n      swap4\n      pop\n      jump\t// out\n        /* \"#utility.yul\":4533:4674   */\n    tag_276:\n        /* \"#utility.yul\":4627:4633   */\n      0x00\n        /* \"#utility.yul\":4661:4666   */\n      dup2\n        /* \"#utility.yul\":4655:4667   */\n      mload\n        /* \"#utility.yul\":4645:4667   */\n      swap1\n      pop\n        /* \"#utility.yul\":4533:4674   */\n      swap2\n      swap1\n      pop\n      jump\t// out\n        /* \"#utility.yul\":4680:4891   */\n    tag_277:\n        /* \"#utility.yul\":4806:4817   */\n      0x00\n        /* \"#utility.yul\":4840:4846   */\n      dup3\n        /* \"#utility.yul\":4835:4838   */\n      dup3\n        /* \"#utility.yul\":4828:4847   */\n      mstore\n        /* \"#utility.yul\":4880:4884   */\n      0x20\n        /* \"#utility.yul\":4875:4878   */\n      dup3\n        /* \"#utility.yul\":4871:4885   */\n      add\n        /* \"#utility.yul\":4856:4885   */\n      swap1\n      pop\n        /* \"#utility.yul\":4680:4891   */\n      swap3\n      swap2\n      pop\n      pop\n      jump\t// out\n        /* \"#utility.yul\":4897:5056   */\n    tag_278:\n        /* \"#utility.yul\":4991:4995   */\n      0x00\n        /* \"#utility.yul\":5014:5017   */\n      dup2\n        /* \"#utility.yul\":5006:5017   */\n      swap1\n      pop\n        /* \"#utility.yul\":5044:5048   */\n      0x20\n        /* \"#utility.yul\":5039:5042   */\n      dup3\n        /* \"#utility.yul\":5035:5049   */\n      add\n        /* \"#utility.yul\":5027:5049   */\n      swap1\n      pop\n        /* \"#utility.yul\":4897:5056   */\n      swap2\n      swap1\n      pop\n      jump\t// out\n        /* \"#utility.yul\":5062:5188   */\n    tag_279:\n        /* \"#utility.yul\":5099:5106   */\n      0x00\n        /* \"#utility.yul\":5139:5181   */\n      0xffffffffffffffffffffffffffffffffffffffff\n        /* \"#utility.yul\":5132:5137   */\n      dup3\n        /* \"#utility.yul\":5128:5182   */\n      and\n        /* \"#utility.yul\":5117:5182   */\n      swap1\n      pop\n        /* \"#utility.yul\":5062:5188   */\n      swap2\n      swap1\n      pop\n      jump\t// out\n        /* \"#utility.yul\":5194:5290   */\n    tag_280:\n        /* \"#utility.yul\":5231:5238   */\n      0x00\n        /* \"#utility.yul\":5260:5284   */\n      tag_396\n        /* \"#utility.yul\":5278:5283   */\n      dup3\n        /* \"#utility.yul\":5260:5284   */\n      tag_279\n      jump\t// in\n    tag_396:\n        /* \"#utility.yul\":5249:5284   */\n      swap1\n      pop\n        /* \"#utility.yul\":5194:5290   */\n      swap2\n      swap1\n      pop\n      jump\t// out\n        /* \"#utility.yul\":5296:5404   */\n    tag_281:\n        /* \"#utility.yul\":5373:5397   */\n      tag_398\n        /* \"#utility.yul\":5391:5396   */\n      dup2\n        /* \"#utility.yul\":5373:5397   */\n      tag_280\n      jump\t// in\n    tag_398:\n        /* \"#utility.yul\":5368:5371   */\n      dup3\n        /* \"#utility.yul\":5361:5398   */\n      mstore\n        /* \"#utility.yul\":5296:5404   */\n      pop\n      pop\n      jump\t// out\n        /* \"#utility.yul\":5410:5509   */\n    tag_282:\n        /* \"#utility.yul\":5462:5468   */\n      0x00\n        /* \"#utility.yul\":5496:5501   */\n      dup2\n        /* \"#utility.yul\":5490:5502   */\n      mload\n        /* \"#utility.yul\":5480:5502   */\n      swap1\n      pop\n        /* \"#utility.yul\":5410:5509   */\n      swap2\n      swap1\n      pop\n      jump\t// out\n        /* \"#utility.yul\":5515:5674   */\n    tag_283:\n        /* \"#utility.yul\":5589:5600   */\n      0x00\n        /* \"#utility.yul\":5623:5629   */\n      dup3\n        /* \"#utility.yul\":5618:5621   */\n      dup3\n        /* \"#utility.yul\":5611:5630   */\n      mstore\n        /* \"#utility.yul\":5663:5667   */\n      0x20\n        /* \"#utility.yul\":5658:5661   */\n      dup3\n        /* \"#utility.yul\":5654:5668   */\n      add\n        /* \"#utility.yul\":5639:5668   */\n      swap1\n      pop\n        /* \"#utility.yul\":5515:5674   */\n      swap3\n      swap2\n      pop\n      pop\n      jump\t// out\n        /* \"#utility.yul\":5680:5819   */\n    tag_284:\n        /* \"#utility.yul\":5769:5775   */\n      dup3\n        /* \"#utility.yul\":5764:5767   */\n      dup2\n        /* \"#utility.yul\":5759:5762   */\n      dup4\n        /* \"#utility.yul\":5753:5776   */\n      mcopy\n        /* \"#utility.yul\":5810:5811   */\n      0x00\n        /* \"#utility.yul\":5801:5807   */\n      dup4\n        /* \"#utility.yul\":5796:5799   */\n      dup4\n        /* \"#utility.yul\":5792:5808   */\n      add\n        /* \"#utility.yul\":5785:5812   */\n      mstore\n        /* \"#utility.yul\":5680:5819   */\n      pop\n      pop\n      pop\n      jump\t// out\n        /* \"#utility.yul\":5825:6182   */\n    tag_285:\n        /* \"#utility.yul\":5903:5906   */\n      0x00\n        /* \"#utility.yul\":5931:5970   */\n      tag_403\n        /* \"#utility.yul\":5964:5969   */\n      dup3\n        /* \"#utility.yul\":5931:5970   */\n      tag_282\n      jump\t// in\n    tag_403:\n        /* \"#utility.yul\":5986:6047   */\n      tag_404\n        /* \"#utility.yul\":6040:6046   */\n      dup2\n        /* \"#utility.yul\":6035:6038   */\n      dup6\n        /* \"#utility.yul\":5986:6047   */\n      tag_283\n      jump\t// in\n    tag_404:\n        /* \"#utility.yul\":5979:6047   */\n      swap4\n      pop\n        /* \"#utility.yul\":6056:6121   */\n      tag_405\n        /* \"#utility.yul\":6114:6120   */\n      dup2\n        /* \"#utility.yul\":6109:6112   */\n      dup6\n        /* \"#utility.yul\":6102:6106   */\n      0x20\n        /* \"#utility.yul\":6095:6100   */\n      dup7\n        /* \"#utility.yul\":6091:6107   */\n      add\n        /* \"#utility.yul\":6056:6121   */\n      tag_284\n      jump\t// in\n    tag_405:\n        /* \"#utility.yul\":6146:6175   */\n      tag_406\n        /* \"#utility.yul\":6168:6174   */\n      dup2\n        /* \"#utility.yul\":6146:6175   */\n      tag_266\n      jump\t// in\n    tag_406:\n        /* \"#utility.yul\":6141:6144   */\n      dup5\n        /* \"#utility.yul\":6137:6176   */\n      add\n        /* \"#utility.yul\":6130:6176   */\n      swap2\n      pop\n        /* \"#utility.yul\":5907:6182   */\n      pop\n        /* \"#utility.yul\":5825:6182   */\n      swap3\n      swap2\n      pop\n      pop\n      jump\t// out\n        /* \"#utility.yul\":6188:6296   */\n    tag_286:\n        /* \"#utility.yul\":6265:6289   */\n      tag_408\n        /* \"#utility.yul\":6283:6288   */\n      dup2\n        /* \"#utility.yul\":6265:6289   */\n      tag_273\n      jump\t// in\n    tag_408:\n        /* \"#utility.yul\":6260:6263   */\n      dup3\n        /* \"#utility.yul\":6253:6290   */\n      mstore\n        /* \"#utility.yul\":6188:6296   */\n      pop\n      pop\n      jump\t// out\n        /* \"#utility.yul\":6396:7179   */\n    tag_287:\n        /* \"#utility.yul\":6509:6512   */\n      0x00\n        /* \"#utility.yul\":6545:6549   */\n      0x60\n        /* \"#utility.yul\":6540:6543   */\n      dup4\n        /* \"#utility.yul\":6536:6550   */\n      add\n        /* \"#utility.yul\":6633:6637   */\n      0x00\n        /* \"#utility.yul\":6626:6631   */\n      dup4\n        /* \"#utility.yul\":6622:6638   */\n      add\n        /* \"#utility.yul\":6616:6639   */\n      mload\n        /* \"#utility.yul\":6652:6715   */\n      tag_410\n        /* \"#utility.yul\":6709:6713   */\n      0x00\n        /* \"#utility.yul\":6704:6707   */\n      dup7\n        /* \"#utility.yul\":6700:6714   */\n      add\n        /* \"#utility.yul\":6686:6698   */\n      dup3\n        /* \"#utility.yul\":6652:6715   */\n      tag_281\n      jump\t// in\n    tag_410:\n        /* \"#utility.yul\":6560:6725   */\n      pop\n        /* \"#utility.yul\":6814:6818   */\n      0x20\n        /* \"#utility.yul\":6807:6812   */\n      dup4\n        /* \"#utility.yul\":6803:6819   */\n      add\n        /* \"#utility.yul\":6797:6820   */\n      mload\n        /* \"#utility.yul\":6867:6870   */\n      dup5\n        /* \"#utility.yul\":6861:6865   */\n      dup3\n        /* \"#utility.yul\":6857:6871   */\n      sub\n        /* \"#utility.yul\":6850:6854   */\n      0x20\n        /* \"#utility.yul\":6845:6848   */\n      dup7\n        /* \"#utility.yul\":6841:6855   */\n      add\n        /* \"#utility.yul\":6834:6872   */\n      mstore\n        /* \"#utility.yul\":6893:6966   */\n      tag_411\n        /* \"#utility.yul\":6961:6965   */\n      dup3\n        /* \"#utility.yul\":6947:6959   */\n      dup3\n        /* \"#utility.yul\":6893:6966   */\n      tag_285\n      jump\t// in\n    tag_411:\n        /* \"#utility.yul\":6885:6966   */\n      swap2\n      pop\n        /* \"#utility.yul\":6735:6977   */\n      pop\n        /* \"#utility.yul\":7060:7064   */\n      0x40\n        /* \"#utility.yul\":7053:7058   */\n      dup4\n        /* \"#utility.yul\":7049:7065   */\n      add\n        /* \"#utility.yul\":7043:7066   */\n      mload\n        /* \"#utility.yul\":7079:7142   */\n      tag_412\n        /* \"#utility.yul\":7136:7140   */\n      0x40\n        /* \"#utility.yul\":7131:7134   */\n      dup7\n        /* \"#utility.yul\":7127:7141   */\n      add\n        /* \"#utility.yul\":7113:7125   */\n      dup3\n        /* \"#utility.yul\":7079:7142   */\n      tag_286\n      jump\t// in\n    tag_412:\n        /* \"#utility.yul\":6987:7152   */\n      pop\n        /* \"#utility.yul\":7169:7173   */\n      dup1\n        /* \"#utility.yul\":7162:7173   */\n      swap2\n      pop\n        /* \"#utility.yul\":6514:7179   */\n      pop\n        /* \"#utility.yul\":6396:7179   */\n      swap3\n      swap2\n      pop\n      pop\n      jump\t// out\n        /* \"#utility.yul\":7185:7449   */\n    tag_288:\n        /* \"#utility.yul\":7308:7318   */\n      0x00\n        /* \"#utility.yul\":7343:7443   */\n      tag_414\n        /* \"#utility.yul\":7439:7442   */\n      dup4\n        /* \"#utility.yul\":7431:7437   */\n      dup4\n        /* \"#utility.yul\":7343:7443   */\n      tag_287\n      jump\t// in\n    tag_414:\n        /* \"#utility.yul\":7329:7443   */\n      swap1\n      pop\n        /* \"#utility.yul\":7185:7449   */\n      swap3\n      swap2\n      pop\n      pop\n      jump\t// out\n        /* \"#utility.yul\":7455:7595   */\n    tag_289:\n        /* \"#utility.yul\":7552:7556   */\n      0x00\n        /* \"#utility.yul\":7584:7588   */\n      0x20\n        /* \"#utility.yul\":7579:7582   */\n      dup3\n        /* \"#utility.yul\":7575:7589   */\n      add\n        /* \"#utility.yul\":7567:7589   */\n      swap1\n      pop\n        /* \"#utility.yul\":7455:7595   */\n      swap2\n      swap1\n      pop\n      jump\t// out\n        /* \"#utility.yul\":7699:8826   */\n    tag_290:\n        /* \"#utility.yul\":7872:7875   */\n      0x00\n        /* \"#utility.yul\":7901:7982   */\n      tag_417\n        /* \"#utility.yul\":7976:7981   */\n      dup3\n        /* \"#utility.yul\":7901:7982   */\n      tag_276\n      jump\t// in\n    tag_417:\n        /* \"#utility.yul\":7998:8111   */\n      tag_418\n        /* \"#utility.yul\":8104:8110   */\n      dup2\n        /* \"#utility.yul\":8099:8102   */\n      dup6\n        /* \"#utility.yul\":7998:8111   */\n      tag_277\n      jump\t// in\n    tag_418:\n        /* \"#utility.yul\":7991:8111   */\n      swap4\n      pop\n        /* \"#utility.yul\":8137:8140   */\n      dup4\n        /* \"#utility.yul\":8182:8186   */\n      0x20\n        /* \"#utility.yul\":8174:8180   */\n      dup3\n        /* \"#utility.yul\":8170:8187   */\n      mul\n        /* \"#utility.yul\":8165:8168   */\n      dup6\n        /* \"#utility.yul\":8161:8188   */\n      add\n        /* \"#utility.yul\":8212:8295   */\n      tag_419\n        /* \"#utility.yul\":8289:8294   */\n      dup6\n        /* \"#utility.yul\":8212:8295   */\n      tag_278\n      jump\t// in\n    tag_419:\n        /* \"#utility.yul\":8318:8325   */\n      dup1\n        /* \"#utility.yul\":8349:8350   */\n      0x00\n        /* \"#utility.yul\":8334:8781   */\n    tag_420:\n        /* \"#utility.yul\":8359:8365   */\n      dup6\n        /* \"#utility.yul\":8356:8357   */\n      dup2\n        /* \"#utility.yul\":8353:8366   */\n      lt\n        /* \"#utility.yul\":8334:8781   */\n      iszero\n      tag_422\n      jumpi\n        /* \"#utility.yul\":8430:8439   */\n      dup5\n        /* \"#utility.yul\":8424:8428   */\n      dup5\n        /* \"#utility.yul\":8420:8440   */\n      sub\n        /* \"#utility.yul\":8415:8418   */\n      dup10\n        /* \"#utility.yul\":8408:8441   */\n      mstore\n        /* \"#utility.yul\":8481:8487   */\n      dup2\n        /* \"#utility.yul\":8475:8488   */\n      mload\n        /* \"#utility.yul\":8509:8627   */\n      tag_423\n        /* \"#utility.yul\":8622:8626   */\n      dup6\n        /* \"#utility.yul\":8607:8620   */\n      dup3\n        /* \"#utility.yul\":8509:8627   */\n      tag_288\n      jump\t// in\n    tag_423:\n        /* \"#utility.yul\":8501:8627   */\n      swap5\n      pop\n        /* \"#utility.yul\":8650:8737   */\n      tag_424\n        /* \"#utility.yul\":8730:8736   */\n      dup4\n        /* \"#utility.yul\":8650:8737   */\n      tag_289\n      jump\t// in\n    tag_424:\n        /* \"#utility.yul\":8640:8737   */\n      swap3\n      pop\n        /* \"#utility.yul\":8766:8770   */\n      0x20\n        /* \"#utility.yul\":8761:8764   */\n      dup11\n        /* \"#utility.yul\":8757:8771   */\n      add\n        /* \"#utility.yul\":8750:8771   */\n      swap10\n      pop\n        /* \"#utility.yul\":8394:8781   */\n      pop\n        /* \"#utility.yul\":8381:8382   */\n      0x01\n        /* \"#utility.yul\":8378:8379   */\n      dup2\n        /* \"#utility.yul\":8374:8383   */\n      add\n        /* \"#utility.yul\":8369:8383   */\n      swap1\n      pop\n        /* \"#utility.yul\":8334:8781   */\n      jump(tag_420)\n    tag_422:\n        /* \"#utility.yul\":8338:8352   */\n      pop\n        /* \"#utility.yul\":8797:8801   */\n      dup3\n        /* \"#utility.yul\":8790:8801   */\n      swap8\n      pop\n        /* \"#utility.yul\":8817:8820   */\n      dup8\n        /* \"#utility.yul\":8810:8820   */\n      swap6\n      pop\n        /* \"#utility.yul\":7877:8826   */\n      pop\n      pop\n      pop\n      pop\n      pop\n        /* \"#utility.yul\":7699:8826   */\n      swap3\n      swap2\n      pop\n      pop\n      jump\t// out\n        /* \"#utility.yul\":8832:9313   */\n    tag_26:\n        /* \"#utility.yul\":9029:9033   */\n      0x00\n        /* \"#utility.yul\":9067:9069   */\n      0x20\n        /* \"#utility.yul\":9056:9065   */\n      dup3\n        /* \"#utility.yul\":9052:9070   */\n      add\n        /* \"#utility.yul\":9044:9070   */\n      swap1\n      pop\n        /* \"#utility.yul\":9116:9125   */\n      dup2\n        /* \"#utility.yul\":9110:9114   */\n      dup2\n        /* \"#utility.yul\":9106:9126   */\n      sub\n        /* \"#utility.yul\":9102:9103   */\n      0x00\n        /* \"#utility.yul\":9091:9100   */\n      dup4\n        /* \"#utility.yul\":9087:9104   */\n      add\n        /* \"#utility.yul\":9080:9127   */\n      mstore\n        /* \"#utility.yul\":9144:9306   */\n      tag_426\n        /* \"#utility.yul\":9301:9305   */\n      dup2\n        /* \"#utility.yul\":9292:9298   */\n      dup5\n        /* \"#utility.yul\":9144:9306   */\n      tag_290\n      jump\t// in\n    tag_426:\n        /* \"#utility.yul\":9136:9306   */\n      swap1\n      pop\n        /* \"#utility.yul\":8832:9313   */\n      swap3\n      swap2\n      pop\n      pop\n      jump\t// out\n        /* \"#utility.yul\":9319:9648   */\n    tag_29:\n        /* \"#utility.yul\":9378:9384   */\n      0x00\n        /* \"#utility.yul\":9427:9429   */\n      0x20\n        /* \"#utility.yul\":9415:9424   */\n      dup3\n        /* \"#utility.yul\":9406:9413   */\n      dup5\n        /* \"#utility.yul\":9402:9425   */\n      sub\n        /* \"#utility.yul\":9398:9430   */\n      slt\n        /* \"#utility.yul\":9395:9514   */\n      iszero\n      tag_428\n      jumpi\n        /* \"#utility.yul\":9433:9512   */\n      tag_429\n      tag_260\n      jump\t// in\n    tag_429:\n        /* \"#utility.yul\":9395:9514   */\n    tag_428:\n        /* \"#utility.yul\":9553:9554   */\n      0x00\n        /* \"#utility.yul\":9578:9631   */\n      tag_430\n        /* \"#utility.yul\":9623:9630   */\n      dup5\n        /* \"#utility.yul\":9614:9620   */\n      dup3\n        /* \"#utility.yul\":9603:9612   */\n      dup6\n        /* \"#utility.yul\":9599:9621   */\n      add\n        /* \"#utility.yul\":9578:9631   */\n      tag_275\n      jump\t// in\n    tag_430:\n        /* \"#utility.yul\":9568:9631   */\n      swap2\n      pop\n        /* \"#utility.yul\":9524:9641   */\n      pop\n        /* \"#utility.yul\":9319:9648   */\n      swap3\n      swap2\n      pop\n      pop\n      jump\t// out\n        /* \"#utility.yul\":9654:9758   */\n    tag_291:\n        /* \"#utility.yul\":9699:9706   */\n      0x00\n        /* \"#utility.yul\":9728:9752   */\n      tag_432\n        /* \"#utility.yul\":9746:9751   */\n      dup3\n        /* \"#utility.yul\":9728:9752   */\n      tag_279\n      jump\t// in\n    tag_432:\n        /* \"#utility.yul\":9717:9752   */\n      swap1\n      pop\n        /* \"#utility.yul\":9654:9758   */\n      swap2\n      swap1\n      pop\n      jump\t// out\n        /* \"#utility.yul\":9764:9906   */\n    tag_292:\n        /* \"#utility.yul\":9867:9899   */\n      tag_434\n        /* \"#utility.yul\":9893:9898   */\n      dup2\n        /* \"#utility.yul\":9867:9899   */\n      tag_291\n      jump\t// in\n    tag_434:\n        /* \"#utility.yul\":9862:9865   */\n      dup3\n        /* \"#utility.yul\":9855:9900   */\n      mstore\n        /* \"#utility.yul\":9764:9906   */\n      pop\n      pop\n      jump\t// out\n        /* \"#utility.yul\":9912:10166   */\n    tag_35:\n        /* \"#utility.yul\":10021:10025   */\n      0x00\n        /* \"#utility.yul\":10059:10061   */\n      0x20\n        /* \"#utility.yul\":10048:10057   */\n      dup3\n        /* \"#utility.yul\":10044:10062   */\n      add\n        /* \"#utility.yul\":10036:10062   */\n      swap1\n      pop\n        /* \"#utility.yul\":10072:10159   */\n      tag_436\n        /* \"#utility.yul\":10156:10157   */\n      0x00\n        /* \"#utility.yul\":10145:10154   */\n      dup4\n        /* \"#utility.yul\":10141:10158   */\n      add\n        /* \"#utility.yul\":10132:10138   */\n      dup5\n        /* \"#utility.yul\":10072:10159   */\n      tag_292\n      jump\t// in\n    tag_436:\n        /* \"#utility.yul\":9912:10166   */\n      swap3\n      swap2\n      pop\n      pop\n      jump\t// out\n        /* \"#utility.yul\":10172:10290   */\n    tag_293:\n        /* \"#utility.yul\":10259:10283   */\n      tag_438\n        /* \"#utility.yul\":10277:10282   */\n      dup2\n        /* \"#utility.yul\":10259:10283   */\n      tag_280\n      jump\t// in\n    tag_438:\n        /* \"#utility.yul\":10254:10257   */\n      dup3\n        /* \"#utility.yul\":10247:10284   */\n      mstore\n        /* \"#utility.yul\":10172:10290   */\n      pop\n      pop\n      jump\t// out\n        /* \"#utility.yul\":10296:10465   */\n    tag_294:\n        /* \"#utility.yul\":10380:10391   */\n      0x00\n        /* \"#utility.yul\":10414:10420   */\n      dup3\n        /* \"#utility.yul\":10409:10412   */\n      dup3\n        /* \"#utility.yul\":10402:10421   */\n      mstore\n        /* \"#utility.yul\":10454:10458   */\n      0x20\n        /* \"#utility.yul\":10449:10452   */\n      dup3\n        /* \"#utility.yul\":10445:10459   */\n      add\n        /* \"#utility.yul\":10430:10459   */\n      swap1\n      pop\n        /* \"#utility.yul\":10296:10465   */\n      swap3\n      swap2\n      pop\n      pop\n      jump\t// out\n        /* \"#utility.yul\":10471:10848   */\n    tag_295:\n        /* \"#utility.yul\":10559:10562   */\n      0x00\n        /* \"#utility.yul\":10587:10626   */\n      tag_441\n        /* \"#utility.yul\":10620:10625   */\n      dup3\n        /* \"#utility.yul\":10587:10626   */\n      tag_282\n      jump\t// in\n    tag_441:\n        /* \"#utility.yul\":10642:10713   */\n      tag_442\n        /* \"#utility.yul\":10706:10712   */\n      dup2\n        /* \"#utility.yul\":10701:10704   */\n      dup6\n        /* \"#utility.yul\":10642:10713   */\n      tag_294\n      jump\t// in\n    tag_442:\n        /* \"#utility.yul\":10635:10713   */\n      swap4\n      pop\n        /* \"#utility.yul\":10722:10787   */\n      tag_443\n        /* \"#utility.yul\":10780:10786   */\n      dup2\n        /* \"#utility.yul\":10775:10778   */\n      dup6\n        /* \"#utility.yul\":10768:10772   */\n      0x20\n        /* \"#utility.yul\":10761:10766   */\n      dup7\n        /* \"#utility.yul\":10757:10773   */\n      add\n        /* \"#utility.yul\":10722:10787   */\n      tag_284\n      jump\t// in\n    tag_443:\n        /* \"#utility.yul\":10812:10841   */\n      tag_444\n        /* \"#utility.yul\":10834:10840   */\n      dup2\n        /* \"#utility.yul\":10812:10841   */\n      tag_266\n      jump\t// in\n    tag_444:\n        /* \"#utility.yul\":10807:10810   */\n      dup5\n        /* \"#utility.yul\":10803:10842   */\n      add\n        /* \"#utility.yul\":10796:10842   */\n      swap2\n      pop\n        /* \"#utility.yul\":10563:10848   */\n      pop\n        /* \"#utility.yul\":10471:10848   */\n      swap3\n      swap2\n      pop\n      pop\n      jump\t// out\n        /* \"#utility.yul\":10854:10972   */\n    tag_296:\n        /* \"#utility.yul\":10941:10965   */\n      tag_446\n        /* \"#utility.yul\":10959:10964   */\n      dup2\n        /* \"#utility.yul\":10941:10965   */\n      tag_273\n      jump\t// in\n    tag_446:\n        /* \"#utility.yul\":10936:10939   */\n      dup3\n        /* \"#utility.yul\":10929:10966   */\n      mstore\n        /* \"#utility.yul\":10854:10972   */\n      pop\n      pop\n      jump\t// out\n        /* \"#utility.yul\":10978:11511   */\n    tag_41:\n        /* \"#utility.yul\":11147:11151   */\n      0x00\n        /* \"#utility.yul\":11185:11187   */\n      0x60\n        /* \"#utility.yul\":11174:11183   */\n      dup3\n        /* \"#utility.yul\":11170:11188   */\n      add\n        /* \"#utility.yul\":11162:11188   */\n      swap1\n      pop\n        /* \"#utility.yul\":11198:11269   */\n      tag_448\n        /* \"#utility.yul\":11266:11267   */\n      0x00\n        /* \"#utility.yul\":11255:11264   */\n      dup4\n        /* \"#utility.yul\":11251:11268   */\n      add\n        /* \"#utility.yul\":11242:11248   */\n      dup7\n        /* \"#utility.yul\":11198:11269   */\n      tag_293\n      jump\t// in\n    tag_448:\n        /* \"#utility.yul\":11316:11325   */\n      dup2\n        /* \"#utility.yul\":11310:11314   */\n      dup2\n        /* \"#utility.yul\":11306:11326   */\n      sub\n        /* \"#utility.yul\":11301:11303   */\n      0x20\n        /* \"#utility.yul\":11290:11299   */\n      dup4\n        /* \"#utility.yul\":11286:11304   */\n      add\n        /* \"#utility.yul\":11279:11327   */\n      mstore\n        /* \"#utility.yul\":11344:11422   */\n      tag_449\n        /* \"#utility.yul\":11417:11421   */\n      dup2\n        /* \"#utility.yul\":11408:11414   */\n      dup6\n        /* \"#utility.yul\":11344:11422   */\n      tag_295\n      jump\t// in\n    tag_449:\n        /* \"#utility.yul\":11336:11422   */\n      swap1\n      pop\n        /* \"#utility.yul\":11432:11504   */\n      tag_450\n        /* \"#utility.yul\":11500:11502   */\n      0x40\n        /* \"#utility.yul\":11489:11498   */\n      dup4\n        /* \"#utility.yul\":11485:11503   */\n      add\n        /* \"#utility.yul\":11476:11482   */\n      dup5\n        /* \"#utility.yul\":11432:11504   */\n      tag_296\n      jump\t// in\n    tag_450:\n        /* \"#utility.yul\":10978:11511   */\n      swap5\n      swap4\n      pop\n      pop\n      pop\n      pop\n      jump\t// out\n        /* \"#utility.yul\":11517:12029   */\n    tag_44:\n        /* \"#utility.yul\":11604:11610   */\n      0x00\n        /* \"#utility.yul\":11612:11618   */\n      dup1\n        /* \"#utility.yul\":11661:11663   */\n      0x40\n        /* \"#utility.yul\":11649:11658   */\n      dup4\n        /* \"#utility.yul\":11640:11647   */\n      dup6\n        /* \"#utility.yul\":11636:11659   */\n      sub\n        /* \"#utility.yul\":11632:11664   */\n      slt\n        /* \"#utility.yul\":11629:11748   */\n      iszero\n      tag_452\n      jumpi\n        /* \"#utility.yul\":11667:11746   */\n      tag_453\n      tag_260\n      jump\t// in\n    tag_453:\n        /* \"#utility.yul\":11629:11748   */\n    tag_452:\n        /* \"#utility.yul\":11787:11788   */\n      0x00\n        /* \"#utility.yul\":11812:11884   */\n      tag_454\n        /* \"#utility.yul\":11876:11883   */\n      dup6\n        /* \"#utility.yul\":11867:11873   */\n      dup3\n        /* \"#utility.yul\":11856:11865   */\n      dup7\n        /* \"#utility.yul\":11852:11874   */\n      add\n        /* \"#utility.yul\":11812:11884   */\n      tag_263\n      jump\t// in\n    tag_454:\n        /* \"#utility.yul\":11802:11884   */\n      swap3\n      pop\n        /* \"#utility.yul\":11758:11894   */\n      pop\n        /* \"#utility.yul\":11933:11935   */\n      0x20\n        /* \"#utility.yul\":11959:12012   */\n      tag_455\n        /* \"#utility.yul\":12004:12011   */\n      dup6\n        /* \"#utility.yul\":11995:12001   */\n      dup3\n        /* \"#utility.yul\":11984:11993   */\n      dup7\n        /* \"#utility.yul\":11980:12002   */\n      add\n        /* \"#utility.yul\":11959:12012   */\n      tag_275\n      jump\t// in\n    tag_455:\n        /* \"#utility.yul\":11949:12012   */\n      swap2\n      pop\n        /* \"#utility.yul\":11904:12022   */\n      pop\n        /* \"#utility.yul\":11517:12029   */\n      swap3\n      pop\n      swap3\n      swap1\n      pop\n      jump\t// out\n        /* \"#utility.yul\":12035:12157   */\n    tag_297:\n        /* \"#utility.yul\":12108:12132   */\n      tag_457\n        /* \"#utility.yul\":12126:12131   */\n      dup2\n        /* \"#utility.yul\":12108:12132   */\n      tag_280\n      jump\t// in\n    tag_457:\n        /* \"#utility.yul\":12101:12106   */\n      dup2\n        /* \"#utility.yul\":12098:12133   */\n      eq\n        /* \"#utility.yul\":12088:12151   */\n      tag_458\n      jumpi\n        /* \"#utility.yul\":12147:12148   */\n      0x00\n        /* \"#utility.yul\":12144:12145   */\n      dup1\n        /* \"#utility.yul\":12137:12149   */\n      revert\n        /* \"#utility.yul\":12088:12151   */\n    tag_458:\n        /* \"#utility.yul\":12035:12157   */\n      pop\n      jump\t// out\n        /* \"#utility.yul\":12163:12302   */\n    tag_298:\n        /* \"#utility.yul\":12209:12214   */\n      0x00\n        /* \"#utility.yul\":12247:12253   */\n      dup2\n        /* \"#utility.yul\":12234:12254   */\n      calldataload\n        /* \"#utility.yul\":12225:12254   */\n      swap1\n      pop\n        /* \"#utility.yul\":12263:12296   */\n      tag_460\n        /* \"#utility.yul\":12290:12295   */\n      dup2\n        /* \"#utility.yul\":12263:12296   */\n      tag_297\n      jump\t// in\n    tag_460:\n        /* \"#utility.yul\":12163:12302   */\n      swap3\n      swap2\n      pop\n      pop\n      jump\t// out\n        /* \"#utility.yul\":12308:12637   */\n    tag_49:\n        /* \"#utility.yul\":12367:12373   */\n      0x00\n        /* \"#utility.yul\":12416:12418   */\n      0x20\n        /* \"#utility.yul\":12404:12413   */\n      dup3\n        /* \"#utility.yul\":12395:12402   */\n      dup5\n        /* \"#utility.yul\":12391:12414   */\n      sub\n        /* \"#utility.yul\":12387:12419   */\n      slt\n        /* \"#utility.yul\":12384:12503   */\n      iszero\n      tag_462\n      jumpi\n        /* \"#utility.yul\":12422:12501   */\n      tag_463\n      tag_260\n      jump\t// in\n    tag_463:\n        /* \"#utility.yul\":12384:12503   */\n    tag_462:\n        /* \"#utility.yul\":12542:12543   */\n      0x00\n        /* \"#utility.yul\":12567:12620   */\n      tag_464\n        /* \"#utility.yul\":12612:12619   */\n      dup5\n        /* \"#utility.yul\":12603:12609   */\n      dup3\n        /* \"#utility.yul\":12592:12601   */\n      dup6\n        /* \"#utility.yul\":12588:12610   */\n      add\n        /* \"#utility.yul\":12567:12620   */\n      tag_298\n      jump\t// in\n    tag_464:\n        /* \"#utility.yul\":12557:12620   */\n      swap2\n      pop\n        /* \"#utility.yul\":12513:12630   */\n      pop\n        /* \"#utility.yul\":12308:12637   */\n      swap3\n      swap2\n      pop\n      pop\n      jump\t// out\n        /* \"#utility.yul\":12643:12784   */\n    tag_299:\n        /* \"#utility.yul\":12737:12743   */\n      0x00\n        /* \"#utility.yul\":12771:12776   */\n      dup2\n        /* \"#utility.yul\":12765:12777   */\n      mload\n        /* \"#utility.yul\":12755:12777   */\n      swap1\n      pop\n        /* \"#utility.yul\":12643:12784   */\n      swap2\n      swap1\n      pop\n      jump\t// out\n        /* \"#utility.yul\":12790:13001   */\n    tag_300:\n        /* \"#utility.yul\":12916:12927   */\n      0x00\n        /* \"#utility.yul\":12950:12956   */\n      dup3\n        /* \"#utility.yul\":12945:12948   */\n      dup3\n        /* \"#utility.yul\":12938:12957   */\n      mstore\n        /* \"#utility.yul\":12990:12994   */\n      0x20\n        /* \"#utility.yul\":12985:12988   */\n      dup3\n        /* \"#utility.yul\":12981:12995   */\n      add\n        /* \"#utility.yul\":12966:12995   */\n      swap1\n      pop\n        /* \"#utility.yul\":12790:13001   */\n      swap3\n      swap2\n      pop\n      pop\n      jump\t// out\n        /* \"#utility.yul\":13007:13166   */\n    tag_301:\n        /* \"#utility.yul\":13101:13105   */\n      0x00\n        /* \"#utility.yul\":13124:13127   */\n      dup2\n        /* \"#utility.yul\":13116:13127   */\n      swap1\n      pop\n        /* \"#utility.yul\":13154:13158   */\n      0x20\n        /* \"#utility.yul\":13149:13152   */\n      dup3\n        /* \"#utility.yul\":13145:13159   */\n      add\n        /* \"#utility.yul\":13137:13159   */\n      swap1\n      pop\n        /* \"#utility.yul\":13007:13166   */\n      swap2\n      swap1\n      pop\n      jump\t// out\n        /* \"#utility.yul\":13266:14297   */\n    tag_302:\n        /* \"#utility.yul\":13379:13382   */\n      0x00\n        /* \"#utility.yul\":13415:13419   */\n      0x80\n        /* \"#utility.yul\":13410:13413   */\n      dup4\n        /* \"#utility.yul\":13406:13420   */\n      add\n        /* \"#utility.yul\":13509:13513   */\n      0x00\n        /* \"#utility.yul\":13502:13507   */\n      dup4\n        /* \"#utility.yul\":13498:13514   */\n      add\n        /* \"#utility.yul\":13492:13515   */\n      mload\n        /* \"#utility.yul\":13562:13565   */\n      dup5\n        /* \"#utility.yul\":13556:13560   */\n      dup3\n        /* \"#utility.yul\":13552:13566   */\n      sub\n        /* \"#utility.yul\":13545:13549   */\n      0x00\n        /* \"#utility.yul\":13540:13543   */\n      dup7\n        /* \"#utility.yul\":13536:13550   */\n      add\n        /* \"#utility.yul\":13529:13567   */\n      mstore\n        /* \"#utility.yul\":13588:13661   */\n      tag_469\n        /* \"#utility.yul\":13656:13660   */\n      dup3\n        /* \"#utility.yul\":13642:13654   */\n      dup3\n        /* \"#utility.yul\":13588:13661   */\n      tag_285\n      jump\t// in\n    tag_469:\n        /* \"#utility.yul\":13580:13661   */\n      swap2\n      pop\n        /* \"#utility.yul\":13430:13672   */\n      pop\n        /* \"#utility.yul\":13755:13759   */\n      0x20\n        /* \"#utility.yul\":13748:13753   */\n      dup4\n        /* \"#utility.yul\":13744:13760   */\n      add\n        /* \"#utility.yul\":13738:13761   */\n      mload\n        /* \"#utility.yul\":13774:13837   */\n      tag_470\n        /* \"#utility.yul\":13831:13835   */\n      0x20\n        /* \"#utility.yul\":13826:13829   */\n      dup7\n        /* \"#utility.yul\":13822:13836   */\n      add\n        /* \"#utility.yul\":13808:13820   */\n      dup3\n        /* \"#utility.yul\":13774:13837   */\n      tag_286\n      jump\t// in\n    tag_470:\n        /* \"#utility.yul\":13682:13847   */\n      pop\n        /* \"#utility.yul\":13930:13934   */\n      0x40\n        /* \"#utility.yul\":13923:13928   */\n      dup4\n        /* \"#utility.yul\":13919:13935   */\n      add\n        /* \"#utility.yul\":13913:13936   */\n      mload\n        /* \"#utility.yul\":13983:13986   */\n      dup5\n        /* \"#utility.yul\":13977:13981   */\n      dup3\n        /* \"#utility.yul\":13973:13987   */\n      sub\n        /* \"#utility.yul\":13966:13970   */\n      0x40\n        /* \"#utility.yul\":13961:13964   */\n      dup7\n        /* \"#utility.yul\":13957:13971   */\n      add\n        /* \"#utility.yul\":13950:13988   */\n      mstore\n        /* \"#utility.yul\":14009:14082   */\n      tag_471\n        /* \"#utility.yul\":14077:14081   */\n      dup3\n        /* \"#utility.yul\":14063:14075   */\n      dup3\n        /* \"#utility.yul\":14009:14082   */\n      tag_285\n      jump\t// in\n    tag_471:\n        /* \"#utility.yul\":14001:14082   */\n      swap2\n      pop\n        /* \"#utility.yul\":13857:14093   */\n      pop\n        /* \"#utility.yul\":14178:14182   */\n      0x60\n        /* \"#utility.yul\":14171:14176   */\n      dup4\n        /* \"#utility.yul\":14167:14183   */\n      add\n        /* \"#utility.yul\":14161:14184   */\n      mload\n        /* \"#utility.yul\":14197:14260   */\n      tag_472\n        /* \"#utility.yul\":14254:14258   */\n      0x60\n        /* \"#utility.yul\":14249:14252   */\n      dup7\n        /* \"#utility.yul\":14245:14259   */\n      add\n        /* \"#utility.yul\":14231:14243   */\n      dup3\n        /* \"#utility.yul\":14197:14260   */\n      tag_286\n      jump\t// in\n    tag_472:\n        /* \"#utility.yul\":14103:14270   */\n      pop\n        /* \"#utility.yul\":14287:14291   */\n      dup1\n        /* \"#utility.yul\":14280:14291   */\n      swap2\n      pop\n        /* \"#utility.yul\":13384:14297   */\n      pop\n        /* \"#utility.yul\":13266:14297   */\n      swap3\n      swap2\n      pop\n      pop\n      jump\t// out\n        /* \"#utility.yul\":14303:14567   */\n    tag_303:\n        /* \"#utility.yul\":14426:14436   */\n      0x00\n        /* \"#utility.yul\":14461:14561   */\n      tag_474\n        /* \"#utility.yul\":14557:14560   */\n      dup4\n        /* \"#utility.yul\":14549:14555   */\n      dup4\n        /* \"#utility.yul\":14461:14561   */\n      tag_302\n      jump\t// in\n    tag_474:\n        /* \"#utility.yul\":14447:14561   */\n      swap1\n      pop\n        /* \"#utility.yul\":14303:14567   */\n      swap3\n      swap2\n      pop\n      pop\n      jump\t// out\n        /* \"#utility.yul\":14573:14713   */\n    tag_304:\n        /* \"#utility.yul\":14670:14674   */\n      0x00\n        /* \"#utility.yul\":14702:14706   */\n      0x20\n        /* \"#utility.yul\":14697:14700   */\n      dup3\n        /* \"#utility.yul\":14693:14707   */\n      add\n        /* \"#utility.yul\":14685:14707   */\n      swap1\n      pop\n        /* \"#utility.yul\":14573:14713   */\n      swap2\n      swap1\n      pop\n      jump\t// out\n        /* \"#utility.yul\":14817:15944   */\n    tag_305:\n        /* \"#utility.yul\":14990:14993   */\n      0x00\n        /* \"#utility.yul\":15019:15100   */\n      tag_477\n        /* \"#utility.yul\":15094:15099   */\n      dup3\n        /* \"#utility.yul\":15019:15100   */\n      tag_299\n      jump\t// in\n    tag_477:\n        /* \"#utility.yul\":15116:15229   */\n      tag_478\n        /* \"#utility.yul\":15222:15228   */\n      dup2\n        /* \"#utility.yul\":15217:15220   */\n      dup6\n        /* \"#utility.yul\":15116:15229   */\n      tag_300\n      jump\t// in\n    tag_478:\n        /* \"#utility.yul\":15109:15229   */\n      swap4\n      pop\n        /* \"#utility.yul\":15255:15258   */\n      dup4\n        /* \"#utility.yul\":15300:15304   */\n      0x20\n        /* \"#utility.yul\":15292:15298   */\n      dup3\n        /* \"#utility.yul\":15288:15305   */\n      mul\n        /* \"#utility.yul\":15283:15286   */\n      dup6\n        /* \"#utility.yul\":15279:15306   */\n      add\n        /* \"#utility.yul\":15330:15413   */\n      tag_479\n        /* \"#utility.yul\":15407:15412   */\n      dup6\n        /* \"#utility.yul\":15330:15413   */\n      tag_301\n      jump\t// in\n    tag_479:\n        /* \"#utility.yul\":15436:15443   */\n      dup1\n        /* \"#utility.yul\":15467:15468   */\n      0x00\n        /* \"#utility.yul\":15452:15899   */\n    tag_480:\n        /* \"#utility.yul\":15477:15483   */\n      dup6\n        /* \"#utility.yul\":15474:15475   */\n      dup2\n        /* \"#utility.yul\":15471:15484   */\n      lt\n        /* \"#utility.yul\":15452:15899   */\n      iszero\n      tag_482\n      jumpi\n        /* \"#utility.yul\":15548:15557   */\n      dup5\n        /* \"#utility.yul\":15542:15546   */\n      dup5\n        /* \"#utility.yul\":15538:15558   */\n      sub\n        /* \"#utility.yul\":15533:15536   */\n      dup10\n        /* \"#utility.yul\":15526:15559   */\n      mstore\n        /* \"#utility.yul\":15599:15605   */\n      dup2\n        /* \"#utility.yul\":15593:15606   */\n      mload\n        /* \"#utility.yul\":15627:15745   */\n      tag_483\n        /* \"#utility.yul\":15740:15744   */\n      dup6\n        /* \"#utility.yul\":15725:15738   */\n      dup3\n        /* \"#utility.yul\":15627:15745   */\n      tag_303\n      jump\t// in\n    tag_483:\n        /* \"#utility.yul\":15619:15745   */\n      swap5\n      pop\n        /* \"#utility.yul\":15768:15855   */\n      tag_484\n        /* \"#utility.yul\":15848:15854   */\n      dup4\n        /* \"#utility.yul\":15768:15855   */\n      tag_304\n      jump\t// in\n    tag_484:\n        /* \"#utility.yul\":15758:15855   */\n      swap3\n      pop\n        /* \"#utility.yul\":15884:15888   */\n      0x20\n        /* \"#utility.yul\":15879:15882   */\n      dup11\n        /* \"#utility.yul\":15875:15889   */\n      add\n        /* \"#utility.yul\":15868:15889   */\n      swap10\n      pop\n        /* \"#utility.yul\":15512:15899   */\n      pop\n        /* \"#utility.yul\":15499:15500   */\n      0x01\n        /* \"#utility.yul\":15496:15497   */\n      dup2\n        /* \"#utility.yul\":15492:15501   */\n      add\n        /* \"#utility.yul\":15487:15501   */\n      swap1\n      pop\n        /* \"#utility.yul\":15452:15899   */\n      jump(tag_480)\n    tag_482:\n        /* \"#utility.yul\":15456:15470   */\n      pop\n        /* \"#utility.yul\":15915:15919   */\n      dup3\n        /* \"#utility.yul\":15908:15919   */\n      swap8\n      pop\n        /* \"#utility.yul\":15935:15938   */\n      dup8\n        /* \"#utility.yul\":15928:15938   */\n      swap6\n      pop\n        /* \"#utility.yul\":14995:15944   */\n      pop\n      pop\n      pop\n      pop\n      pop\n        /* \"#utility.yul\":14817:15944   */\n      swap3\n      swap2\n      pop\n      pop\n      jump\t// out\n        /* \"#utility.yul\":15950:16431   */\n    tag_52:\n        /* \"#utility.yul\":16147:16151   */\n      0x00\n        /* \"#utility.yul\":16185:16187   */\n      0x20\n        /* \"#utility.yul\":16174:16183   */\n      dup3\n        /* \"#utility.yul\":16170:16188   */\n      add\n        /* \"#utility.yul\":16162:16188   */\n      swap1\n      pop\n        /* \"#utility.yul\":16234:16243   */\n      dup2\n        /* \"#utility.yul\":16228:16232   */\n      dup2\n        /* \"#utility.yul\":16224:16244   */\n      sub\n        /* \"#utility.yul\":16220:16221   */\n      0x00\n        /* \"#utility.yul\":16209:16218   */\n      dup4\n        /* \"#utility.yul\":16205:16222   */\n      add\n        /* \"#utility.yul\":16198:16245   */\n      mstore\n        /* \"#utility.yul\":16262:16424   */\n      tag_486\n        /* \"#utility.yul\":16419:16423   */\n      dup2\n        /* \"#utility.yul\":16410:16416   */\n      dup5\n        /* \"#utility.yul\":16262:16424   */\n      tag_305\n      jump\t// in\n    tag_486:\n        /* \"#utility.yul\":16254:16424   */\n      swap1\n      pop\n        /* \"#utility.yul\":15950:16431   */\n      swap3\n      swap2\n      pop\n      pop\n      jump\t// out\n        /* \"#utility.yul\":16437:16804   */\n    tag_56:\n        /* \"#utility.yul\":16515:16521   */\n      0x00\n        /* \"#utility.yul\":16564:16566   */\n      0x20\n        /* \"#utility.yul\":16552:16561   */\n      dup3\n        /* \"#utility.yul\":16543:16550   */\n      dup5\n        /* \"#utility.yul\":16539:16562   */\n      sub\n        /* \"#utility.yul\":16535:16567   */\n      slt\n        /* \"#utility.yul\":16532:16651   */\n      iszero\n      tag_488\n      jumpi\n        /* \"#utility.yul\":16570:16649   */\n      tag_489\n      tag_260\n      jump\t// in\n    tag_489:\n        /* \"#utility.yul\":16532:16651   */\n    tag_488:\n        /* \"#utility.yul\":16690:16691   */\n      0x00\n        /* \"#utility.yul\":16715:16787   */\n      tag_490\n        /* \"#utility.yul\":16779:16786   */\n      dup5\n        /* \"#utility.yul\":16770:16776   */\n      dup3\n        /* \"#utility.yul\":16759:16768   */\n      dup6\n        /* \"#utility.yul\":16755:16777   */\n      add\n        /* \"#utility.yul\":16715:16787   */\n      tag_263\n      jump\t// in\n    tag_490:\n        /* \"#utility.yul\":16705:16787   */\n      swap2\n      pop\n        /* \"#utility.yul\":16661:16797   */\n      pop\n        /* \"#utility.yul\":16437:16804   */\n      swap3\n      swap2\n      pop\n      pop\n      jump\t// out\n        /* \"#utility.yul\":16810:16947   */\n    tag_306:\n        /* \"#utility.yul\":16900:16906   */\n      0x00\n        /* \"#utility.yul\":16934:16939   */\n      dup2\n        /* \"#utility.yul\":16928:16940   */\n      mload\n        /* \"#utility.yul\":16918:16940   */\n      swap1\n      pop\n        /* \"#utility.yul\":16810:16947   */\n      swap2\n      swap1\n      pop\n      jump\t// out\n        /* \"#utility.yul\":16953:17160   */\n    tag_307:\n        /* \"#utility.yul\":17075:17086   */\n      0x00\n        /* \"#utility.yul\":17109:17115   */\n      dup3\n        /* \"#utility.yul\":17104:17107   */\n      dup3\n        /* \"#utility.yul\":17097:17116   */\n      mstore\n        /* \"#utility.yul\":17149:17153   */\n      0x20\n        /* \"#utility.yul\":17144:17147   */\n      dup3\n        /* \"#utility.yul\":17140:17154   */\n      add\n        /* \"#utility.yul\":17125:17154   */\n      swap1\n      pop\n        /* \"#utility.yul\":16953:17160   */\n      swap3\n      swap2\n      pop\n      pop\n      jump\t// out\n        /* \"#utility.yul\":17166:17321   */\n    tag_308:\n        /* \"#utility.yul\":17256:17260   */\n      0x00\n        /* \"#utility.yul\":17279:17282   */\n      dup2\n        /* \"#utility.yul\":17271:17282   */\n      swap1\n      pop\n        /* \"#utility.yul\":17309:17313   */\n      0x20\n        /* \"#utility.yul\":17304:17307   */\n      dup3\n        /* \"#utility.yul\":17300:17314   */\n      add\n        /* \"#utility.yul\":17292:17314   */\n      swap1\n      pop\n        /* \"#utility.yul\":17166:17321   */\n      swap2\n      swap1\n      pop\n      jump\t// out\n        /* \"#utility.yul\":17413:18427   */\n    tag_309:\n        /* \"#utility.yul\":17518:17521   */\n      0x00\n        /* \"#utility.yul\":17554:17558   */\n      0x80\n        /* \"#utility.yul\":17549:17552   */\n      dup4\n        /* \"#utility.yul\":17545:17559   */\n      add\n        /* \"#utility.yul\":17641:17645   */\n      0x00\n        /* \"#utility.yul\":17634:17639   */\n      dup4\n        /* \"#utility.yul\":17630:17646   */\n      add\n        /* \"#utility.yul\":17624:17647   */\n      mload\n        /* \"#utility.yul\":17694:17697   */\n      dup5\n        /* \"#utility.yul\":17688:17692   */\n      dup3\n        /* \"#utility.yul\":17684:17698   */\n      sub\n        /* \"#utility.yul\":17677:17681   */\n      0x00\n        /* \"#utility.yul\":17672:17675   */\n      dup7\n        /* \"#utility.yul\":17668:17682   */\n      add\n        /* \"#utility.yul\":17661:17699   */\n      mstore\n        /* \"#utility.yul\":17720:17793   */\n      tag_495\n        /* \"#utility.yul\":17788:17792   */\n      dup3\n        /* \"#utility.yul\":17774:17786   */\n      dup3\n        /* \"#utility.yul\":17720:17793   */\n      tag_285\n      jump\t// in\n    tag_495:\n        /* \"#utility.yul\":17712:17793   */\n      swap2\n      pop\n        /* \"#utility.yul\":17569:17804   */\n      pop\n        /* \"#utility.yul\":17887:17891   */\n      0x20\n        /* \"#utility.yul\":17880:17885   */\n      dup4\n        /* \"#utility.yul\":17876:17892   */\n      add\n        /* \"#utility.yul\":17870:17893   */\n      mload\n        /* \"#utility.yul\":17906:17969   */\n      tag_496\n        /* \"#utility.yul\":17963:17967   */\n      0x20\n        /* \"#utility.yul\":17958:17961   */\n      dup7\n        /* \"#utility.yul\":17954:17968   */\n      add\n        /* \"#utility.yul\":17940:17952   */\n      dup3\n        /* \"#utility.yul\":17906:17969   */\n      tag_286\n      jump\t// in\n    tag_496:\n        /* \"#utility.yul\":17814:17979   */\n      pop\n        /* \"#utility.yul\":18062:18066   */\n      0x40\n        /* \"#utility.yul\":18055:18060   */\n      dup4\n        /* \"#utility.yul\":18051:18067   */\n      add\n        /* \"#utility.yul\":18045:18068   */\n      mload\n        /* \"#utility.yul\":18081:18144   */\n      tag_497\n        /* \"#utility.yul\":18138:18142   */\n      0x40\n        /* \"#utility.yul\":18133:18136   */\n      dup7\n        /* \"#utility.yul\":18129:18143   */\n      add\n        /* \"#utility.yul\":18115:18127   */\n      dup3\n        /* \"#utility.yul\":18081:18144   */\n      tag_286\n      jump\t// in\n    tag_497:\n        /* \"#utility.yul\":17989:18154   */\n      pop\n        /* \"#utility.yul\":18237:18241   */\n      0x60\n        /* \"#utility.yul\":18230:18235   */\n      dup4\n        /* \"#utility.yul\":18226:18242   */\n      add\n        /* \"#utility.yul\":18220:18243   */\n      mload\n        /* \"#utility.yul\":18290:18293   */\n      dup5\n        /* \"#utility.yul\":18284:18288   */\n      dup3\n        /* \"#utility.yul\":18280:18294   */\n      sub\n        /* \"#utility.yul\":18273:18277   */\n      0x60\n        /* \"#utility.yul\":18268:18271   */\n      dup7\n        /* \"#utility.yul\":18264:18278   */\n      add\n        /* \"#utility.yul\":18257:18295   */\n      mstore\n        /* \"#utility.yul\":18316:18389   */\n      tag_498\n        /* \"#utility.yul\":18384:18388   */\n      dup3\n        /* \"#utility.yul\":18370:18382   */\n      dup3\n        /* \"#utility.yul\":18316:18389   */\n      tag_285\n      jump\t// in\n    tag_498:\n        /* \"#utility.yul\":18308:18389   */\n      swap2\n      pop\n        /* \"#utility.yul\":18164:18400   */\n      pop\n        /* \"#utility.yul\":18417:18421   */\n      dup1\n        /* \"#utility.yul\":18410:18421   */\n      swap2\n      pop\n        /* \"#utility.yul\":17523:18427   */\n      pop\n        /* \"#utility.yul\":17413:18427   */\n      swap3\n      swap2\n      pop\n      pop\n      jump\t// out\n        /* \"#utility.yul\":18433:18681   */\n    tag_310:\n        /* \"#utility.yul\":18548:18558   */\n      0x00\n        /* \"#utility.yul\":18583:18675   */\n      tag_500\n        /* \"#utility.yul\":18671:18674   */\n      dup4\n        /* \"#utility.yul\":18663:18669   */\n      dup4\n        /* \"#utility.yul\":18583:18675   */\n      tag_309\n      jump\t// in\n    tag_500:\n        /* \"#utility.yul\":18569:18675   */\n      swap1\n      pop\n        /* \"#utility.yul\":18433:18681   */\n      swap3\n      swap2\n      pop\n      pop\n      jump\t// out\n        /* \"#utility.yul\":18687:18823   */\n    tag_311:\n        /* \"#utility.yul\":18780:18784   */\n      0x00\n        /* \"#utility.yul\":18812:18816   */\n      0x20\n        /* \"#utility.yul\":18807:18810   */\n      dup3\n        /* \"#utility.yul\":18803:18817   */\n      add\n        /* \"#utility.yul\":18795:18817   */\n      swap1\n      pop\n        /* \"#utility.yul\":18687:18823   */\n      swap2\n      swap1\n      pop\n      jump\t// out\n        /* \"#utility.yul\":18919:20014   */\n    tag_312:\n        /* \"#utility.yul\":19084:19087   */\n      0x00\n        /* \"#utility.yul\":19113:19190   */\n      tag_503\n        /* \"#utility.yul\":19184:19189   */\n      dup3\n        /* \"#utility.yul\":19113:19190   */\n      tag_306\n      jump\t// in\n    tag_503:\n        /* \"#utility.yul\":19206:19315   */\n      tag_504\n        /* \"#utility.yul\":19308:19314   */\n      dup2\n        /* \"#utility.yul\":19303:19306   */\n      dup6\n        /* \"#utility.yul\":19206:19315   */\n      tag_307\n      jump\t// in\n    tag_504:\n        /* \"#utility.yul\":19199:19315   */\n      swap4\n      pop\n        /* \"#utility.yul\":19341:19344   */\n      dup4\n        /* \"#utility.yul\":19386:19390   */\n      0x20\n        /* \"#utility.yul\":19378:19384   */\n      dup3\n        /* \"#utility.yul\":19374:19391   */\n      mul\n        /* \"#utility.yul\":19369:19372   */\n      dup6\n        /* \"#utility.yul\":19365:19392   */\n      add\n        /* \"#utility.yul\":19416:19495   */\n      tag_505\n        /* \"#utility.yul\":19489:19494   */\n      dup6\n        /* \"#utility.yul\":19416:19495   */\n      tag_308\n      jump\t// in\n    tag_505:\n        /* \"#utility.yul\":19518:19525   */\n      dup1\n        /* \"#utility.yul\":19549:19550   */\n      0x00\n        /* \"#utility.yul\":19534:19969   */\n    tag_506:\n        /* \"#utility.yul\":19559:19565   */\n      dup6\n        /* \"#utility.yul\":19556:19557   */\n      dup2\n        /* \"#utility.yul\":19553:19566   */\n      lt\n        /* \"#utility.yul\":19534:19969   */\n      iszero\n      tag_508\n      jumpi\n        /* \"#utility.yul\":19630:19639   */\n      dup5\n        /* \"#utility.yul\":19624:19628   */\n      dup5\n        /* \"#utility.yul\":19620:19640   */\n      sub\n        /* \"#utility.yul\":19615:19618   */\n      dup10\n        /* \"#utility.yul\":19608:19641   */\n      mstore\n        /* \"#utility.yul\":19681:19687   */\n      dup2\n        /* \"#utility.yul\":19675:19688   */\n      mload\n        /* \"#utility.yul\":19709:19819   */\n      tag_509\n        /* \"#utility.yul\":19814:19818   */\n      dup6\n        /* \"#utility.yul\":19799:19812   */\n      dup3\n        /* \"#utility.yul\":19709:19819   */\n      tag_310\n      jump\t// in\n    tag_509:\n        /* \"#utility.yul\":19701:19819   */\n      swap5\n      pop\n        /* \"#utility.yul\":19842:19925   */\n      tag_510\n        /* \"#utility.yul\":19918:19924   */\n      dup4\n        /* \"#utility.yul\":19842:19925   */\n      tag_311\n      jump\t// in\n    tag_510:\n        /* \"#utility.yul\":19832:19925   */\n      swap3\n      pop\n        /* \"#utility.yul\":19954:19958   */\n      0x20\n        /* \"#utility.yul\":19949:19952   */\n      dup11\n        /* \"#utility.yul\":19945:19959   */\n      add\n        /* \"#utility.yul\":19938:19959   */\n      swap10\n      pop\n        /* \"#utility.yul\":19594:19969   */\n      pop\n        /* \"#utility.yul\":19581:19582   */\n      0x01\n        /* \"#utility.yul\":19578:19579   */\n      dup2\n        /* \"#utility.yul\":19574:19583   */\n      add\n        /* \"#utility.yul\":19569:19583   */\n      swap1\n      pop\n        /* \"#utility.yul\":19534:19969   */\n      jump(tag_506)\n    tag_508:\n        /* \"#utility.yul\":19538:19552   */\n      pop\n        /* \"#utility.yul\":19985:19989   */\n      dup3\n        /* \"#utility.yul\":19978:19989   */\n      swap8\n      pop\n        /* \"#utility.yul\":20005:20008   */\n      dup8\n        /* \"#utility.yul\":19998:20008   */\n      swap6\n      pop\n        /* \"#utility.yul\":19089:20014   */\n      pop\n      pop\n      pop\n      pop\n      pop\n        /* \"#utility.yul\":18919:20014   */\n      swap3\n      swap2\n      pop\n      pop\n      jump\t// out\n        /* \"#utility.yul\":20020:20485   */\n    tag_59:\n        /* \"#utility.yul\":20209:20213   */\n      0x00\n        /* \"#utility.yul\":20247:20249   */\n      0x20\n        /* \"#utility.yul\":20236:20245   */\n      dup3\n        /* \"#utility.yul\":20232:20250   */\n      add\n        /* \"#utility.yul\":20224:20250   */\n      swap1\n      pop\n        /* \"#utility.yul\":20296:20305   */\n      dup2\n        /* \"#utility.yul\":20290:20294   */\n      dup2\n        /* \"#utility.yul\":20286:20306   */\n      sub\n        /* \"#utility.yul\":20282:20283   */\n      0x00\n        /* \"#utility.yul\":20271:20280   */\n      dup4\n        /* \"#utility.yul\":20267:20284   */\n      add\n        /* \"#utility.yul\":20260:20307   */\n      mstore\n        /* \"#utility.yul\":20324:20478   */\n      tag_512\n        /* \"#utility.yul\":20473:20477   */\n      dup2\n        /* \"#utility.yul\":20464:20470   */\n      dup5\n        /* \"#utility.yul\":20324:20478   */\n      tag_312\n      jump\t// in\n    tag_512:\n        /* \"#utility.yul\":20316:20478   */\n      swap1\n      pop\n        /* \"#utility.yul\":20020:20485   */\n      swap3\n      swap2\n      pop\n      pop\n      jump\t// out\n        /* \"#utility.yul\":20491:20713   */\n    tag_64:\n        /* \"#utility.yul\":20584:20588   */\n      0x00\n        /* \"#utility.yul\":20622:20624   */\n      0x20\n        /* \"#utility.yul\":20611:20620   */\n      dup3\n        /* \"#utility.yul\":20607:20625   */\n      add\n        /* \"#utility.yul\":20599:20625   */\n      swap1\n      pop\n        /* \"#utility.yul\":20635:20706   */\n      tag_514\n        /* \"#utility.yul\":20703:20704   */\n      0x00\n        /* \"#utility.yul\":20692:20701   */\n      dup4\n        /* \"#utility.yul\":20688:20705   */\n      add\n        /* \"#utility.yul\":20679:20685   */\n      dup5\n        /* \"#utility.yul\":20635:20706   */\n      tag_296\n      jump\t// in\n    tag_514:\n        /* \"#utility.yul\":20491:20713   */\n      swap3\n      swap2\n      pop\n      pop\n      jump\t// out\n        /* \"#utility.yul\":20719:21454   */\n    tag_70:\n        /* \"#utility.yul\":20936:20940   */\n      0x00\n        /* \"#utility.yul\":20974:20977   */\n      0x80\n        /* \"#utility.yul\":20963:20972   */\n      dup3\n        /* \"#utility.yul\":20959:20978   */\n      add\n        /* \"#utility.yul\":20951:20978   */\n      swap1\n      pop\n        /* \"#utility.yul\":21024:21033   */\n      dup2\n        /* \"#utility.yul\":21018:21022   */\n      dup2\n        /* \"#utility.yul\":21014:21034   */\n      sub\n        /* \"#utility.yul\":21010:21011   */\n      0x00\n        /* \"#utility.yul\":20999:21008   */\n      dup4\n        /* \"#utility.yul\":20995:21012   */\n      add\n        /* \"#utility.yul\":20988:21035   */\n      mstore\n        /* \"#utility.yul\":21052:21130   */\n      tag_516\n        /* \"#utility.yul\":21125:21129   */\n      dup2\n        /* \"#utility.yul\":21116:21122   */\n      dup8\n        /* \"#utility.yul\":21052:21130   */\n      tag_295\n      jump\t// in\n    tag_516:\n        /* \"#utility.yul\":21044:21130   */\n      swap1\n      pop\n        /* \"#utility.yul\":21140:21212   */\n      tag_517\n        /* \"#utility.yul\":21208:21210   */\n      0x20\n        /* \"#utility.yul\":21197:21206   */\n      dup4\n        /* \"#utility.yul\":21193:21211   */\n      add\n        /* \"#utility.yul\":21184:21190   */\n      dup7\n        /* \"#utility.yul\":21140:21212   */\n      tag_296\n      jump\t// in\n    tag_517:\n        /* \"#utility.yul\":21222:21294   */\n      tag_518\n        /* \"#utility.yul\":21290:21292   */\n      0x40\n        /* \"#utility.yul\":21279:21288   */\n      dup4\n        /* \"#utility.yul\":21275:21293   */\n      add\n        /* \"#utility.yul\":21266:21272   */\n      dup6\n        /* \"#utility.yul\":21222:21294   */\n      tag_296\n      jump\t// in\n    tag_518:\n        /* \"#utility.yul\":21341:21350   */\n      dup2\n        /* \"#utility.yul\":21335:21339   */\n      dup2\n        /* \"#utility.yul\":21331:21351   */\n      sub\n        /* \"#utility.yul\":21326:21328   */\n      0x60\n        /* \"#utility.yul\":21315:21324   */\n      dup4\n        /* \"#utility.yul\":21311:21329   */\n      add\n        /* \"#utility.yul\":21304:21352   */\n      mstore\n        /* \"#utility.yul\":21369:21447   */\n      tag_519\n        /* \"#utility.yul\":21442:21446   */\n      dup2\n        /* \"#utility.yul\":21433:21439   */\n      dup5\n        /* \"#utility.yul\":21369:21447   */\n      tag_295\n      jump\t// in\n    tag_519:\n        /* \"#utility.yul\":21361:21447   */\n      swap1\n      pop\n        /* \"#utility.yul\":20719:21454   */\n      swap6\n      swap5\n      pop\n      pop\n      pop\n      pop\n      pop\n      jump\t// out\n        /* \"#utility.yul\":21460:21934   */\n    tag_74:\n        /* \"#utility.yul\":21528:21534   */\n      0x00\n        /* \"#utility.yul\":21536:21542   */\n      dup1\n        /* \"#utility.yul\":21585:21587   */\n      0x40\n        /* \"#utility.yul\":21573:21582   */\n      dup4\n        /* \"#utility.yul\":21564:21571   */\n      dup6\n        /* \"#utility.yul\":21560:21583   */\n      sub\n        /* \"#utility.yul\":21556:21588   */\n      slt\n        /* \"#utility.yul\":21553:21672   */\n      iszero\n      tag_521\n      jumpi\n        /* \"#utility.yul\":21591:21670   */\n      tag_522\n      tag_260\n      jump\t// in\n    tag_522:\n        /* \"#utility.yul\":21553:21672   */\n    tag_521:\n        /* \"#utility.yul\":21711:21712   */\n      0x00\n        /* \"#utility.yul\":21736:21789   */\n      tag_523\n        /* \"#utility.yul\":21781:21788   */\n      dup6\n        /* \"#utility.yul\":21772:21778   */\n      dup3\n        /* \"#utility.yul\":21761:21770   */\n      dup7\n        /* \"#utility.yul\":21757:21779   */\n      add\n        /* \"#utility.yul\":21736:21789   */\n      tag_298\n      jump\t// in\n    tag_523:\n        /* \"#utility.yul\":21726:21789   */\n      swap3\n      pop\n        /* \"#utility.yul\":21682:21799   */\n      pop\n        /* \"#utility.yul\":21838:21840   */\n      0x20\n        /* \"#utility.yul\":21864:21917   */\n      tag_524\n        /* \"#utility.yul\":21909:21916   */\n      dup6\n        /* \"#utility.yul\":21900:21906   */\n      dup3\n        /* \"#utility.yul\":21889:21898   */\n      dup7\n        /* \"#utility.yul\":21885:21907   */\n      add\n        /* \"#utility.yul\":21864:21917   */\n      tag_275\n      jump\t// in\n    tag_524:\n        /* \"#utility.yul\":21854:21917   */\n      swap2\n      pop\n        /* \"#utility.yul\":21809:21927   */\n      pop\n        /* \"#utility.yul\":21460:21934   */\n      swap3\n      pop\n      swap3\n      swap1\n      pop\n      jump\t// out\n        /* \"#utility.yul\":21940:22675   */\n    tag_77:\n        /* \"#utility.yul\":22157:22161   */\n      0x00\n        /* \"#utility.yul\":22195:22198   */\n      0x80\n        /* \"#utility.yul\":22184:22193   */\n      dup3\n        /* \"#utility.yul\":22180:22199   */\n      add\n        /* \"#utility.yul\":22172:22199   */\n      swap1\n      pop\n        /* \"#utility.yul\":22245:22254   */\n      dup2\n        /* \"#utility.yul\":22239:22243   */\n      dup2\n        /* \"#utility.yul\":22235:22255   */\n      sub\n        /* \"#utility.yul\":22231:22232   */\n      0x00\n        /* \"#utility.yul\":22220:22229   */\n      dup4\n        /* \"#utility.yul\":22216:22233   */\n      add\n        /* \"#utility.yul\":22209:22256   */\n      mstore\n        /* \"#utility.yul\":22273:22351   */\n      tag_526\n        /* \"#utility.yul\":22346:22350   */\n      dup2\n        /* \"#utility.yul\":22337:22343   */\n      dup8\n        /* \"#utility.yul\":22273:22351   */\n      tag_295\n      jump\t// in\n    tag_526:\n        /* \"#utility.yul\":22265:22351   */\n      swap1\n      pop\n        /* \"#utility.yul\":22361:22433   */\n      tag_527\n        /* \"#utility.yul\":22429:22431   */\n      0x20\n        /* \"#utility.yul\":22418:22427   */\n      dup4\n        /* \"#utility.yul\":22414:22432   */\n      add\n        /* \"#utility.yul\":22405:22411   */\n      dup7\n        /* \"#utility.yul\":22361:22433   */\n      tag_296\n      jump\t// in\n    tag_527:\n        /* \"#utility.yul\":22480:22489   */\n      dup2\n        /* \"#utility.yul\":22474:22478   */\n      dup2\n        /* \"#utility.yul\":22470:22490   */\n      sub\n        /* \"#utility.yul\":22465:22467   */\n      0x40\n        /* \"#utility.yul\":22454:22463   */\n      dup4\n        /* \"#utility.yul\":22450:22468   */\n      add\n        /* \"#utility.yul\":22443:22491   */\n      mstore\n        /* \"#utility.yul\":22508:22586   */\n      tag_528\n        /* \"#utility.yul\":22581:22585   */\n      dup2\n        /* \"#utility.yul\":22572:22578   */\n      dup6\n        /* \"#utility.yul\":22508:22586   */\n      tag_295\n      jump\t// in\n    tag_528:\n        /* \"#utility.yul\":22500:22586   */\n      swap1\n      pop\n        /* \"#utility.yul\":22596:22668   */\n      tag_529\n        /* \"#utility.yul\":22664:22666   */\n      0x60\n        /* \"#utility.yul\":22653:22662   */\n      dup4\n        /* \"#utility.yul\":22649:22667   */\n      add\n        /* \"#utility.yul\":22640:22646   */\n      dup5\n        /* \"#utility.yul\":22596:22668   */\n      tag_296\n      jump\t// in\n    tag_529:\n        /* \"#utility.yul\":21940:22675   */\n      swap6\n      swap5\n      pop\n      pop\n      pop\n      pop\n      pop\n      jump\t// out\n        /* \"#utility.yul\":22681:23338   */\n    tag_81:\n        /* \"#utility.yul\":22777:22783   */\n      0x00\n        /* \"#utility.yul\":22785:22791   */\n      dup1\n        /* \"#utility.yul\":22793:22799   */\n      0x00\n        /* \"#utility.yul\":22842:22844   */\n      0x60\n        /* \"#utility.yul\":22830:22839   */\n      dup5\n        /* \"#utility.yul\":22821:22828   */\n      dup7\n        /* \"#utility.yul\":22817:22840   */\n      sub\n        /* \"#utility.yul\":22813:22845   */\n      slt\n        /* \"#utility.yul\":22810:22929   */\n      iszero\n      tag_531\n      jumpi\n        /* \"#utility.yul\":22848:22927   */\n      tag_532\n      tag_260\n      jump\t// in\n    tag_532:\n        /* \"#utility.yul\":22810:22929   */\n    tag_531:\n        /* \"#utility.yul\":22968:22969   */\n      0x00\n        /* \"#utility.yul\":22993:23065   */\n      tag_533\n        /* \"#utility.yul\":23057:23064   */\n      dup7\n        /* \"#utility.yul\":23048:23054   */\n      dup3\n        /* \"#utility.yul\":23037:23046   */\n      dup8\n        /* \"#utility.yul\":23033:23055   */\n      add\n        /* \"#utility.yul\":22993:23065   */\n      tag_263\n      jump\t// in\n    tag_533:\n        /* \"#utility.yul\":22983:23065   */\n      swap4\n      pop\n        /* \"#utility.yul\":22939:23075   */\n      pop\n        /* \"#utility.yul\":23114:23116   */\n      0x20\n        /* \"#utility.yul\":23140:23193   */\n      tag_534\n        /* \"#utility.yul\":23185:23192   */\n      dup7\n        /* \"#utility.yul\":23176:23182   */\n      dup3\n        /* \"#utility.yul\":23165:23174   */\n      dup8\n        /* \"#utility.yul\":23161:23183   */\n      add\n        /* \"#utility.yul\":23140:23193   */\n      tag_275\n      jump\t// in\n    tag_534:\n        /* \"#utility.yul\":23130:23193   */\n      swap3\n      pop\n        /* \"#utility.yul\":23085:23203   */\n      pop\n        /* \"#utility.yul\":23242:23244   */\n      0x40\n        /* \"#utility.yul\":23268:23321   */\n      tag_535\n        /* \"#utility.yul\":23313:23320   */\n      dup7\n        /* \"#utility.yul\":23304:23310   */\n      dup3\n        /* \"#utility.yul\":23293:23302   */\n      dup8\n        /* \"#utility.yul\":23289:23311   */\n      add\n        /* \"#utility.yul\":23268:23321   */\n      tag_275\n      jump\t// in\n    tag_535:\n        /* \"#utility.yul\":23258:23321   */\n      swap2\n      pop\n        /* \"#utility.yul\":23213:23331   */\n      pop\n        /* \"#utility.yul\":22681:23338   */\n      swap3\n      pop\n      swap3\n      pop\n      swap3\n      jump\t// out\n        /* \"#utility.yul\":23344:23517   */\n    tag_313:\n        /* \"#utility.yul\":23484:23509   */\n      0x596f7520646f6e74206861766520617574686f72697a65000000000000000000\n        /* \"#utility.yul\":23480:23481   */\n      0x00\n        /* \"#utility.yul\":23472:23478   */\n      dup3\n        /* \"#utility.yul\":23468:23482   */\n      add\n        /* \"#utility.yul\":23461:23510   */\n      mstore\n        /* \"#utility.yul\":23344:23517   */\n      pop\n      jump\t// out\n        /* \"#utility.yul\":23523:23889   */\n    tag_314:\n        /* \"#utility.yul\":23665:23668   */\n      0x00\n        /* \"#utility.yul\":23686:23753   */\n      tag_538\n        /* \"#utility.yul\":23750:23752   */\n      0x17\n        /* \"#utility.yul\":23745:23748   */\n      dup4\n        /* \"#utility.yul\":23686:23753   */\n      tag_294\n      jump\t// in\n    tag_538:\n        /* \"#utility.yul\":23679:23753   */\n      swap2\n      pop\n        /* \"#utility.yul\":23762:23855   */\n      tag_539\n        /* \"#utility.yul\":23851:23854   */\n      dup3\n        /* \"#utility.yul\":23762:23855   */\n      tag_313\n      jump\t// in\n    tag_539:\n        /* \"#utility.yul\":23880:23882   */\n      0x20\n        /* \"#utility.yul\":23875:23878   */\n      dup3\n        /* \"#utility.yul\":23871:23883   */\n      add\n        /* \"#utility.yul\":23864:23883   */\n      swap1\n      pop\n        /* \"#utility.yul\":23523:23889   */\n      swap2\n      swap1\n      pop\n      jump\t// out\n        /* \"#utility.yul\":23895:24314   */\n    tag_90:\n        /* \"#utility.yul\":24061:24065   */\n      0x00\n        /* \"#utility.yul\":24099:24101   */\n      0x20\n        /* \"#utility.yul\":24088:24097   */\n      dup3\n        /* \"#utility.yul\":24084:24102   */\n      add\n        /* \"#utility.yul\":24076:24102   */\n      swap1\n      pop\n        /* \"#utility.yul\":24148:24157   */\n      dup2\n        /* \"#utility.yul\":24142:24146   */\n      dup2\n        /* \"#utility.yul\":24138:24158   */\n      sub\n        /* \"#utility.yul\":24134:24135   */\n      0x00\n        /* \"#utility.yul\":24123:24132   */\n      dup4\n        /* \"#utility.yul\":24119:24136   */\n      add\n        /* \"#utility.yul\":24112:24159   */\n      mstore\n        /* \"#utility.yul\":24176:24307   */\n      tag_541\n        /* \"#utility.yul\":24302:24306   */\n      dup2\n        /* \"#utility.yul\":24176:24307   */\n      tag_314\n      jump\t// in\n    tag_541:\n        /* \"#utility.yul\":24168:24307   */\n      swap1\n      pop\n        /* \"#utility.yul\":23895:24314   */\n      swap2\n      swap1\n      pop\n      jump\t// out\n        /* \"#utility.yul\":24320:24500   */\n    tag_94:\n        /* \"#utility.yul\":24368:24445   */\n      0x4e487b7100000000000000000000000000000000000000000000000000000000\n        /* \"#utility.yul\":24365:24366   */\n      0x00\n        /* \"#utility.yul\":24358:24446   */\n      mstore\n        /* \"#utility.yul\":24465:24469   */\n      0x21\n        /* \"#utility.yul\":24462:24463   */\n      0x04\n        /* \"#utility.yul\":24455:24470   */\n      mstore\n        /* \"#utility.yul\":24489:24493   */\n      0x24\n        /* \"#utility.yul\":24486:24487   */\n      0x00\n        /* \"#utility.yul\":24479:24494   */\n      revert\n        /* \"#utility.yul\":24506:24686   */\n    tag_315:\n        /* \"#utility.yul\":24554:24631   */\n      0x4e487b7100000000000000000000000000000000000000000000000000000000\n        /* \"#utility.yul\":24551:24552   */\n      0x00\n        /* \"#utility.yul\":24544:24632   */\n      mstore\n        /* \"#utility.yul\":24651:24655   */\n      0x22\n        /* \"#utility.yul\":24648:24649   */\n      0x04\n        /* \"#utility.yul\":24641:24656   */\n      mstore\n        /* \"#utility.yul\":24675:24679   */\n      0x24\n        /* \"#utility.yul\":24672:24673   */\n      0x00\n        /* \"#utility.yul\":24665:24680   */\n      revert\n        /* \"#utility.yul\":24692:25012   */\n    tag_117:\n        /* \"#utility.yul\":24736:24742   */\n      0x00\n        /* \"#utility.yul\":24773:24774   */\n      0x02\n        /* \"#utility.yul\":24767:24771   */\n      dup3\n        /* \"#utility.yul\":24763:24775   */\n      div\n        /* \"#utility.yul\":24753:24775   */\n      swap1\n      pop\n        /* \"#utility.yul\":24820:24821   */\n      0x01\n        /* \"#utility.yul\":24814:24818   */\n      dup3\n        /* \"#utility.yul\":24810:24822   */\n      and\n        /* \"#utility.yul\":24841:24859   */\n      dup1\n        /* \"#utility.yul\":24831:24912   */\n      tag_545\n      jumpi\n        /* \"#utility.yul\":24897:24901   */\n      0x7f\n        /* \"#utility.yul\":24889:24895   */\n      dup3\n        /* \"#utility.yul\":24885:24902   */\n      and\n        /* \"#utility.yul\":24875:24902   */\n      swap2\n      pop\n        /* \"#utility.yul\":24831:24912   */\n    tag_545:\n        /* \"#utility.yul\":24959:24961   */\n      0x20\n        /* \"#utility.yul\":24951:24957   */\n      dup3\n        /* \"#utility.yul\":24948:24962   */\n      lt\n        /* \"#utility.yul\":24928:24946   */\n      dup2\n        /* \"#utility.yul\":24925:24963   */\n      sub\n        /* \"#utility.yul\":24922:25006   */\n      tag_546\n      jumpi\n        /* \"#utility.yul\":24978:24996   */\n      tag_547\n      tag_315\n      jump\t// in\n    tag_547:\n        /* \"#utility.yul\":24922:25006   */\n    tag_546:\n        /* \"#utility.yul\":24743:25012   */\n      pop\n        /* \"#utility.yul\":24692:25012   */\n      swap2\n      swap1\n      pop\n      jump\t// out\n        /* \"#utility.yul\":25018:25159   */\n    tag_316:\n        /* \"#utility.yul\":25067:25071   */\n      0x00\n        /* \"#utility.yul\":25090:25093   */\n      dup2\n        /* \"#utility.yul\":25082:25093   */\n      swap1\n      pop\n        /* \"#utility.yul\":25113:25116   */\n      dup2\n        /* \"#utility.yul\":25110:25111   */\n      0x00\n        /* \"#utility.yul\":25103:25117   */\n      mstore\n        /* \"#utility.yul\":25147:25151   */\n      0x20\n        /* \"#utility.yul\":25144:25145   */\n      0x00\n        /* \"#utility.yul\":25134:25152   */\n      keccak256\n        /* \"#utility.yul\":25126:25152   */\n      swap1\n      pop\n        /* \"#utility.yul\":25018:25159   */\n      swap2\n      swap1\n      pop\n      jump\t// out\n        /* \"#utility.yul\":25165:25258   */\n    tag_317:\n        /* \"#utility.yul\":25202:25208   */\n      0x00\n        /* \"#utility.yul\":25249:25251   */\n      0x20\n        /* \"#utility.yul\":25244:25246   */\n      0x1f\n        /* \"#utility.yul\":25237:25242   */\n      dup4\n        /* \"#utility.yul\":25233:25247   */\n      add\n        /* \"#utility.yul\":25229:25252   */\n      div\n        /* \"#utility.yul\":25219:25252   */\n      swap1\n      pop\n        /* \"#utility.yul\":25165:25258   */\n      swap2\n      swap1\n      pop\n      jump\t// out\n        /* \"#utility.yul\":25264:25371   */\n    tag_318:\n        /* \"#utility.yul\":25308:25316   */\n      0x00\n        /* \"#utility.yul\":25358:25363   */\n      dup3\n        /* \"#utility.yul\":25352:25356   */\n      dup3\n        /* \"#utility.yul\":25348:25364   */\n      shl\n        /* \"#utility.yul\":25327:25364   */\n      swap1\n      pop\n        /* \"#utility.yul\":25264:25371   */\n      swap3\n      swap2\n      pop\n      pop\n      jump\t// out\n        /* \"#utility.yul\":25377:25770   */\n    tag_319:\n        /* \"#utility.yul\":25446:25452   */\n      0x00\n        /* \"#utility.yul\":25496:25497   */\n      0x08\n        /* \"#utility.yul\":25484:25494   */\n      dup4\n        /* \"#utility.yul\":25480:25498   */\n      mul\n        /* \"#utility.yul\":25519:25616   */\n      tag_552\n        /* \"#utility.yul\":25549:25615   */\n      0xffffffffffffffffffffffffffffffffffffffffffffffffffffffffffffffff\n        /* \"#utility.yul\":25538:25547   */\n      dup3\n        /* \"#utility.yul\":25519:25616   */\n      tag_318\n      jump\t// in\n    tag_552:\n        /* \"#utility.yul\":25637:25676   */\n      tag_553\n        /* \"#utility.yul\":25667:25675   */\n      dup7\n        /* \"#utility.yul\":25656:25665   */\n      dup4\n        /* \"#utility.yul\":25637:25676   */\n      tag_318\n      jump\t// in\n    tag_553:\n        /* \"#utility.yul\":25625:25676   */\n      swap6\n      pop\n        /* \"#utility.yul\":25709:25713   */\n      dup1\n        /* \"#utility.yul\":25705:25714   */\n      not\n        /* \"#utility.yul\":25698:25703   */\n      dup5\n        /* \"#utility.yul\":25694:25715   */\n      and\n        /* \"#utility.yul\":25685:25715   */\n      swap4\n      pop\n        /* \"#utility.yul\":25758:25762   */\n      dup1\n        /* \"#utility.yul\":25748:25756   */\n      dup7\n        /* \"#utility.yul\":25744:25763   */\n      and\n        /* \"#utility.yul\":25737:25742   */\n      dup5\n        /* \"#utility.yul\":25734:25764   */\n      or\n        /* \"#utility.yul\":25724:25764   */\n      swap3\n      pop\n        /* \"#utility.yul\":25453:25770   */\n      pop\n      pop\n        /* \"#utility.yul\":25377:25770   */\n      swap4\n      swap3\n      pop\n      pop\n      pop\n      jump\t// out\n        /* \"#utility.yul\":25776:25836   */\n    tag_320:\n        /* \"#utility.yul\":25804:25807   */\n      0x00\n        /* \"#utility.yul\":25825:25830   */\n      dup2\n        /* \"#utility.yul\":25818:25830   */\n      swap1\n      pop\n        /* \"#utility.yul\":25776:25836   */\n      swap2\n      swap1\n      pop\n      jump\t// out\n        /* \"#utility.yul\":25842:25984   */\n    tag_321:\n        /* \"#utility.yul\":25892:25901   */\n      0x00\n        /* \"#utility.yul\":25925:25978   */\n      tag_556\n        /* \"#utility.yul\":25943:25977   */\n      tag_557\n        /* \"#utility.yul\":25952:25976   */\n      tag_558\n        /* \"#utility.yul\":25970:25975   */\n      dup5\n        /* \"#utility.yul\":25952:25976   */\n      tag_273\n      jump\t// in\n    tag_558:\n        /* \"#utility.yul\":25943:25977   */\n      tag_320\n      jump\t// in\n    tag_557:\n        /* \"#utility.yul\":25925:25978   */\n      tag_273\n      jump\t// in\n    tag_556:\n        /* \"#utility.yul\":25912:25978   */\n      swap1\n      pop\n        /* \"#utility.yul\":25842:25984   */\n      swap2\n      swap1\n      pop\n      jump\t// out\n        /* \"#utility.yul\":25990:26065   */\n    tag_322:\n        /* \"#utility.yul\":26033:26036   */\n      0x00\n        /* \"#utility.yul\":26054:26059   */\n      dup2\n        /* \"#utility.yul\":26047:26059   */\n      swap1\n      pop\n        /* \"#utility.yul\":25990:26065   */\n      swap2\n      swap1\n      pop\n      jump\t// out\n        /* \"#utility.yul\":26071:26340   */\n    tag_323:\n        /* \"#utility.yul\":26181:26220   */\n      tag_561\n        /* \"#utility.yul\":26212:26219   */\n      dup4\n        /* \"#utility.yul\":26181:26220   */\n      tag_321\n      jump\t// in\n    tag_561:\n        /* \"#utility.yul\":26242:26333   */\n      tag_562\n        /* \"#utility.yul\":26291:26332   */\n      tag_563\n        /* \"#utility.yul\":26315:26331   */\n      dup3\n        /* \"#utility.yul\":26291:26332   */\n      tag_322\n      jump\t// in\n    tag_563:\n        /* \"#utility.yul\":26283:26289   */\n      dup5\n        /* \"#utility.yul\":26276:26280   */\n      dup5\n        /* \"#utility.yul\":26270:26281   */\n      sload\n        /* \"#utility.yul\":26242:26333   */\n      tag_319\n      jump\t// in\n    tag_562:\n        /* \"#utility.yul\":26236:26240   */\n      dup3\n        /* \"#utility.yul\":26229:26334   */\n      sstore\n        /* \"#utility.yul\":26147:26340   */\n      pop\n        /* \"#utility.yul\":26071:26340   */\n      pop\n      pop\n      pop\n      jump\t// out\n        /* \"#utility.yul\":26346:26419   */\n    tag_324:\n        /* \"#utility.yul\":26391:26394   */\n      0x00\n        /* \"#utility.yul\":26346:26419   */\n      swap1\n      jump\t// out\n        /* \"#utility.yul\":26425:26614   */\n    tag_325:\n        /* \"#utility.yul\":26502:26534   */\n      tag_566\n      tag_324\n      jump\t// in\n    tag_566:\n        /* \"#utility.yul\":26543:26608   */\n      tag_567\n        /* \"#utility.yul\":26601:26607   */\n      dup2\n        /* \"#utility.yul\":26593:26599   */\n      dup5\n        /* \"#utility.yul\":26587:26591   */\n      dup5\n        /* \"#utility.yul\":26543:26608   */\n      tag_323\n      jump\t// in\n    tag_567:\n        /* \"#utility.yul\":26478:26614   */\n      pop\n        /* \"#utility.yul\":26425:26614   */\n      pop\n      pop\n      jump\t// out\n        /* \"#utility.yul\":26620:26806   */\n    tag_326:\n        /* \"#utility.yul\":26680:26800   */\n    tag_569:\n        /* \"#utility.yul\":26697:26700   */\n      dup2\n        /* \"#utility.yul\":26690:26695   */\n      dup2\n        /* \"#utility.yul\":26687:26701   */\n      lt\n        /* \"#utility.yul\":26680:26800   */\n      iszero\n      tag_571\n      jumpi\n        /* \"#utility.yul\":26751:26790   */\n      tag_572\n        /* \"#utility.yul\":26788:26789   */\n      0x00\n        /* \"#utility.yul\":26781:26786   */\n      dup3\n        /* \"#utility.yul\":26751:26790   */\n      tag_325\n      jump\t// in\n    tag_572:\n        /* \"#utility.yul\":26724:26725   */\n      0x01\n        /* \"#utility.yul\":26717:26722   */\n      dup2\n        /* \"#utility.yul\":26713:26726   */\n      add\n        /* \"#utility.yul\":26704:26726   */\n      swap1\n      pop\n        /* \"#utility.yul\":26680:26800   */\n      jump(tag_569)\n    tag_571:\n        /* \"#utility.yul\":26620:26806   */\n      pop\n      pop\n      jump\t// out\n        /* \"#utility.yul\":26812:27355   */\n    tag_327:\n        /* \"#utility.yul\":26913:26915   */\n      0x1f\n        /* \"#utility.yul\":26908:26911   */\n      dup3\n        /* \"#utility.yul\":26905:26916   */\n      gt\n        /* \"#utility.yul\":26902:27348   */\n      iszero\n      tag_574\n      jumpi\n        /* \"#utility.yul\":26947:26985   */\n      tag_575\n        /* \"#utility.yul\":26979:26984   */\n      dup2\n        /* \"#utility.yul\":26947:26985   */\n      tag_316\n      jump\t// in\n    tag_575:\n        /* \"#utility.yul\":27031:27060   */\n      tag_576\n        /* \"#utility.yul\":27049:27059   */\n      dup5\n        /* \"#utility.yul\":27031:27060   */\n      tag_317\n      jump\t// in\n    tag_576:\n        /* \"#utility.yul\":27021:27029   */\n      dup2\n        /* \"#utility.yul\":27017:27061   */\n      add\n        /* \"#utility.yul\":27214:27216   */\n      0x20\n        /* \"#utility.yul\":27202:27212   */\n      dup6\n        /* \"#utility.yul\":27199:27217   */\n      lt\n        /* \"#utility.yul\":27196:27245   */\n      iszero\n      tag_577\n      jumpi\n        /* \"#utility.yul\":27235:27243   */\n      dup2\n        /* \"#utility.yul\":27220:27243   */\n      swap1\n      pop\n        /* \"#utility.yul\":27196:27245   */\n    tag_577:\n        /* \"#utility.yul\":27258:27338   */\n      tag_578\n        /* \"#utility.yul\":27314:27336   */\n      tag_579\n        /* \"#utility.yul\":27332:27335   */\n      dup6\n        /* \"#utility.yul\":27314:27336   */\n      tag_317\n      jump\t// in\n    tag_579:\n        /* \"#utility.yul\":27304:27312   */\n      dup4\n        /* \"#utility.yul\":27300:27337   */\n      add\n        /* \"#utility.yul\":27287:27298   */\n      dup3\n        /* \"#utility.yul\":27258:27338   */\n      tag_326\n      jump\t// in\n    tag_578:\n        /* \"#utility.yul\":26917:27348   */\n      pop\n      pop\n        /* \"#utility.yul\":26902:27348   */\n    tag_574:\n        /* \"#utility.yul\":26812:27355   */\n      pop\n      pop\n      pop\n      jump\t// out\n        /* \"#utility.yul\":27361:27478   */\n    tag_328:\n        /* \"#utility.yul\":27415:27423   */\n      0x00\n        /* \"#utility.yul\":27465:27470   */\n      dup3\n        /* \"#utility.yul\":27459:27463   */\n      dup3\n        /* \"#utility.yul\":27455:27471   */\n      shr\n        /* \"#utility.yul\":27434:27471   */\n      swap1\n      pop\n        /* \"#utility.yul\":27361:27478   */\n      swap3\n      swap2\n      pop\n      pop\n      jump\t// out\n        /* \"#utility.yul\":27484:27653   */\n    tag_329:\n        /* \"#utility.yul\":27528:27534   */\n      0x00\n        /* \"#utility.yul\":27561:27612   */\n      tag_582\n        /* \"#utility.yul\":27609:27610   */\n      0x00\n        /* \"#utility.yul\":27605:27611   */\n      not\n        /* \"#utility.yul\":27597:27602   */\n      dup5\n        /* \"#utility.yul\":27594:27595   */\n      0x08\n        /* \"#utility.yul\":27590:27603   */\n      mul\n        /* \"#utility.yul\":27561:27612   */\n      tag_328\n      jump\t// in\n    tag_582:\n        /* \"#utility.yul\":27557:27613   */\n      not\n        /* \"#utility.yul\":27642:27646   */\n      dup1\n        /* \"#utility.yul\":27636:27640   */\n      dup4\n        /* \"#utility.yul\":27632:27647   */\n      and\n        /* \"#utility.yul\":27622:27647   */\n      swap2\n      pop\n        /* \"#utility.yul\":27535:27653   */\n      pop\n        /* \"#utility.yul\":27484:27653   */\n      swap3\n      swap2\n      pop\n      pop\n      jump\t// out\n        /* \"#utility.yul\":27658:27953   */\n    tag_330:\n        /* \"#utility.yul\":27734:27738   */\n      0x00\n        /* \"#utility.yul\":27880:27909   */\n      tag_584\n        /* \"#utility.yul\":27905:27908   */\n      dup4\n        /* \"#utility.yul\":27899:27903   */\n      dup4\n        /* \"#utility.yul\":27880:27909   */\n      tag_329\n      jump\t// in\n    tag_584:\n        /* \"#utility.yul\":27872:27909   */\n      swap2\n      pop\n        /* \"#utility.yul\":27942:27945   */\n      dup3\n        /* \"#utility.yul\":27939:27940   */\n      0x02\n        /* \"#utility.yul\":27935:27946   */\n      mul\n        /* \"#utility.yul\":27929:27933   */\n      dup3\n        /* \"#utility.yul\":27926:27947   */\n      or\n        /* \"#utility.yul\":27918:27947   */\n      swap1\n      pop\n        /* \"#utility.yul\":27658:27953   */\n      swap3\n      swap2\n      pop\n      pop\n      jump\t// out\n        /* \"#utility.yul\":27958:29353   */\n    tag_99:\n        /* \"#utility.yul\":28075:28112   */\n      tag_586\n        /* \"#utility.yul\":28108:28111   */\n      dup3\n        /* \"#utility.yul\":28075:28112   */\n      tag_282\n      jump\t// in\n    tag_586:\n        /* \"#utility.yul\":28177:28195   */\n      0xffffffffffffffff\n        /* \"#utility.yul\":28169:28175   */\n      dup2\n        /* \"#utility.yul\":28166:28196   */\n      gt\n        /* \"#utility.yul\":28163:28219   */\n      iszero\n      tag_587\n      jumpi\n        /* \"#utility.yul\":28199:28217   */\n      tag_588\n      tag_104\n      jump\t// in\n    tag_588:\n        /* \"#utility.yul\":28163:28219   */\n    tag_587:\n        /* \"#utility.yul\":28243:28281   */\n      tag_589\n        /* \"#utility.yul\":28275:28279   */\n      dup3\n        /* \"#utility.yul\":28269:28280   */\n      sload\n        /* \"#utility.yul\":28243:28281   */\n      tag_117\n      jump\t// in\n    tag_589:\n        /* \"#utility.yul\":28328:28395   */\n      tag_590\n        /* \"#utility.yul\":28388:28394   */\n      dup3\n        /* \"#utility.yul\":28380:28386   */\n      dup3\n        /* \"#utility.yul\":28374:28378   */\n      dup6\n        /* \"#utility.yul\":28328:28395   */\n      tag_327\n      jump\t// in\n    tag_590:\n        /* \"#utility.yul\":28422:28423   */\n      0x00\n        /* \"#utility.yul\":28446:28450   */\n      0x20\n        /* \"#utility.yul\":28433:28450   */\n      swap1\n      pop\n        /* \"#utility.yul\":28478:28480   */\n      0x1f\n        /* \"#utility.yul\":28470:28476   */\n      dup4\n        /* \"#utility.yul\":28467:28481   */\n      gt\n        /* \"#utility.yul\":28495:28496   */\n      0x01\n        /* \"#utility.yul\":28490:29108   */\n      dup2\n      eq\n      tag_592\n      jumpi\n        /* \"#utility.yul\":29152:29153   */\n      0x00\n        /* \"#utility.yul\":29169:29175   */\n      dup5\n        /* \"#utility.yul\":29166:29243   */\n      iszero\n      tag_593\n      jumpi\n        /* \"#utility.yul\":29218:29227   */\n      dup3\n        /* \"#utility.yul\":29213:29216   */\n      dup8\n        /* \"#utility.yul\":29209:29228   */\n      add\n        /* \"#utility.yul\":29203:29229   */\n      mload\n        /* \"#utility.yul\":29194:29229   */\n      swap1\n      pop\n        /* \"#utility.yul\":29166:29243   */\n    tag_593:\n        /* \"#utility.yul\":29269:29336   */\n      tag_594\n        /* \"#utility.yul\":29329:29335   */\n      dup6\n        /* \"#utility.yul\":29322:29327   */\n      dup3\n        /* \"#utility.yul\":29269:29336   */\n      tag_330\n      jump\t// in\n    tag_594:\n        /* \"#utility.yul\":29263:29267   */\n      dup7\n        /* \"#utility.yul\":29256:29337   */\n      sstore\n        /* \"#utility.yul\":29125:29347   */\n      pop\n        /* \"#utility.yul\":28460:29347   */\n      jump(tag_591)\n        /* \"#utility.yul\":28490:29108   */\n    tag_592:\n        /* \"#utility.yul\":28542:28546   */\n      0x1f\n        /* \"#utility.yul\":28538:28547   */\n      not\n        /* \"#utility.yul\":28530:28536   */\n      dup5\n        /* \"#utility.yul\":28526:28548   */\n      and\n        /* \"#utility.yul\":28576:28613   */\n      tag_595\n        /* \"#utility.yul\":28608:28612   */\n      dup7\n        /* \"#utility.yul\":28576:28613   */\n      tag_316\n      jump\t// in\n    tag_595:\n        /* \"#utility.yul\":28635:28636   */\n      0x00\n        /* \"#utility.yul\":28649:28857   */\n    tag_596:\n        /* \"#utility.yul\":28663:28670   */\n      dup3\n        /* \"#utility.yul\":28660:28661   */\n      dup2\n        /* \"#utility.yul\":28657:28671   */\n      lt\n        /* \"#utility.yul\":28649:28857   */\n      iszero\n      tag_598\n      jumpi\n        /* \"#utility.yul\":28742:28751   */\n      dup5\n        /* \"#utility.yul\":28737:28740   */\n      dup10\n        /* \"#utility.yul\":28733:28752   */\n      add\n        /* \"#utility.yul\":28727:28753   */\n      mload\n        /* \"#utility.yul\":28719:28725   */\n      dup3\n        /* \"#utility.yul\":28712:28754   */\n      sstore\n        /* \"#utility.yul\":28793:28794   */\n      0x01\n        /* \"#utility.yul\":28785:28791   */\n      dup3\n        /* \"#utility.yul\":28781:28795   */\n      add\n        /* \"#utility.yul\":28771:28795   */\n      swap2\n      pop\n        /* \"#utility.yul\":28840:28842   */\n      0x20\n        /* \"#utility.yul\":28829:28838   */\n      dup6\n        /* \"#utility.yul\":28825:28843   */\n      add\n        /* \"#utility.yul\":28812:28843   */\n      swap5\n      pop\n        /* \"#utility.yul\":28686:28690   */\n      0x20\n        /* \"#utility.yul\":28683:28684   */\n      dup2\n        /* \"#utility.yul\":28679:28691   */\n      add\n        /* \"#utility.yul\":28674:28691   */\n      swap1\n      pop\n        /* \"#utility.yul\":28649:28857   */\n      jump(tag_596)\n    tag_598:\n        /* \"#utility.yul\":28885:28891   */\n      dup7\n        /* \"#utility.yul\":28876:28883   */\n      dup4\n        /* \"#utility.yul\":28873:28892   */\n      lt\n        /* \"#utility.yul\":28870:29049   */\n      iszero\n      tag_599\n      jumpi\n        /* \"#utility.yul\":28943:28952   */\n      dup5\n        /* \"#utility.yul\":28938:28941   */\n      dup10\n        /* \"#utility.yul\":28934:28953   */\n      add\n        /* \"#utility.yul\":28928:28954   */\n      mload\n        /* \"#utility.yul\":28986:29034   */\n      tag_600\n        /* \"#utility.yul\":29028:29032   */\n      0x1f\n        /* \"#utility.yul\":29020:29026   */\n      dup10\n        /* \"#utility.yul\":29016:29033   */\n      and\n        /* \"#utility.yul\":29005:29014   */\n      dup3\n        /* \"#utility.yul\":28986:29034   */\n      tag_329\n      jump\t// in\n    tag_600:\n        /* \"#utility.yul\":28978:28984   */\n      dup4\n        /* \"#utility.yul\":28971:29035   */\n      sstore\n        /* \"#utility.yul\":28893:29049   */\n      pop\n        /* \"#utility.yul\":28870:29049   */\n    tag_599:\n        /* \"#utility.yul\":29095:29096   */\n      0x01\n        /* \"#utility.yul\":29091:29092   */\n      0x02\n        /* \"#utility.yul\":29083:29089   */\n      dup9\n        /* \"#utility.yul\":29079:29093   */\n      mul\n        /* \"#utility.yul\":29075:29097   */\n      add\n        /* \"#utility.yul\":29069:29073   */\n      dup9\n        /* \"#utility.yul\":29062:29098   */\n      sstore\n        /* \"#utility.yul\":28497:29108   */\n      pop\n      pop\n      pop\n        /* \"#utility.yul\":28460:29347   */\n    tag_591:\n      pop\n        /* \"#utility.yul\":28050:29353   */\n      pop\n      pop\n      pop\n        /* \"#utility.yul\":27958:29353   */\n      pop\n      pop\n      jump\t// out\n        /* \"#utility.yul\":29359:29539   */\n    tag_114:\n        /* \"#utility.yul\":29407:29484   */\n      0x4e487b7100000000000000000000000000000000000000000000000000000000\n        /* \"#utility.yul\":29404:29405   */\n      0x00\n        /* \"#utility.yul\":29397:29485   */\n      mstore\n        /* \"#utility.yul\":29504:29508   */\n      0x32\n        /* \"#utility.yul\":29501:29502   */\n      0x04\n        /* \"#utility.yul\":29494:29509   */\n      mstore\n        /* \"#utility.yul\":29528:29532   */\n      0x24\n        /* \"#utility.yul\":29525:29526   */\n      0x00\n        /* \"#utility.yul\":29518:29533   */\n      revert\n        /* \"#utility.yul\":29545:29715   */\n    tag_331:\n        /* \"#utility.yul\":29685:29707   */\n      0x496e73756666696369656e742062616c616e6365000000000000000000000000\n        /* \"#utility.yul\":29681:29682   */\n      0x00\n        /* \"#utility.yul\":29673:29679   */\n      dup3\n        /* \"#utility.yul\":29669:29683   */\n      add\n        /* \"#utility.yul\":29662:29708   */\n      mstore\n        /* \"#utility.yul\":29545:29715   */\n      pop\n      jump\t// out\n        /* \"#utility.yul\":29721:30087   */\n    tag_332:\n        /* \"#utility.yul\":29863:29866   */\n      0x00\n        /* \"#utility.yul\":29884:29951   */\n      tag_604\n        /* \"#utility.yul\":29948:29950   */\n      0x14\n        /* \"#utility.yul\":29943:29946   */\n      dup4\n        /* \"#utility.yul\":29884:29951   */\n      tag_294\n      jump\t// in\n    tag_604:\n        /* \"#utility.yul\":29877:29951   */\n      swap2\n      pop\n        /* \"#utility.yul\":29960:30053   */\n      tag_605\n        /* \"#utility.yul\":30049:30052   */\n      dup3\n        /* \"#utility.yul\":29960:30053   */\n      tag_331\n      jump\t// in\n    tag_605:\n        /* \"#utility.yul\":30078:30080   */\n      0x20\n        /* \"#utility.yul\":30073:30076   */\n      dup3\n        /* \"#utility.yul\":30069:30081   */\n      add\n        /* \"#utility.yul\":30062:30081   */\n      swap1\n      pop\n        /* \"#utility.yul\":29721:30087   */\n      swap2\n      swap1\n      pop\n      jump\t// out\n        /* \"#utility.yul\":30093:30512   */\n    tag_130:\n        /* \"#utility.yul\":30259:30263   */\n      0x00\n        /* \"#utility.yul\":30297:30299   */\n      0x20\n        /* \"#utility.yul\":30286:30295   */\n      dup3\n        /* \"#utility.yul\":30282:30300   */\n      add\n        /* \"#utility.yul\":30274:30300   */\n      swap1\n      pop\n        /* \"#utility.yul\":30346:30355   */\n      dup2\n        /* \"#utility.yul\":30340:30344   */\n      dup2\n        /* \"#utility.yul\":30336:30356   */\n      sub\n        /* \"#utility.yul\":30332:30333   */\n      0x00\n        /* \"#utility.yul\":30321:30330   */\n      dup4\n        /* \"#utility.yul\":30317:30334   */\n      add\n        /* \"#utility.yul\":30310:30357   */\n      mstore\n        /* \"#utility.yul\":30374:30505   */\n      tag_607\n        /* \"#utility.yul\":30500:30504   */\n      dup2\n        /* \"#utility.yul\":30374:30505   */\n      tag_332\n      jump\t// in\n    tag_607:\n        /* \"#utility.yul\":30366:30505   */\n      swap1\n      pop\n        /* \"#utility.yul\":30093:30512   */\n      swap2\n      swap1\n      pop\n      jump\t// out\n        /* \"#utility.yul\":30518:30698   */\n    tag_333:\n        /* \"#utility.yul\":30566:30643   */\n      0x4e487b7100000000000000000000000000000000000000000000000000000000\n        /* \"#utility.yul\":30563:30564   */\n      0x00\n        /* \"#utility.yul\":30556:30644   */\n      mstore\n        /* \"#utility.yul\":30663:30667   */\n      0x11\n        /* \"#utility.yul\":30660:30661   */\n      0x04\n        /* \"#utility.yul\":30653:30668   */\n      mstore\n        /* \"#utility.yul\":30687:30691   */\n      0x24\n        /* \"#utility.yul\":30684:30685   */\n      0x00\n        /* \"#utility.yul\":30677:30692   */\n      revert\n        /* \"#utility.yul\":30704:30898   */\n    tag_132:\n        /* \"#utility.yul\":30744:30748   */\n      0x00\n        /* \"#utility.yul\":30764:30784   */\n      tag_610\n        /* \"#utility.yul\":30782:30783   */\n      dup3\n        /* \"#utility.yul\":30764:30784   */\n      tag_273\n      jump\t// in\n    tag_610:\n        /* \"#utility.yul\":30759:30784   */\n      swap2\n      pop\n        /* \"#utility.yul\":30798:30818   */\n      tag_611\n        /* \"#utility.yul\":30816:30817   */\n      dup4\n        /* \"#utility.yul\":30798:30818   */\n      tag_273\n      jump\t// in\n    tag_611:\n        /* \"#utility.yul\":30793:30818   */\n      swap3\n      pop\n        /* \"#utility.yul\":30842:30843   */\n      dup3\n        /* \"#utility.yul\":30839:30840   */\n      dup3\n        /* \"#utility.yul\":30835:30844   */\n      sub\n        /* \"#utility.yul\":30827:30844   */\n      swap1\n      pop\n        /* \"#utility.yul\":30866:30867   */\n      dup2\n        /* \"#utility.yul\":30860:30864   */\n      dup2\n        /* \"#utility.yul\":30857:30868   */\n      gt\n        /* \"#utility.yul\":30854:30891   */\n      iszero\n      tag_612\n      jumpi\n        /* \"#utility.yul\":30871:30889   */\n      tag_613\n      tag_333\n      jump\t// in\n    tag_613:\n        /* \"#utility.yul\":30854:30891   */\n    tag_612:\n        /* \"#utility.yul\":30704:30898   */\n      swap3\n      swap2\n      pop\n      pop\n      jump\t// out\n        /* \"#utility.yul\":30904:31072   */\n    tag_334:\n        /* \"#utility.yul\":31044:31064   */\n      0x496e73756666696369656e742073746f636b0000000000000000000000000000\n        /* \"#utility.yul\":31040:31041   */\n      0x00\n        /* \"#utility.yul\":31032:31038   */\n      dup3\n        /* \"#utility.yul\":31028:31042   */\n      add\n        /* \"#utility.yul\":31021:31065   */\n      mstore\n        /* \"#utility.yul\":30904:31072   */\n      pop\n      jump\t// out\n        /* \"#utility.yul\":31078:31444   */\n    tag_335:\n        /* \"#utility.yul\":31220:31223   */\n      0x00\n        /* \"#utility.yul\":31241:31308   */\n      tag_616\n        /* \"#utility.yul\":31305:31307   */\n      0x12\n        /* \"#utility.yul\":31300:31303   */\n      dup4\n        /* \"#utility.yul\":31241:31308   */\n      tag_294\n      jump\t// in\n    tag_616:\n        /* \"#utility.yul\":31234:31308   */\n      swap2\n      pop\n        /* \"#utility.yul\":31317:31410   */\n      tag_617\n        /* \"#utility.yul\":31406:31409   */\n      dup3\n        /* \"#utility.yul\":31317:31410   */\n      tag_334\n      jump\t// in\n    tag_617:\n        /* \"#utility.yul\":31435:31437   */\n      0x20\n        /* \"#utility.yul\":31430:31433   */\n      dup3\n        /* \"#utility.yul\":31426:31438   */\n      add\n        /* \"#utility.yul\":31419:31438   */\n      swap1\n      pop\n        /* \"#utility.yul\":31078:31444   */\n      swap2\n      swap1\n      pop\n      jump\t// out\n        /* \"#utility.yul\":31450:31869   */\n    tag_152:\n        /* \"#utility.yul\":31616:31620   */\n      0x00\n        /* \"#utility.yul\":31654:31656   */\n      0x20\n        /* \"#utility.yul\":31643:31652   */\n      dup3\n        /* \"#utility.yul\":31639:31657   */\n      add\n        /* \"#utility.yul\":31631:31657   */\n      swap1\n      pop\n        /* \"#utility.yul\":31703:31712   */\n      dup2\n        /* \"#utility.yul\":31697:31701   */\n      dup2\n        /* \"#utility.yul\":31693:31713   */\n      sub\n        /* \"#utility.yul\":31689:31690   */\n      0x00\n        /* \"#utility.yul\":31678:31687   */\n      dup4\n        /* \"#utility.yul\":31674:31691   */\n      add\n        /* \"#utility.yul\":31667:31714   */\n      mstore\n        /* \"#utility.yul\":31731:31862   */\n      tag_619\n        /* \"#utility.yul\":31857:31861   */\n      dup2\n        /* \"#utility.yul\":31731:31862   */\n      tag_335\n      jump\t// in\n    tag_619:\n        /* \"#utility.yul\":31723:31862   */\n      swap1\n      pop\n        /* \"#utility.yul\":31450:31869   */\n      swap2\n      swap1\n      pop\n      jump\t// out\n        /* \"#utility.yul\":31875:32045   */\n    tag_336:\n        /* \"#utility.yul\":32015:32037   */\n      0x496e7075742061637475616c2062616c616e6365000000000000000000000000\n        /* \"#utility.yul\":32011:32012   */\n      0x00\n        /* \"#utility.yul\":32003:32009   */\n      dup3\n        /* \"#utility.yul\":31999:32013   */\n      add\n        /* \"#utility.yul\":31992:32038   */\n      mstore\n        /* \"#utility.yul\":31875:32045   */\n      pop\n      jump\t// out\n        /* \"#utility.yul\":32051:32417   */\n    tag_337:\n        /* \"#utility.yul\":32193:32196   */\n      0x00\n        /* \"#utility.yul\":32214:32281   */\n      tag_622\n        /* \"#utility.yul\":32278:32280   */\n      0x14\n        /* \"#utility.yul\":32273:32276   */\n      dup4\n        /* \"#utility.yul\":32214:32281   */\n      tag_294\n      jump\t// in\n    tag_622:\n        /* \"#utility.yul\":32207:32281   */\n      swap2\n      pop\n        /* \"#utility.yul\":32290:32383   */\n      tag_623\n        /* \"#utility.yul\":32379:32382   */\n      dup3\n        /* \"#utility.yul\":32290:32383   */\n      tag_336\n      jump\t// in\n    tag_623:\n        /* \"#utility.yul\":32408:32410   */\n      0x20\n        /* \"#utility.yul\":32403:32406   */\n      dup3\n        /* \"#utility.yul\":32399:32411   */\n      add\n        /* \"#utility.yul\":32392:32411   */\n      swap1\n      pop\n        /* \"#utility.yul\":32051:32417   */\n      swap2\n      swap1\n      pop\n      jump\t// out\n        /* \"#utility.yul\":32423:32842   */\n    tag_155:\n        /* \"#utility.yul\":32589:32593   */\n      0x00\n        /* \"#utility.yul\":32627:32629   */\n      0x20\n        /* \"#utility.yul\":32616:32625   */\n      dup3\n        /* \"#utility.yul\":32612:32630   */\n      add\n        /* \"#utility.yul\":32604:32630   */\n      swap1\n      pop\n        /* \"#utility.yul\":32676:32685   */\n      dup2\n        /* \"#utility.yul\":32670:32674   */\n      dup2\n        /* \"#utility.yul\":32666:32686   */\n      sub\n        /* \"#utility.yul\":32662:32663   */\n      0x00\n        /* \"#utility.yul\":32651:32660   */\n      dup4\n        /* \"#utility.yul\":32647:32664   */\n      add\n        /* \"#utility.yul\":32640:32687   */\n      mstore\n        /* \"#utility.yul\":32704:32835   */\n      tag_625\n        /* \"#utility.yul\":32830:32834   */\n      dup2\n        /* \"#utility.yul\":32704:32835   */\n      tag_337\n      jump\t// in\n    tag_625:\n        /* \"#utility.yul\":32696:32835   */\n      swap1\n      pop\n        /* \"#utility.yul\":32423:32842   */\n      swap2\n      swap1\n      pop\n      jump\t// out\n        /* \"#utility.yul\":32848:33039   */\n    tag_158:\n        /* \"#utility.yul\":32888:32891   */\n      0x00\n        /* \"#utility.yul\":32907:32927   */\n      tag_627\n        /* \"#utility.yul\":32925:32926   */\n      dup3\n        /* \"#utility.yul\":32907:32927   */\n      tag_273\n      jump\t// in\n    tag_627:\n        /* \"#utility.yul\":32902:32927   */\n      swap2\n      pop\n        /* \"#utility.yul\":32941:32961   */\n      tag_628\n        /* \"#utility.yul\":32959:32960   */\n      dup4\n        /* \"#utility.yul\":32941:32961   */\n      tag_273\n      jump\t// in\n    tag_628:\n        /* \"#utility.yul\":32936:32961   */\n      swap3\n      pop\n        /* \"#utility.yul\":32984:32985   */\n      dup3\n        /* \"#utility.yul\":32981:32982   */\n      dup3\n        /* \"#utility.yul\":32977:32986   */\n      add\n        /* \"#utility.yul\":32970:32986   */\n      swap1\n      pop\n        /* \"#utility.yul\":33005:33008   */\n      dup1\n        /* \"#utility.yul\":33002:33003   */\n      dup3\n        /* \"#utility.yul\":32999:33009   */\n      gt\n        /* \"#utility.yul\":32996:33032   */\n      iszero\n      tag_629\n      jumpi\n        /* \"#utility.yul\":33012:33030   */\n      tag_630\n      tag_333\n      jump\t// in\n    tag_630:\n        /* \"#utility.yul\":32996:33032   */\n    tag_629:\n        /* \"#utility.yul\":32848:33039   */\n      swap3\n      swap2\n      pop\n      pop\n      jump\t// out\n        /* \"#utility.yul\":33069:33900   */\n    tag_338:\n        /* \"#utility.yul\":33154:33157   */\n      0x00\n        /* \"#utility.yul\":33191:33196   */\n      dup2\n        /* \"#utility.yul\":33185:33197   */\n      sload\n        /* \"#utility.yul\":33220:33256   */\n      tag_632\n        /* \"#utility.yul\":33246:33255   */\n      dup2\n        /* \"#utility.yul\":33220:33256   */\n      tag_117\n      jump\t// in\n    tag_632:\n        /* \"#utility.yul\":33272:33343   */\n      tag_633\n        /* \"#utility.yul\":33336:33342   */\n      dup2\n        /* \"#utility.yul\":33331:33334   */\n      dup7\n        /* \"#utility.yul\":33272:33343   */\n      tag_294\n      jump\t// in\n    tag_633:\n        /* \"#utility.yul\":33265:33343   */\n      swap5\n      pop\n        /* \"#utility.yul\":33374:33375   */\n      0x01\n        /* \"#utility.yul\":33363:33372   */\n      dup3\n        /* \"#utility.yul\":33359:33376   */\n      and\n        /* \"#utility.yul\":33390:33391   */\n      0x00\n        /* \"#utility.yul\":33385:33549   */\n      dup2\n      eq\n      tag_635\n      jumpi\n        /* \"#utility.yul\":33563:33564   */\n      0x01\n        /* \"#utility.yul\":33558:33894   */\n      dup2\n      eq\n      tag_636\n      jumpi\n        /* \"#utility.yul\":33352:33894   */\n      jump(tag_634)\n        /* \"#utility.yul\":33385:33549   */\n    tag_635:\n        /* \"#utility.yul\":33469:33473   */\n      0xff\n        /* \"#utility.yul\":33465:33474   */\n      not\n        /* \"#utility.yul\":33454:33463   */\n      dup4\n        /* \"#utility.yul\":33450:33475   */\n      and\n        /* \"#utility.yul\":33445:33448   */\n      dup7\n        /* \"#utility.yul\":33438:33476   */\n      mstore\n        /* \"#utility.yul\":33529:33535   */\n      dup2\n        /* \"#utility.yul\":33522:33536   */\n      iszero\n        /* \"#utility.yul\":33515:33537   */\n      iszero\n        /* \"#utility.yul\":33509:33513   */\n      0x20\n        /* \"#utility.yul\":33505:33538   */\n      mul\n        /* \"#utility.yul\":33500:33503   */\n      dup7\n        /* \"#utility.yul\":33496:33539   */\n      add\n        /* \"#utility.yul\":33489:33539   */\n      swap4\n      pop\n        /* \"#utility.yul\":33385:33549   */\n      jump(tag_634)\n        /* \"#utility.yul\":33558:33894   */\n    tag_636:\n        /* \"#utility.yul\":33625:33663   */\n      tag_637\n        /* \"#utility.yul\":33657:33662   */\n      dup6\n        /* \"#utility.yul\":33625:33663   */\n      tag_316\n      jump\t// in\n    tag_637:\n        /* \"#utility.yul\":33685:33686   */\n      0x00\n        /* \"#utility.yul\":33699:33853   */\n    tag_638:\n        /* \"#utility.yul\":33713:33719   */\n      dup4\n        /* \"#utility.yul\":33710:33711   */\n      dup2\n        /* \"#utility.yul\":33707:33720   */\n      lt\n        /* \"#utility.yul\":33699:33853   */\n      iszero\n      tag_640\n      jumpi\n        /* \"#utility.yul\":33787:33794   */\n      dup2\n        /* \"#utility.yul\":33781:33795   */\n      sload\n        /* \"#utility.yul\":33777:33778   */\n      dup2\n        /* \"#utility.yul\":33772:33775   */\n      dup10\n        /* \"#utility.yul\":33768:33779   */\n      add\n        /* \"#utility.yul\":33761:33796   */\n      mstore\n        /* \"#utility.yul\":33837:33838   */\n      0x01\n        /* \"#utility.yul\":33828:33835   */\n      dup3\n        /* \"#utility.yul\":33824:33839   */\n      add\n        /* \"#utility.yul\":33813:33839   */\n      swap2\n      pop\n        /* \"#utility.yul\":33735:33739   */\n      0x20\n        /* \"#utility.yul\":33732:33733   */\n      dup2\n        /* \"#utility.yul\":33728:33740   */\n      add\n        /* \"#utility.yul\":33723:33740   */\n      swap1\n      pop\n        /* \"#utility.yul\":33699:33853   */\n      jump(tag_638)\n    tag_640:\n        /* \"#utility.yul\":33882:33883   */\n      dup1\n        /* \"#utility.yul\":33877:33880   */\n      dup9\n        /* \"#utility.yul\":33873:33884   */\n      add\n        /* \"#utility.yul\":33866:33884   */\n      swap6\n      pop\n        /* \"#utility.yul\":33565:33894   */\n      pop\n      pop\n        /* \"#utility.yul\":33352:33894   */\n    tag_634:\n      pop\n        /* \"#utility.yul\":33158:33900   */\n      pop\n      pop\n        /* \"#utility.yul\":33069:33900   */\n      swap3\n      swap2\n      pop\n      pop\n      jump\t// out\n        /* \"#utility.yul\":33906:34433   */\n    tag_180:\n        /* \"#utility.yul\":34072:34076   */\n      0x00\n        /* \"#utility.yul\":34110:34112   */\n      0x60\n        /* \"#utility.yul\":34099:34108   */\n      dup3\n        /* \"#utility.yul\":34095:34113   */\n      add\n        /* \"#utility.yul\":34087:34113   */\n      swap1\n      pop\n        /* \"#utility.yul\":34123:34194   */\n      tag_642\n        /* \"#utility.yul\":34191:34192   */\n      0x00\n        /* \"#utility.yul\":34180:34189   */\n      dup4\n        /* \"#utility.yul\":34176:34193   */\n      add\n        /* \"#utility.yul\":34167:34173   */\n      dup7\n        /* \"#utility.yul\":34123:34194   */\n      tag_293\n      jump\t// in\n    tag_642:\n        /* \"#utility.yul\":34241:34250   */\n      dup2\n        /* \"#utility.yul\":34235:34239   */\n      dup2\n        /* \"#utility.yul\":34231:34251   */\n      sub\n        /* \"#utility.yul\":34226:34228   */\n      0x20\n        /* \"#utility.yul\":34215:34224   */\n      dup4\n        /* \"#utility.yul\":34211:34229   */\n      add\n        /* \"#utility.yul\":34204:34252   */\n      mstore\n        /* \"#utility.yul\":34269:34344   */\n      tag_643\n        /* \"#utility.yul\":34339:34343   */\n      dup2\n        /* \"#utility.yul\":34330:34336   */\n      dup6\n        /* \"#utility.yul\":34269:34344   */\n      tag_338\n      jump\t// in\n    tag_643:\n        /* \"#utility.yul\":34261:34344   */\n      swap1\n      pop\n        /* \"#utility.yul\":34354:34426   */\n      tag_644\n        /* \"#utility.yul\":34422:34424   */\n      0x40\n        /* \"#utility.yul\":34411:34420   */\n      dup4\n        /* \"#utility.yul\":34407:34425   */\n      add\n        /* \"#utility.yul\":34398:34404   */\n      dup5\n        /* \"#utility.yul\":34354:34426   */\n      tag_296\n      jump\t// in\n    tag_644:\n        /* \"#utility.yul\":33906:34433   */\n      swap5\n      swap4\n      pop\n      pop\n      pop\n      pop\n      jump\t// out\n\n    auxdata: 0xa26469706673582212202a5b894909154e6be5d386403b0f379dbbb1c1d25cfb385ad282fe0811d2615f64736f6c634300081a0033\n}\n",
				"bytecode": {
					"linkReferences": {},
					"object": "6080604052348015600e575f80fd5b50335f806101000a81548173ffffffffffffffffffffffffffffffffffffffff021916908373ffffffffffffffffffffffffffffffffffffffff16021790555061254f8061005b5f395ff3fe6080604052600436106100c1575f3560e01c80639ee0918f1161007e578063d616aad211610058578063d616aad214610259578063d6920a4d14610298578063e04f38da146102d7578063edf16c0e146102ff576100c1565b80639ee0918f146101b7578063a5fe9948146101f3578063bedcf0031461022f576100c1565b80634bc8e34b146100c557806359705f81146100ed5780638a366757146101175780638da5cb5b146101335780639ace38c21461015d5780639ba06cdc1461019b575b5f80fd5b3480156100d0575f80fd5b506100eb60048036038101906100e691906116f0565b610327565b005b3480156100f8575f80fd5b50610101610477565b60405161010e9190611955565b60405180910390f35b610131600480360381019061012c9190611975565b610635565b005b34801561013e575f80fd5b50610147610785565b60405161015491906119c0565b60405180910390f35b348015610168575f80fd5b50610183600480360381019061017e9190611975565b6107a8565b60405161019293929190611a3f565b60405180910390f35b6101b560048036038101906101b09190611a7b565b610882565b005b3480156101c2575f80fd5b506101dd60048036038101906101d89190611ae3565b610d04565b6040516101ea9190611c30565b60405180910390f35b3480156101fe575f80fd5b5061021960048036038101906102149190611c50565b610ed0565b6040516102269190611d9d565b60405180910390f35b34801561023a575f80fd5b50610243611094565b6040516102509190611dbd565b60405180910390f35b348015610264575f80fd5b5061027f600480360381019061027a9190611a7b565b61109a565b60405161028f9493929190611dd6565b60405180910390f35b3480156102a3575f80fd5b506102be60048036038101906102b99190611e27565b6111ec565b6040516102ce9493929190611e65565b60405180910390f35b3480156102e2575f80fd5b506102fd60048036038101906102f89190611eb6565b61133e565b005b34801561030a575f80fd5b5061032560048036038101906103209190611eb6565b61142b565b005b5f8054906101000a900473ffffffffffffffffffffffffffffffffffffffff1673ffffffffffffffffffffffffffffffffffffffff163373ffffffffffffffffffffffffffffffffffffffff16146103b4576040517f08c379a00000000000000000000000000000000000000000000000000000000081526004016103ab90611f50565b60405180910390fd5b60035f8660018111156103ca576103c9611f6e565b5b60018111156103dc576103db611f6e565b5b81526020019081526020015f20604051806080016040528086815260200185815260200184815260200183815250908060018154018082558091505060019003905f5260205f2090600402015f909190919091505f820151815f0190816104439190612195565b506020820151816001015560408201518160020155606082015181600301908161046d9190612195565b5050505050505050565b60605f60028054905067ffffffffffffffff81111561049957610498611599565b5b6040519080825280602002602001820160405280156104d257816020015b6104bf611518565b8152602001906001900390816104b75790505b5090505f5b60028054905081101561062d575f600282815481106104f9576104f8612264565b5b905f5260205f2090600302019050806040518060600160405290815f82015f9054906101000a900473ffffffffffffffffffffffffffffffffffffffff1673ffffffffffffffffffffffffffffffffffffffff1673ffffffffffffffffffffffffffffffffffffffff16815260200160018201805461057790611fc8565b80601f01602080910402602001604051908101604052809291908181526020018280546105a390611fc8565b80156105ee5780601f106105c5576101008083540402835291602001916105ee565b820191905f5260205f20905b8154815290600101906020018083116105d157829003601f168201915b5050505050815260200160028201548152505083838151811061061457610613612264565b5b60200260200101819052505080806001019150506104d7565b508091505090565b5f8054906101000a900473ffffffffffffffffffffffffffffffffffffffff1673ffffffffffffffffffffffffffffffffffffffff163373ffffffffffffffffffffffffffffffffffffffff16146106c2576040517f08c379a00000000000000000000000000000000000000000000000000000000081526004016106b990611f50565b60405180910390fd5b600154811115610707576040517f08c379a00000000000000000000000000000000000000000000000000000000081526004016106fe906122db565b60405180910390fd5b8060015f8282546107189190612326565b925050819055505f8054906101000a900473ffffffffffffffffffffffffffffffffffffffff1673ffffffffffffffffffffffffffffffffffffffff166108fc8290811502906040515f60405180830381858888f19350505050158015610781573d5f803e3d5ffd5b5050565b5f8054906101000a900473ffffffffffffffffffffffffffffffffffffffff1681565b600281815481106107b7575f80fd5b905f5260205f2090600302015f91509050805f015f9054906101000a900473ffffffffffffffffffffffffffffffffffffffff16908060010180546107fb90611fc8565b80601f016020809104026020016040519081016040528092919081815260200182805461082790611fc8565b80156108725780601f1061084957610100808354040283529160200191610872565b820191905f5260205f20905b81548152906001019060200180831161085557829003601f168201915b5050505050908060020154905083565b5f60035f84600181111561089957610898611f6e565b5b60018111156108ab576108aa611f6e565b5b81526020019081526020015f2082815481106108ca576108c9612264565b5b905f5260205f20906004020190505f81600201541161091e576040517f08c379a0000000000000000000000000000000000000000000000000000000008152600401610915906123a3565b60405180910390fd5b34816001015414610964576040517f08c379a000000000000000000000000000000000000000000000000000000000815260040161095b9061240b565b60405180910390fd5b6001816002015f8282546109789190612326565b925050819055503460015f8282546109909190612429565b92505081905550600260405180606001604052803373ffffffffffffffffffffffffffffffffffffffff168152602001835f0180546109ce90611fc8565b80601f01602080910402602001604051908101604052809291908181526020018280546109fa90611fc8565b8015610a455780601f10610a1c57610100808354040283529160200191610a45565b820191905f5260205f20905b815481529060010190602001808311610a2857829003601f168201915b505050505081526020018360010154815250908060018154018082558091505060019003905f5260205f2090600302015f909190919091505f820151815f015f6101000a81548173ffffffffffffffffffffffffffffffffffffffff021916908373ffffffffffffffffffffffffffffffffffffffff1602179055506020820151816001019081610ad69190612195565b5060408201518160020155505060045f3373ffffffffffffffffffffffffffffffffffffffff1673ffffffffffffffffffffffffffffffffffffffff1681526020019081526020015f206040518060800160405280835f018054610b3990611fc8565b80601f0160208091040260200160405190810160405280929190818152602001828054610b6590611fc8565b8015610bb05780601f10610b8757610100808354040283529160200191610bb0565b820191905f5260205f20905b815481529060010190602001808311610b9357829003601f168201915b5050505050815260200183600101548152602001836003018054610bd390611fc8565b80601f0160208091040260200160405190810160405280929190818152602001828054610bff90611fc8565b8015610c4a5780601f10610c2157610100808354040283529160200191610c4a565b820191905f5260205f20905b815481529060010190602001808311610c2d57829003601f168201915b5050505050815260200142815250908060018154018082558091505060019003905f5260205f2090600402015f909190919091505f820151815f019081610c919190612195565b50602082015181600101556040820151816002019081610cb19190612195565b506060820151816003015550507f2684dcc6eb87e1e9139a0475e85e88be318d84ee8535f407cd8fe2a5ff187fde33825f018360010154604051610cf7939291906124dd565b60405180910390a1505050565b606060045f8373ffffffffffffffffffffffffffffffffffffffff1673ffffffffffffffffffffffffffffffffffffffff1681526020019081526020015f20805480602002602001604051908101604052809291908181526020015f905b82821015610ec5578382905f5260205f2090600402016040518060800160405290815f82018054610d9290611fc8565b80601f0160208091040260200160405190810160405280929190818152602001828054610dbe90611fc8565b8015610e095780601f10610de057610100808354040283529160200191610e09565b820191905f5260205f20905b815481529060010190602001808311610dec57829003601f168201915b5050505050815260200160018201548152602001600282018054610e2c90611fc8565b80601f0160208091040260200160405190810160405280929190818152602001828054610e5890611fc8565b8015610ea35780601f10610e7a57610100808354040283529160200191610ea3565b820191905f5260205f20905b815481529060010190602001808311610e8657829003601f168201915b5050505050815260200160038201548152505081526020019060010190610d62565b505050509050919050565b606060035f836001811115610ee857610ee7611f6e565b5b6001811115610efa57610ef9611f6e565b5b81526020019081526020015f20805480602002602001604051908101604052809291908181526020015f905b82821015611089578382905f5260205f2090600402016040518060800160405290815f82018054610f5690611fc8565b80601f0160208091040260200160405190810160405280929190818152602001828054610f8290611fc8565b8015610fcd5780601f10610fa457610100808354040283529160200191610fcd565b820191905f5260205f20905b815481529060010190602001808311610fb057829003601f168201915b505050505081526020016001820154815260200160028201548152602001600382018054610ffa90611fc8565b80601f016020809104026020016040519081016040528092919081815260200182805461102690611fc8565b80156110715780601f1061104857610100808354040283529160200191611071565b820191905f5260205f20905b81548152906001019060200180831161105457829003601f168201915b50505050508152505081526020019060010190610f26565b505050509050919050565b60015481565b6003602052815f5260405f2081815481106110b3575f80fd5b905f5260205f2090600402015f9150915050805f0180546110d390611fc8565b80601f01602080910402602001604051908101604052809291908181526020018280546110ff90611fc8565b801561114a5780601f106111215761010080835404028352916020019161114a565b820191905f5260205f20905b81548152906001019060200180831161112d57829003601f168201915b50505050509080600101549080600201549080600301805461116b90611fc8565b80601f016020809104026020016040519081016040528092919081815260200182805461119790611fc8565b80156111e25780601f106111b9576101008083540402835291602001916111e2565b820191905f5260205f20905b8154815290600101906020018083116111c557829003601f168201915b5050505050905084565b6004602052815f5260405f208181548110611205575f80fd5b905f5260205f2090600402015f9150915050805f01805461122590611fc8565b80601f016020809104026020016040519081016040528092919081815260200182805461125190611fc8565b801561129c5780601f106112735761010080835404028352916020019161129c565b820191905f5260205f20905b81548152906001019060200180831161127f57829003601f168201915b5050505050908060010154908060020180546112b790611fc8565b80601f01602080910402602001604051908101604052809291908181526020018280546112e390611fc8565b801561132e5780601f106113055761010080835404028352916020019161132e565b820191905f5260205f20905b81548152906001019060200180831161131157829003601f168201915b5050505050908060030154905084565b5f8054906101000a900473ffffffffffffffffffffffffffffffffffffffff1673ffffffffffffffffffffffffffffffffffffffff163373ffffffffffffffffffffffffffffffffffffffff16146113cb576040517f08c379a00000000000000000000000000000000000000000000000000000000081526004016113c290611f50565b60405180910390fd5b8060035f8560018111156113e2576113e1611f6e565b5b60018111156113f4576113f3611f6e565b5b81526020019081526020015f20838154811061141357611412612264565b5b905f5260205f20906004020160010181905550505050565b5f8054906101000a900473ffffffffffffffffffffffffffffffffffffffff1673ffffffffffffffffffffffffffffffffffffffff163373ffffffffffffffffffffffffffffffffffffffff16146114b8576040517f08c379a00000000000000000000000000000000000000000000000000000000081526004016114af90611f50565b60405180910390fd5b8060035f8560018111156114cf576114ce611f6e565b5b60018111156114e1576114e0611f6e565b5b81526020019081526020015f208381548110611500576114ff612264565b5b905f5260205f20906004020160020181905550505050565b60405180606001604052805f73ffffffffffffffffffffffffffffffffffffffff168152602001606081526020015f81525090565b5f604051905090565b5f80fd5b5f80fd5b6002811061156a575f80fd5b50565b5f8135905061157b8161155e565b92915050565b5f80fd5b5f80fd5b5f601f19601f8301169050919050565b7f4e487b71000000000000000000000000000000000000000000000000000000005f52604160045260245ffd5b6115cf82611589565b810181811067ffffffffffffffff821117156115ee576115ed611599565b5b80604052505050565b5f61160061154d565b905061160c82826115c6565b919050565b5f67ffffffffffffffff82111561162b5761162a611599565b5b61163482611589565b9050602081019050919050565b828183375f83830152505050565b5f61166161165c84611611565b6115f7565b90508281526020810184848401111561167d5761167c611585565b5b611688848285611641565b509392505050565b5f82601f8301126116a4576116a3611581565b5b81356116b484826020860161164f565b91505092915050565b5f819050919050565b6116cf816116bd565b81146116d9575f80fd5b50565b5f813590506116ea816116c6565b92915050565b5f805f805f60a0868803121561170957611708611556565b5b5f6117168882890161156d565b955050602086013567ffffffffffffffff8111156117375761173661155a565b5b61174388828901611690565b9450506040611754888289016116dc565b9350506060611765888289016116dc565b925050608086013567ffffffffffffffff8111156117865761178561155a565b5b61179288828901611690565b9150509295509295909350565b5f81519050919050565b5f82825260208201905092915050565b5f819050602082019050919050565b5f73ffffffffffffffffffffffffffffffffffffffff82169050919050565b5f6117f1826117c8565b9050919050565b611801816117e7565b82525050565b5f81519050919050565b5f82825260208201905092915050565b8281835e5f83830152505050565b5f61183982611807565b6118438185611811565b9350611853818560208601611821565b61185c81611589565b840191505092915050565b611870816116bd565b82525050565b5f606083015f83015161188b5f8601826117f8565b50602083015184820360208601526118a3828261182f565b91505060408301516118b86040860182611867565b508091505092915050565b5f6118ce8383611876565b905092915050565b5f602082019050919050565b5f6118ec8261179f565b6118f681856117a9565b935083602082028501611908856117b9565b805f5b85811015611943578484038952815161192485826118c3565b945061192f836118d6565b925060208a0199505060018101905061190b565b50829750879550505050505092915050565b5f6020820190508181035f83015261196d81846118e2565b905092915050565b5f6020828403121561198a57611989611556565b5b5f611997848285016116dc565b91505092915050565b5f6119aa826117c8565b9050919050565b6119ba816119a0565b82525050565b5f6020820190506119d35f8301846119b1565b92915050565b6119e2816117e7565b82525050565b5f82825260208201905092915050565b5f611a0282611807565b611a0c81856119e8565b9350611a1c818560208601611821565b611a2581611589565b840191505092915050565b611a39816116bd565b82525050565b5f606082019050611a525f8301866119d9565b8181036020830152611a6481856119f8565b9050611a736040830184611a30565b949350505050565b5f8060408385031215611a9157611a90611556565b5b5f611a9e8582860161156d565b9250506020611aaf858286016116dc565b9150509250929050565b611ac2816117e7565b8114611acc575f80fd5b50565b5f81359050611add81611ab9565b92915050565b5f60208284031215611af857611af7611556565b5b5f611b0584828501611acf565b91505092915050565b5f81519050919050565b5f82825260208201905092915050565b5f819050602082019050919050565b5f608083015f8301518482035f860152611b51828261182f565b9150506020830151611b666020860182611867565b5060408301518482036040860152611b7e828261182f565b9150506060830151611b936060860182611867565b508091505092915050565b5f611ba98383611b37565b905092915050565b5f602082019050919050565b5f611bc782611b0e565b611bd18185611b18565b935083602082028501611be385611b28565b805f5b85811015611c1e5784840389528151611bff8582611b9e565b9450611c0a83611bb1565b925060208a01995050600181019050611be6565b50829750879550505050505092915050565b5f6020820190508181035f830152611c488184611bbd565b905092915050565b5f60208284031215611c6557611c64611556565b5b5f611c728482850161156d565b91505092915050565b5f81519050919050565b5f82825260208201905092915050565b5f819050602082019050919050565b5f608083015f8301518482035f860152611cbe828261182f565b9150506020830151611cd36020860182611867565b506040830151611ce66040860182611867565b5060608301518482036060860152611cfe828261182f565b9150508091505092915050565b5f611d168383611ca4565b905092915050565b5f602082019050919050565b5f611d3482611c7b565b611d3e8185611c85565b935083602082028501611d5085611c95565b805f5b85811015611d8b5784840389528151611d6c8582611d0b565b9450611d7783611d1e565b925060208a01995050600181019050611d53565b50829750879550505050505092915050565b5f6020820190508181035f830152611db58184611d2a565b905092915050565b5f602082019050611dd05f830184611a30565b92915050565b5f6080820190508181035f830152611dee81876119f8565b9050611dfd6020830186611a30565b611e0a6040830185611a30565b8181036060830152611e1c81846119f8565b905095945050505050565b5f8060408385031215611e3d57611e3c611556565b5b5f611e4a85828601611acf565b9250506020611e5b858286016116dc565b9150509250929050565b5f6080820190508181035f830152611e7d81876119f8565b9050611e8c6020830186611a30565b8181036040830152611e9e81856119f8565b9050611ead6060830184611a30565b95945050505050565b5f805f60608486031215611ecd57611ecc611556565b5b5f611eda8682870161156d565b9350506020611eeb868287016116dc565b9250506040611efc868287016116dc565b9150509250925092565b7f596f7520646f6e74206861766520617574686f72697a650000000000000000005f82015250565b5f611f3a6017836119e8565b9150611f4582611f06565b602082019050919050565b5f6020820190508181035f830152611f6781611f2e565b9050919050565b7f4e487b71000000000000000000000000000000000000000000000000000000005f52602160045260245ffd5b7f4e487b71000000000000000000000000000000000000000000000000000000005f52602260045260245ffd5b5f6002820490506001821680611fdf57607f821691505b602082108103611ff257611ff1611f9b565b5b50919050565b5f819050815f5260205f209050919050565b5f6020601f8301049050919050565b5f82821b905092915050565b5f600883026120547fffffffffffffffffffffffffffffffffffffffffffffffffffffffffffffffff82612019565b61205e8683612019565b95508019841693508086168417925050509392505050565b5f819050919050565b5f61209961209461208f846116bd565b612076565b6116bd565b9050919050565b5f819050919050565b6120b28361207f565b6120c66120be826120a0565b848454612025565b825550505050565b5f90565b6120da6120ce565b6120e58184846120a9565b505050565b5b81811015612108576120fd5f826120d2565b6001810190506120eb565b5050565b601f82111561214d5761211e81611ff8565b6121278461200a565b81016020851015612136578190505b61214a6121428561200a565b8301826120ea565b50505b505050565b5f82821c905092915050565b5f61216d5f1984600802612152565b1980831691505092915050565b5f612185838361215e565b9150826002028217905092915050565b61219e82611807565b67ffffffffffffffff8111156121b7576121b6611599565b5b6121c18254611fc8565b6121cc82828561210c565b5f60209050601f8311600181146121fd575f84156121eb578287015190505b6121f5858261217a565b86555061225c565b601f19841661220b86611ff8565b5f5b828110156122325784890151825560018201915060208501945060208101905061220d565b8683101561224f578489015161224b601f89168261215e565b8355505b6001600288020188555050505b505050505050565b7f4e487b71000000000000000000000000000000000000000000000000000000005f52603260045260245ffd5b7f496e73756666696369656e742062616c616e63650000000000000000000000005f82015250565b5f6122c56014836119e8565b91506122d082612291565b602082019050919050565b5f6020820190508181035f8301526122f2816122b9565b9050919050565b7f4e487b71000000000000000000000000000000000000000000000000000000005f52601160045260245ffd5b5f612330826116bd565b915061233b836116bd565b9250828203905081811115612353576123526122f9565b5b92915050565b7f496e73756666696369656e742073746f636b00000000000000000000000000005f82015250565b5f61238d6012836119e8565b915061239882612359565b602082019050919050565b5f6020820190508181035f8301526123ba81612381565b9050919050565b7f496e7075742061637475616c2062616c616e63650000000000000000000000005f82015250565b5f6123f56014836119e8565b9150612400826123c1565b602082019050919050565b5f6020820190508181035f830152612422816123e9565b9050919050565b5f612433826116bd565b915061243e836116bd565b9250828201905080821115612456576124556122f9565b5b92915050565b5f815461246881611fc8565b61247281866119e8565b9450600182165f811461248c57600181146124a2576124d4565b60ff1983168652811515602002860193506124d4565b6124ab85611ff8565b5f5b838110156124cc578154818901526001820191506020810190506124ad565b808801955050505b50505092915050565b5f6060820190506124f05f8301866119d9565b8181036020830152612502818561245c565b90506125116040830184611a30565b94935050505056fea26469706673582212202a5b894909154e6be5d386403b0f379dbbb1c1d25cfb385ad282fe0811d2615f64736f6c634300081a0033",
					"opcodes": "PUSH1 0x80 PUSH1 0x40 MSTORE CALLVALUE DUP1 ISZERO PUSH1 0xE JUMPI PUSH0 DUP1 REVERT JUMPDEST POP CALLER PUSH0 DUP1 PUSH2 0x100 EXP DUP2 SLOAD DUP2 PUSH20 0xFFFFFFFFFFFFFFFFFFFFFFFFFFFFFFFFFFFFFFFF MUL NOT AND SWAP1 DUP4 PUSH20 0xFFFFFFFFFFFFFFFFFFFFFFFFFFFFFFFFFFFFFFFF AND MUL OR SWAP1 SSTORE POP PUSH2 0x254F DUP1 PUSH2 0x5B PUSH0 CODECOPY PUSH0 RETURN INVALID PUSH1 0x80 PUSH1 0x40 MSTORE PUSH1 0x4 CALLDATASIZE LT PUSH2 0xC1 JUMPI PUSH0 CALLDATALOAD PUSH1 0xE0 SHR DUP1 PUSH4 0x9EE0918F GT PUSH2 0x7E JUMPI DUP1 PUSH4 0xD616AAD2 GT PUSH2 0x58 JUMPI DUP1 PUSH4 0xD616AAD2 EQ PUSH2 0x259 JUMPI DUP1 PUSH4 0xD6920A4D EQ PUSH2 0x298 JUMPI DUP1 PUSH4 0xE04F38DA EQ PUSH2 0x2D7 JUMPI DUP1 PUSH4 0xEDF16C0E EQ PUSH2 0x2FF JUMPI PUSH2 0xC1 JUMP JUMPDEST DUP1 PUSH4 0x9EE0918F EQ PUSH2 0x1B7 JUMPI DUP1 PUSH4 0xA5FE9948 EQ PUSH2 0x1F3 JUMPI DUP1 PUSH4 0xBEDCF003 EQ PUSH2 0x22F JUMPI PUSH2 0xC1 JUMP JUMPDEST DUP1 PUSH4 0x4BC8E34B EQ PUSH2 0xC5 JUMPI DUP1 PUSH4 0x59705F81 EQ PUSH2 0xED JUMPI DUP1 PUSH4 0x8A366757 EQ PUSH2 0x117 JUMPI DUP1 PUSH4 0x8DA5CB5B EQ PUSH2 0x133 JUMPI DUP1 PUSH4 0x9ACE38C2 EQ PUSH2 0x15D JUMPI DUP1 PUSH4 0x9BA06CDC EQ PUSH2 0x19B JUMPI JUMPDEST PUSH0 DUP1 REVERT JUMPDEST CALLVALUE DUP1 ISZERO PUSH2 0xD0 JUMPI PUSH0 DUP1 REVERT JUMPDEST POP PUSH2 0xEB PUSH1 0x4 DUP1 CALLDATASIZE SUB DUP2 ADD SWAP1 PUSH2 0xE6 SWAP2 SWAP1 PUSH2 0x16F0 JUMP JUMPDEST PUSH2 0x327 JUMP JUMPDEST STOP JUMPDEST CALLVALUE DUP1 ISZERO PUSH2 0xF8 JUMPI PUSH0 DUP1 REVERT JUMPDEST POP PUSH2 0x101 PUSH2 0x477 JUMP JUMPDEST PUSH1 0x40 MLOAD PUSH2 0x10E SWAP2 SWAP1 PUSH2 0x1955 JUMP JUMPDEST PUSH1 0x40 MLOAD DUP1 SWAP2 SUB SWAP1 RETURN JUMPDEST PUSH2 0x131 PUSH1 0x4 DUP1 CALLDATASIZE SUB DUP2 ADD SWAP1 PUSH2 0x12C SWAP2 SWAP1 PUSH2 0x1975 JUMP JUMPDEST PUSH2 0x635 JUMP JUMPDEST STOP JUMPDEST CALLVALUE DUP1 ISZERO PUSH2 0x13E JUMPI PUSH0 DUP1 REVERT JUMPDEST POP PUSH2 0x147 PUSH2 0x785 JUMP JUMPDEST PUSH1 0x40 MLOAD PUSH2 0x154 SWAP2 SWAP1 PUSH2 0x19C0 JUMP JUMPDEST PUSH1 0x40 MLOAD DUP1 SWAP2 SUB SWAP1 RETURN JUMPDEST CALLVALUE DUP1 ISZERO PUSH2 0x168 JUMPI PUSH0 DUP1 REVERT JUMPDEST POP PUSH2 0x183 PUSH1 0x4 DUP1 CALLDATASIZE SUB DUP2 ADD SWAP1 PUSH2 0x17E SWAP2 SWAP1 PUSH2 0x1975 JUMP JUMPDEST PUSH2 0x7A8 JUMP JUMPDEST PUSH1 0x40 MLOAD PUSH2 0x192 SWAP4 SWAP3 SWAP2 SWAP1 PUSH2 0x1A3F JUMP JUMPDEST PUSH1 0x40 MLOAD DUP1 SWAP2 SUB SWAP1 RETURN JUMPDEST PUSH2 0x1B5 PUSH1 0x4 DUP1 CALLDATASIZE SUB DUP2 ADD SWAP1 PUSH2 0x1B0 SWAP2 SWAP1 PUSH2 0x1A7B JUMP JUMPDEST PUSH2 0x882 JUMP JUMPDEST STOP JUMPDEST CALLVALUE DUP1 ISZERO PUSH2 0x1C2 JUMPI PUSH0 DUP1 REVERT JUMPDEST POP PUSH2 0x1DD PUSH1 0x4 DUP1 CALLDATASIZE SUB DUP2 ADD SWAP1 PUSH2 0x1D8 SWAP2 SWAP1 PUSH2 0x1AE3 JUMP JUMPDEST PUSH2 0xD04 JUMP JUMPDEST PUSH1 0x40 MLOAD PUSH2 0x1EA SWAP2 SWAP1 PUSH2 0x1C30 JUMP JUMPDEST PUSH1 0x40 MLOAD DUP1 SWAP2 SUB SWAP1 RETURN JUMPDEST CALLVALUE DUP1 ISZERO PUSH2 0x1FE JUMPI PUSH0 DUP1 REVERT JUMPDEST POP PUSH2 0x219 PUSH1 0x4 DUP1 CALLDATASIZE SUB DUP2 ADD SWAP1 PUSH2 0x214 SWAP2 SWAP1 PUSH2 0x1C50 JUMP JUMPDEST PUSH2 0xED0 JUMP JUMPDEST PUSH1 0x40 MLOAD PUSH2 0x226 SWAP2 SWAP1 PUSH2 0x1D9D JUMP JUMPDEST PUSH1 0x40 MLOAD DUP1 SWAP2 SUB SWAP1 RETURN JUMPDEST CALLVALUE DUP1 ISZERO PUSH2 0x23A JUMPI PUSH0 DUP1 REVERT JUMPDEST POP PUSH2 0x243 PUSH2 0x1094 JUMP JUMPDEST PUSH1 0x40 MLOAD PUSH2 0x250 SWAP2 SWAP1 PUSH2 0x1DBD JUMP JUMPDEST PUSH1 0x40 MLOAD DUP1 SWAP2 SUB SWAP1 RETURN JUMPDEST CALLVALUE DUP1 ISZERO PUSH2 0x264 JUMPI PUSH0 DUP1 REVERT JUMPDEST POP PUSH2 0x27F PUSH1 0x4 DUP1 CALLDATASIZE SUB DUP2 ADD SWAP1 PUSH2 0x27A SWAP2 SWAP1 PUSH2 0x1A7B JUMP JUMPDEST PUSH2 0x109A JUMP JUMPDEST PUSH1 0x40 MLOAD PUSH2 0x28F SWAP5 SWAP4 SWAP3 SWAP2 SWAP1 PUSH2 0x1DD6 JUMP JUMPDEST PUSH1 0x40 MLOAD DUP1 SWAP2 SUB SWAP1 RETURN JUMPDEST CALLVALUE DUP1 ISZERO PUSH2 0x2A3 JUMPI PUSH0 DUP1 REVERT JUMPDEST POP PUSH2 0x2BE PUSH1 0x4 DUP1 CALLDATASIZE SUB DUP2 ADD SWAP1 PUSH2 0x2B9 SWAP2 SWAP1 PUSH2 0x1E27 JUMP JUMPDEST PUSH2 0x11EC JUMP JUMPDEST PUSH1 0x40 MLOAD PUSH2 0x2CE SWAP5 SWAP4 SWAP3 SWAP2 SWAP1 PUSH2 0x1E65 JUMP JUMPDEST PUSH1 0x40 MLOAD DUP1 SWAP2 SUB SWAP1 RETURN JUMPDEST CALLVALUE DUP1 ISZERO PUSH2 0x2E2 JUMPI PUSH0 DUP1 REVERT JUMPDEST POP PUSH2 0x2FD PUSH1 0x4 DUP1 CALLDATASIZE SUB DUP2 ADD SWAP1 PUSH2 0x2F8 SWAP2 SWAP1 PUSH2 0x1EB6 JUMP JUMPDEST PUSH2 0x133E JUMP JUMPDEST STOP JUMPDEST CALLVALUE DUP1 ISZERO PUSH2 0x30A JUMPI PUSH0 DUP1 REVERT JUMPDEST POP PUSH2 0x325 PUSH1 0x4 DUP1 CALLDATASIZE SUB DUP2 ADD SWAP1 PUSH2 0x320 SWAP2 SWAP1 PUSH2 0x1EB6 JUMP JUMPDEST PUSH2 0x142B JUMP JUMPDEST STOP JUMPDEST PUSH0 DUP1 SLOAD SWAP1 PUSH2 0x100 EXP SWAP1 DIV PUSH20 0xFFFFFFFFFFFFFFFFFFFFFFFFFFFFFFFFFFFFFFFF AND PUSH20 0xFFFFFFFFFFFFFFFFFFFFFFFFFFFFFFFFFFFFFFFF AND CALLER PUSH20 0xFFFFFFFFFFFFFFFFFFFFFFFFFFFFFFFFFFFFFFFF AND EQ PUSH2 0x3B4 JUMPI PUSH1 0x40 MLOAD PUSH32 0x8C379A000000000000000000000000000000000000000000000000000000000 DUP2 MSTORE PUSH1 0x4 ADD PUSH2 0x3AB SWAP1 PUSH2 0x1F50 JUMP JUMPDEST PUSH1 0x40 MLOAD DUP1 SWAP2 SUB SWAP1 REVERT JUMPDEST PUSH1 0x3 PUSH0 DUP7 PUSH1 0x1 DUP2 GT ISZERO PUSH2 0x3CA JUMPI PUSH2 0x3C9 PUSH2 0x1F6E JUMP JUMPDEST JUMPDEST PUSH1 0x1 DUP2 GT ISZERO PUSH2 0x3DC JUMPI PUSH2 0x3DB PUSH2 0x1F6E JUMP JUMPDEST JUMPDEST DUP2 MSTORE PUSH1 0x20 ADD SWAP1 DUP2 MSTORE PUSH1 0x20 ADD PUSH0 KECCAK256 PUSH1 0x40 MLOAD DUP1 PUSH1 0x80 ADD PUSH1 0x40 MSTORE DUP1 DUP7 DUP2 MSTORE PUSH1 0x20 ADD DUP6 DUP2 MSTORE PUSH1 0x20 ADD DUP5 DUP2 MSTORE PUSH1 0x20 ADD DUP4 DUP2 MSTORE POP SWAP1 DUP1 PUSH1 0x1 DUP2 SLOAD ADD DUP1 DUP3 SSTORE DUP1 SWAP2 POP POP PUSH1 0x1 SWAP1 SUB SWAP1 PUSH0 MSTORE PUSH1 0x20 PUSH0 KECCAK256 SWAP1 PUSH1 0x4 MUL ADD PUSH0 SWAP1 SWAP2 SWAP1 SWAP2 SWAP1 SWAP2 POP PUSH0 DUP3 ADD MLOAD DUP2 PUSH0 ADD SWAP1 DUP2 PUSH2 0x443 SWAP2 SWAP1 PUSH2 0x2195 JUMP JUMPDEST POP PUSH1 0x20 DUP3 ADD MLOAD DUP2 PUSH1 0x1 ADD SSTORE PUSH1 0x40 DUP3 ADD MLOAD DUP2 PUSH1 0x2 ADD SSTORE PUSH1 0x60 DUP3 ADD MLOAD DUP2 PUSH1 0x3 ADD SWAP1 DUP2 PUSH2 0x46D SWAP2 SWAP1 PUSH2 0x2195 JUMP JUMPDEST POP POP POP POP POP POP POP POP JUMP JUMPDEST PUSH1 0x60 PUSH0 PUSH1 0x2 DUP1 SLOAD SWAP1 POP PUSH8 0xFFFFFFFFFFFFFFFF DUP2 GT ISZERO PUSH2 0x499 JUMPI PUSH2 0x498 PUSH2 0x1599 JUMP JUMPDEST JUMPDEST PUSH1 0x40 MLOAD SWAP1 DUP1 DUP3 MSTORE DUP1 PUSH1 0x20 MUL PUSH1 0x20 ADD DUP3 ADD PUSH1 0x40 MSTORE DUP1 ISZERO PUSH2 0x4D2 JUMPI DUP2 PUSH1 0x20 ADD JUMPDEST PUSH2 0x4BF PUSH2 0x1518 JUMP JUMPDEST DUP2 MSTORE PUSH1 0x20 ADD SWAP1 PUSH1 0x1 SWAP1 SUB SWAP1 DUP2 PUSH2 0x4B7 JUMPI SWAP1 POP JUMPDEST POP SWAP1 POP PUSH0 JUMPDEST PUSH1 0x2 DUP1 SLOAD SWAP1 POP DUP2 LT ISZERO PUSH2 0x62D JUMPI PUSH0 PUSH1 0x2 DUP3 DUP2 SLOAD DUP2 LT PUSH2 0x4F9 JUMPI PUSH2 0x4F8 PUSH2 0x2264 JUMP JUMPDEST JUMPDEST SWAP1 PUSH0 MSTORE PUSH1 0x20 PUSH0 KECCAK256 SWAP1 PUSH1 0x3 MUL ADD SWAP1 POP DUP1 PUSH1 0x40 MLOAD DUP1 PUSH1 0x60 ADD PUSH1 0x40 MSTORE SWAP1 DUP2 PUSH0 DUP3 ADD PUSH0 SWAP1 SLOAD SWAP1 PUSH2 0x100 EXP SWAP1 DIV PUSH20 0xFFFFFFFFFFFFFFFFFFFFFFFFFFFFFFFFFFFFFFFF AND PUSH20 0xFFFFFFFFFFFFFFFFFFFFFFFFFFFFFFFFFFFFFFFF AND PUSH20 0xFFFFFFFFFFFFFFFFFFFFFFFFFFFFFFFFFFFFFFFF AND DUP2 MSTORE PUSH1 0x20 ADD PUSH1 0x1 DUP3 ADD DUP1 SLOAD PUSH2 0x577 SWAP1 PUSH2 0x1FC8 JUMP JUMPDEST DUP1 PUSH1 0x1F ADD PUSH1 0x20 DUP1 SWAP2 DIV MUL PUSH1 0x20 ADD PUSH1 0x40 MLOAD SWAP1 DUP2 ADD PUSH1 0x40 MSTORE DUP1 SWAP3 SWAP2 SWAP1 DUP2 DUP2 MSTORE PUSH1 0x20 ADD DUP3 DUP1 SLOAD PUSH2 0x5A3 SWAP1 PUSH2 0x1FC8 JUMP JUMPDEST DUP1 ISZERO PUSH2 0x5EE JUMPI DUP1 PUSH1 0x1F LT PUSH2 0x5C5 JUMPI PUSH2 0x100 DUP1 DUP4 SLOAD DIV MUL DUP4 MSTORE SWAP2 PUSH1 0x20 ADD SWAP2 PUSH2 0x5EE JUMP JUMPDEST DUP3 ADD SWAP2 SWAP1 PUSH0 MSTORE PUSH1 0x20 PUSH0 KECCAK256 SWAP1 JUMPDEST DUP2 SLOAD DUP2 MSTORE SWAP1 PUSH1 0x1 ADD SWAP1 PUSH1 0x20 ADD DUP1 DUP4 GT PUSH2 0x5D1 JUMPI DUP3 SWAP1 SUB PUSH1 0x1F AND DUP3 ADD SWAP2 JUMPDEST POP POP POP POP POP DUP2 MSTORE PUSH1 0x20 ADD PUSH1 0x2 DUP3 ADD SLOAD DUP2 MSTORE POP POP DUP4 DUP4 DUP2 MLOAD DUP2 LT PUSH2 0x614 JUMPI PUSH2 0x613 PUSH2 0x2264 JUMP JUMPDEST JUMPDEST PUSH1 0x20 MUL PUSH1 0x20 ADD ADD DUP2 SWAP1 MSTORE POP POP DUP1 DUP1 PUSH1 0x1 ADD SWAP2 POP POP PUSH2 0x4D7 JUMP JUMPDEST POP DUP1 SWAP2 POP POP SWAP1 JUMP JUMPDEST PUSH0 DUP1 SLOAD SWAP1 PUSH2 0x100 EXP SWAP1 DIV PUSH20 0xFFFFFFFFFFFFFFFFFFFFFFFFFFFFFFFFFFFFFFFF AND PUSH20 0xFFFFFFFFFFFFFFFFFFFFFFFFFFFFFFFFFFFFFFFF AND CALLER PUSH20 0xFFFFFFFFFFFFFFFFFFFFFFFFFFFFFFFFFFFFFFFF AND EQ PUSH2 0x6C2 JUMPI PUSH1 0x40 MLOAD PUSH32 0x8C379A000000000000000000000000000000000000000000000000000000000 DUP2 MSTORE PUSH1 0x4 ADD PUSH2 0x6B9 SWAP1 PUSH2 0x1F50 JUMP JUMPDEST PUSH1 0x40 MLOAD DUP1 SWAP2 SUB SWAP1 REVERT JUMPDEST PUSH1 0x1 SLOAD DUP2 GT ISZERO PUSH2 0x707 JUMPI PUSH1 0x40 MLOAD PUSH32 0x8C379A000000000000000000000000000000000000000000000000000000000 DUP2 MSTORE PUSH1 0x4 ADD PUSH2 0x6FE SWAP1 PUSH2 0x22DB JUMP JUMPDEST PUSH1 0x40 MLOAD DUP1 SWAP2 SUB SWAP1 REVERT JUMPDEST DUP1 PUSH1 0x1 PUSH0 DUP3 DUP3 SLOAD PUSH2 0x718 SWAP2 SWAP1 PUSH2 0x2326 JUMP JUMPDEST SWAP3 POP POP DUP2 SWAP1 SSTORE POP PUSH0 DUP1 SLOAD SWAP1 PUSH2 0x100 EXP SWAP1 DIV PUSH20 0xFFFFFFFFFFFFFFFFFFFFFFFFFFFFFFFFFFFFFFFF AND PUSH20 0xFFFFFFFFFFFFFFFFFFFFFFFFFFFFFFFFFFFFFFFF AND PUSH2 0x8FC DUP3 SWAP1 DUP2 ISZERO MUL SWAP1 PUSH1 0x40 MLOAD PUSH0 PUSH1 0x40 MLOAD DUP1 DUP4 SUB DUP2 DUP6 DUP9 DUP9 CALL SWAP4 POP POP POP POP ISZERO DUP1 ISZERO PUSH2 0x781 JUMPI RETURNDATASIZE PUSH0 DUP1 RETURNDATACOPY RETURNDATASIZE PUSH0 REVERT JUMPDEST POP POP JUMP JUMPDEST PUSH0 DUP1 SLOAD SWAP1 PUSH2 0x100 EXP SWAP1 DIV PUSH20 0xFFFFFFFFFFFFFFFFFFFFFFFFFFFFFFFFFFFFFFFF AND DUP2 JUMP JUMPDEST PUSH1 0x2 DUP2 DUP2 SLOAD DUP2 LT PUSH2 0x7B7 JUMPI PUSH0 DUP1 REVERT JUMPDEST SWAP1 PUSH0 MSTORE PUSH1 0x20 PUSH0 KECCAK256 SWAP1 PUSH1 0x3 MUL ADD PUSH0 SWAP2 POP SWAP1 POP DUP1 PUSH0 ADD PUSH0 SWAP1 SLOAD SWAP1 PUSH2 0x100 EXP SWAP1 DIV PUSH20 0xFFFFFFFFFFFFFFFFFFFFFFFFFFFFFFFFFFFFFFFF AND SWAP1 DUP1 PUSH1 0x1 ADD DUP1 SLOAD PUSH2 0x7FB SWAP1 PUSH2 0x1FC8 JUMP JUMPDEST DUP1 PUSH1 0x1F ADD PUSH1 0x20 DUP1 SWAP2 DIV MUL PUSH1 0x20 ADD PUSH1 0x40 MLOAD SWAP1 DUP2 ADD PUSH1 0x40 MSTORE DUP1 SWAP3 SWAP2 SWAP1 DUP2 DUP2 MSTORE PUSH1 0x20 ADD DUP3 DUP1 SLOAD PUSH2 0x827 SWAP1 PUSH2 0x1FC8 JUMP JUMPDEST DUP1 ISZERO PUSH2 0x872 JUMPI DUP1 PUSH1 0x1F LT PUSH2 0x849 JUMPI PUSH2 0x100 DUP1 DUP4 SLOAD DIV MUL DUP4 MSTORE SWAP2 PUSH1 0x20 ADD SWAP2 PUSH2 0x872 JUMP JUMPDEST DUP3 ADD SWAP2 SWAP1 PUSH0 MSTORE PUSH1 0x20 PUSH0 KECCAK256 SWAP1 JUMPDEST DUP2 SLOAD DUP2 MSTORE SWAP1 PUSH1 0x1 ADD SWAP1 PUSH1 0x20 ADD DUP1 DUP4 GT PUSH2 0x855 JUMPI DUP3 SWAP1 SUB PUSH1 0x1F AND DUP3 ADD SWAP2 JUMPDEST POP POP POP POP POP SWAP1 DUP1 PUSH1 0x2 ADD SLOAD SWAP1 POP DUP4 JUMP JUMPDEST PUSH0 PUSH1 0x3 PUSH0 DUP5 PUSH1 0x1 DUP2 GT ISZERO PUSH2 0x899 JUMPI PUSH2 0x898 PUSH2 0x1F6E JUMP JUMPDEST JUMPDEST PUSH1 0x1 DUP2 GT ISZERO PUSH2 0x8AB JUMPI PUSH2 0x8AA PUSH2 0x1F6E JUMP JUMPDEST JUMPDEST DUP2 MSTORE PUSH1 0x20 ADD SWAP1 DUP2 MSTORE PUSH1 0x20 ADD PUSH0 KECCAK256 DUP3 DUP2 SLOAD DUP2 LT PUSH2 0x8CA JUMPI PUSH2 0x8C9 PUSH2 0x2264 JUMP JUMPDEST JUMPDEST SWAP1 PUSH0 MSTORE PUSH1 0x20 PUSH0 KECCAK256 SWAP1 PUSH1 0x4 MUL ADD SWAP1 POP PUSH0 DUP2 PUSH1 0x2 ADD SLOAD GT PUSH2 0x91E JUMPI PUSH1 0x40 MLOAD PUSH32 0x8C379A000000000000000000000000000000000000000000000000000000000 DUP2 MSTORE PUSH1 0x4 ADD PUSH2 0x915 SWAP1 PUSH2 0x23A3 JUMP JUMPDEST PUSH1 0x40 MLOAD DUP1 SWAP2 SUB SWAP1 REVERT JUMPDEST CALLVALUE DUP2 PUSH1 0x1 ADD SLOAD EQ PUSH2 0x964 JUMPI PUSH1 0x40 MLOAD PUSH32 0x8C379A000000000000000000000000000000000000000000000000000000000 DUP2 MSTORE PUSH1 0x4 ADD PUSH2 0x95B SWAP1 PUSH2 0x240B JUMP JUMPDEST PUSH1 0x40 MLOAD DUP1 SWAP2 SUB SWAP1 REVERT JUMPDEST PUSH1 0x1 DUP2 PUSH1 0x2 ADD PUSH0 DUP3 DUP3 SLOAD PUSH2 0x978 SWAP2 SWAP1 PUSH2 0x2326 JUMP JUMPDEST SWAP3 POP POP DUP2 SWAP1 SSTORE POP CALLVALUE PUSH1 0x1 PUSH0 DUP3 DUP3 SLOAD PUSH2 0x990 SWAP2 SWAP1 PUSH2 0x2429 JUMP JUMPDEST SWAP3 POP POP DUP2 SWAP1 SSTORE POP PUSH1 0x2 PUSH1 0x40 MLOAD DUP1 PUSH1 0x60 ADD PUSH1 0x40 MSTORE DUP1 CALLER PUSH20 0xFFFFFFFFFFFFFFFFFFFFFFFFFFFFFFFFFFFFFFFF AND DUP2 MSTORE PUSH1 0x20 ADD DUP4 PUSH0 ADD DUP1 SLOAD PUSH2 0x9CE SWAP1 PUSH2 0x1FC8 JUMP JUMPDEST DUP1 PUSH1 0x1F ADD PUSH1 0x20 DUP1 SWAP2 DIV MUL PUSH1 0x20 ADD PUSH1 0x40 MLOAD SWAP1 DUP2 ADD PUSH1 0x40 MSTORE DUP1 SWAP3 SWAP2 SWAP1 DUP2 DUP2 MSTORE PUSH1 0x20 ADD DUP3 DUP1 SLOAD PUSH2 0x9FA SWAP1 PUSH2 0x1FC8 JUMP JUMPDEST DUP1 ISZERO PUSH2 0xA45 JUMPI DUP1 PUSH1 0x1F LT PUSH2 0xA1C JUMPI PUSH2 0x100 DUP1 DUP4 SLOAD DIV MUL DUP4 MSTORE SWAP2 PUSH1 0x20 ADD SWAP2 PUSH2 0xA45 JUMP JUMPDEST DUP3 ADD SWAP2 SWAP1 PUSH0 MSTORE PUSH1 0x20 PUSH0 KECCAK256 SWAP1 JUMPDEST DUP2 SLOAD DUP2 MSTORE SWAP1 PUSH1 0x1 ADD SWAP1 PUSH1 0x20 ADD DUP1 DUP4 GT PUSH2 0xA28 JUMPI DUP3 SWAP1 SUB PUSH1 0x1F AND DUP3 ADD SWAP2 JUMPDEST POP POP POP POP POP DUP2 MSTORE PUSH1 0x20 ADD DUP4 PUSH1 0x1 ADD SLOAD DUP2 MSTORE POP SWAP1 DUP1 PUSH1 0x1 DUP2 SLOAD ADD DUP1 DUP3 SSTORE DUP1 SWAP2 POP POP PUSH1 0x1 SWAP1 SUB SWAP1 PUSH0 MSTORE PUSH1 0x20 PUSH0 KECCAK256 SWAP1 PUSH1 0x3 MUL ADD PUSH0 SWAP1 SWAP2 SWAP1 SWAP2 SWAP1 SWAP2 POP PUSH0 DUP3 ADD MLOAD DUP2 PUSH0 ADD PUSH0 PUSH2 0x100 EXP DUP2 SLOAD DUP2 PUSH20 0xFFFFFFFFFFFFFFFFFFFFFFFFFFFFFFFFFFFFFFFF MUL NOT AND SWAP1 DUP4 PUSH20 0xFFFFFFFFFFFFFFFFFFFFFFFFFFFFFFFFFFFFFFFF AND MUL OR SWAP1 SSTORE POP PUSH1 0x20 DUP3 ADD MLOAD DUP2 PUSH1 0x1 ADD SWAP1 DUP2 PUSH2 0xAD6 SWAP2 SWAP1 PUSH2 0x2195 JUMP JUMPDEST POP PUSH1 0x40 DUP3 ADD MLOAD DUP2 PUSH1 0x2 ADD SSTORE POP POP PUSH1 0x4 PUSH0 CALLER PUSH20 0xFFFFFFFFFFFFFFFFFFFFFFFFFFFFFFFFFFFFFFFF AND PUSH20 0xFFFFFFFFFFFFFFFFFFFFFFFFFFFFFFFFFFFFFFFF AND DUP2 MSTORE PUSH1 0x20 ADD SWAP1 DUP2 MSTORE PUSH1 0x20 ADD PUSH0 KECCAK256 PUSH1 0x40 MLOAD DUP1 PUSH1 0x80 ADD PUSH1 0x40 MSTORE DUP1 DUP4 PUSH0 ADD DUP1 SLOAD PUSH2 0xB39 SWAP1 PUSH2 0x1FC8 JUMP JUMPDEST DUP1 PUSH1 0x1F ADD PUSH1 0x20 DUP1 SWAP2 DIV MUL PUSH1 0x20 ADD PUSH1 0x40 MLOAD SWAP1 DUP2 ADD PUSH1 0x40 MSTORE DUP1 SWAP3 SWAP2 SWAP1 DUP2 DUP2 MSTORE PUSH1 0x20 ADD DUP3 DUP1 SLOAD PUSH2 0xB65 SWAP1 PUSH2 0x1FC8 JUMP JUMPDEST DUP1 ISZERO PUSH2 0xBB0 JUMPI DUP1 PUSH1 0x1F LT PUSH2 0xB87 JUMPI PUSH2 0x100 DUP1 DUP4 SLOAD DIV MUL DUP4 MSTORE SWAP2 PUSH1 0x20 ADD SWAP2 PUSH2 0xBB0 JUMP JUMPDEST DUP3 ADD SWAP2 SWAP1 PUSH0 MSTORE PUSH1 0x20 PUSH0 KECCAK256 SWAP1 JUMPDEST DUP2 SLOAD DUP2 MSTORE SWAP1 PUSH1 0x1 ADD SWAP1 PUSH1 0x20 ADD DUP1 DUP4 GT PUSH2 0xB93 JUMPI DUP3 SWAP1 SUB PUSH1 0x1F AND DUP3 ADD SWAP2 JUMPDEST POP POP POP POP POP DUP2 MSTORE PUSH1 0x20 ADD DUP4 PUSH1 0x1 ADD SLOAD DUP2 MSTORE PUSH1 0x20 ADD DUP4 PUSH1 0x3 ADD DUP1 SLOAD PUSH2 0xBD3 SWAP1 PUSH2 0x1FC8 JUMP JUMPDEST DUP1 PUSH1 0x1F ADD PUSH1 0x20 DUP1 SWAP2 DIV MUL PUSH1 0x20 ADD PUSH1 0x40 MLOAD SWAP1 DUP2 ADD PUSH1 0x40 MSTORE DUP1 SWAP3 SWAP2 SWAP1 DUP2 DUP2 MSTORE PUSH1 0x20 ADD DUP3 DUP1 SLOAD PUSH2 0xBFF SWAP1 PUSH2 0x1FC8 JUMP JUMPDEST DUP1 ISZERO PUSH2 0xC4A JUMPI DUP1 PUSH1 0x1F LT PUSH2 0xC21 JUMPI PUSH2 0x100 DUP1 DUP4 SLOAD DIV MUL DUP4 MSTORE SWAP2 PUSH1 0x20 ADD SWAP2 PUSH2 0xC4A JUMP JUMPDEST DUP3 ADD SWAP2 SWAP1 PUSH0 MSTORE PUSH1 0x20 PUSH0 KECCAK256 SWAP1 JUMPDEST DUP2 SLOAD DUP2 MSTORE SWAP1 PUSH1 0x1 ADD SWAP1 PUSH1 0x20 ADD DUP1 DUP4 GT PUSH2 0xC2D JUMPI DUP3 SWAP1 SUB PUSH1 0x1F AND DUP3 ADD SWAP2 JUMPDEST POP POP POP POP POP DUP2 MSTORE PUSH1 0x20 ADD TIMESTAMP DUP2 MSTORE POP SWAP1 DUP1 PUSH1 0x1 DUP2 SLOAD ADD DUP1 DUP3 SSTORE DUP1 SWAP2 POP POP PUSH1 0x1 SWAP1 SUB SWAP1 PUSH0 MSTORE PUSH1 0x20 PUSH0 KECCAK256 SWAP1 PUSH1 0x4 MUL ADD PUSH0 SWAP1 SWAP2 SWAP1 SWAP2 SWAP1 SWAP2 POP PUSH0 DUP3 ADD MLOAD DUP2 PUSH0 ADD SWAP1 DUP2 PUSH2 0xC91 SWAP2 SWAP1 PUSH2 0x2195 JUMP JUMPDEST POP PUSH1 0x20 DUP3 ADD MLOAD DUP2 PUSH1 0x1 ADD SSTORE PUSH1 0x40 DUP3 ADD MLOAD DUP2 PUSH1 0x2 ADD SWAP1 DUP2 PUSH2 0xCB1 SWAP2 SWAP1 PUSH2 0x2195 JUMP JUMPDEST POP PUSH1 0x60 DUP3 ADD MLOAD DUP2 PUSH1 0x3 ADD SSTORE POP POP PUSH32 0x2684DCC6EB87E1E9139A0475E85E88BE318D84EE8535F407CD8FE2A5FF187FDE CALLER DUP3 PUSH0 ADD DUP4 PUSH1 0x1 ADD SLOAD PUSH1 0x40 MLOAD PUSH2 0xCF7 SWAP4 SWAP3 SWAP2 SWAP1 PUSH2 0x24DD JUMP JUMPDEST PUSH1 0x40 MLOAD DUP1 SWAP2 SUB SWAP1 LOG1 POP POP POP JUMP JUMPDEST PUSH1 0x60 PUSH1 0x4 PUSH0 DUP4 PUSH20 0xFFFFFFFFFFFFFFFFFFFFFFFFFFFFFFFFFFFFFFFF AND PUSH20 0xFFFFFFFFFFFFFFFFFFFFFFFFFFFFFFFFFFFFFFFF AND DUP2 MSTORE PUSH1 0x20 ADD SWAP1 DUP2 MSTORE PUSH1 0x20 ADD PUSH0 KECCAK256 DUP1 SLOAD DUP1 PUSH1 0x20 MUL PUSH1 0x20 ADD PUSH1 0x40 MLOAD SWAP1 DUP2 ADD PUSH1 0x40 MSTORE DUP1 SWAP3 SWAP2 SWAP1 DUP2 DUP2 MSTORE PUSH1 0x20 ADD PUSH0 SWAP1 JUMPDEST DUP3 DUP3 LT ISZERO PUSH2 0xEC5 JUMPI DUP4 DUP3 SWAP1 PUSH0 MSTORE PUSH1 0x20 PUSH0 KECCAK256 SWAP1 PUSH1 0x4 MUL ADD PUSH1 0x40 MLOAD DUP1 PUSH1 0x80 ADD PUSH1 0x40 MSTORE SWAP1 DUP2 PUSH0 DUP3 ADD DUP1 SLOAD PUSH2 0xD92 SWAP1 PUSH2 0x1FC8 JUMP JUMPDEST DUP1 PUSH1 0x1F ADD PUSH1 0x20 DUP1 SWAP2 DIV MUL PUSH1 0x20 ADD PUSH1 0x40 MLOAD SWAP1 DUP2 ADD PUSH1 0x40 MSTORE DUP1 SWAP3 SWAP2 SWAP1 DUP2 DUP2 MSTORE PUSH1 0x20 ADD DUP3 DUP1 SLOAD PUSH2 0xDBE SWAP1 PUSH2 0x1FC8 JUMP JUMPDEST DUP1 ISZERO PUSH2 0xE09 JUMPI DUP1 PUSH1 0x1F LT PUSH2 0xDE0 JUMPI PUSH2 0x100 DUP1 DUP4 SLOAD DIV MUL DUP4 MSTORE SWAP2 PUSH1 0x20 ADD SWAP2 PUSH2 0xE09 JUMP JUMPDEST DUP3 ADD SWAP2 SWAP1 PUSH0 MSTORE PUSH1 0x20 PUSH0 KECCAK256 SWAP1 JUMPDEST DUP2 SLOAD DUP2 MSTORE SWAP1 PUSH1 0x1 ADD SWAP1 PUSH1 0x20 ADD DUP1 DUP4 GT PUSH2 0xDEC JUMPI DUP3 SWAP1 SUB PUSH1 0x1F AND DUP3 ADD SWAP2 JUMPDEST POP POP POP POP POP DUP2 MSTORE PUSH1 0x20 ADD PUSH1 0x1 DUP3 ADD SLOAD DUP2 MSTORE PUSH1 0x20 ADD PUSH1 0x2 DUP3 ADD DUP1 SLOAD PUSH2 0xE2C SWAP1 PUSH2 0x1FC8 JUMP JUMPDEST DUP1 PUSH1 0x1F ADD PUSH1 0x20 DUP1 SWAP2 DIV MUL PUSH1 0x20 ADD PUSH1 0x40 MLOAD SWAP1 DUP2 ADD PUSH1 0x40 MSTORE DUP1 SWAP3 SWAP2 SWAP1 DUP2 DUP2 MSTORE PUSH1 0x20 ADD DUP3 DUP1 SLOAD PUSH2 0xE58 SWAP1 PUSH2 0x1FC8 JUMP JUMPDEST DUP1 ISZERO PUSH2 0xEA3 JUMPI DUP1 PUSH1 0x1F LT PUSH2 0xE7A JUMPI PUSH2 0x100 DUP1 DUP4 SLOAD DIV MUL DUP4 MSTORE SWAP2 PUSH1 0x20 ADD SWAP2 PUSH2 0xEA3 JUMP JUMPDEST DUP3 ADD SWAP2 SWAP1 PUSH0 MSTORE PUSH1 0x20 PUSH0 KECCAK256 SWAP1 JUMPDEST DUP2 SLOAD DUP2 MSTORE SWAP1 PUSH1 0x1 ADD SWAP1 PUSH1 0x20 ADD DUP1 DUP4 GT PUSH2 0xE86 JUMPI DUP3 SWAP1 SUB PUSH1 0x1F AND DUP3 ADD SWAP2 JUMPDEST POP POP POP POP POP DUP2 MSTORE PUSH1 0x20 ADD PUSH1 0x3 DUP3 ADD SLOAD DUP2 MSTORE POP POP DUP2 MSTORE PUSH1 0x20 ADD SWAP1 PUSH1 0x1 ADD SWAP1 PUSH2 0xD62 JUMP JUMPDEST POP POP POP POP SWAP1 POP SWAP2 SWAP1 POP JUMP JUMPDEST PUSH1 0x60 PUSH1 0x3 PUSH0 DUP4 PUSH1 0x1 DUP2 GT ISZERO PUSH2 0xEE8 JUMPI PUSH2 0xEE7 PUSH2 0x1F6E JUMP JUMPDEST JUMPDEST PUSH1 0x1 DUP2 GT ISZERO PUSH2 0xEFA JUMPI PUSH2 0xEF9 PUSH2 0x1F6E JUMP JUMPDEST JUMPDEST DUP2 MSTORE PUSH1 0x20 ADD SWAP1 DUP2 MSTORE PUSH1 0x20 ADD PUSH0 KECCAK256 DUP1 SLOAD DUP1 PUSH1 0x20 MUL PUSH1 0x20 ADD PUSH1 0x40 MLOAD SWAP1 DUP2 ADD PUSH1 0x40 MSTORE DUP1 SWAP3 SWAP2 SWAP1 DUP2 DUP2 MSTORE PUSH1 0x20 ADD PUSH0 SWAP1 JUMPDEST DUP3 DUP3 LT ISZERO PUSH2 0x1089 JUMPI DUP4 DUP3 SWAP1 PUSH0 MSTORE PUSH1 0x20 PUSH0 KECCAK256 SWAP1 PUSH1 0x4 MUL ADD PUSH1 0x40 MLOAD DUP1 PUSH1 0x80 ADD PUSH1 0x40 MSTORE SWAP1 DUP2 PUSH0 DUP3 ADD DUP1 SLOAD PUSH2 0xF56 SWAP1 PUSH2 0x1FC8 JUMP JUMPDEST DUP1 PUSH1 0x1F ADD PUSH1 0x20 DUP1 SWAP2 DIV MUL PUSH1 0x20 ADD PUSH1 0x40 MLOAD SWAP1 DUP2 ADD PUSH1 0x40 MSTORE DUP1 SWAP3 SWAP2 SWAP1 DUP2 DUP2 MSTORE PUSH1 0x20 ADD DUP3 DUP1 SLOAD PUSH2 0xF82 SWAP1 PUSH2 0x1FC8 JUMP JUMPDEST DUP1 ISZERO PUSH2 0xFCD JUMPI DUP1 PUSH1 0x1F LT PUSH2 0xFA4 JUMPI PUSH2 0x100 DUP1 DUP4 SLOAD DIV MUL DUP4 MSTORE SWAP2 PUSH1 0x20 ADD SWAP2 PUSH2 0xFCD JUMP JUMPDEST DUP3 ADD SWAP2 SWAP1 PUSH0 MSTORE PUSH1 0x20 PUSH0 KECCAK256 SWAP1 JUMPDEST DUP2 SLOAD DUP2 MSTORE SWAP1 PUSH1 0x1 ADD SWAP1 PUSH1 0x20 ADD DUP1 DUP4 GT PUSH2 0xFB0 JUMPI DUP3 SWAP1 SUB PUSH1 0x1F AND DUP3 ADD SWAP2 JUMPDEST POP POP POP POP POP DUP2 MSTORE PUSH1 0x20 ADD PUSH1 0x1 DUP3 ADD SLOAD DUP2 MSTORE PUSH1 0x20 ADD PUSH1 0x2 DUP3 ADD SLOAD DUP2 MSTORE PUSH1 0x20 ADD PUSH1 0x3 DUP3 ADD DUP1 SLOAD PUSH2 0xFFA SWAP1 PUSH2 0x1FC8 JUMP JUMPDEST DUP1 PUSH1 0x1F ADD PUSH1 0x20 DUP1 SWAP2 DIV MUL PUSH1 0x20 ADD PUSH1 0x40 MLOAD SWAP1 DUP2 ADD PUSH1 0x40 MSTORE DUP1 SWAP3 SWAP2 SWAP1 DUP2 DUP2 MSTORE PUSH1 0x20 ADD DUP3 DUP1 SLOAD PUSH2 0x1026 SWAP1 PUSH2 0x1FC8 JUMP JUMPDEST DUP1 ISZERO PUSH2 0x1071 JUMPI DUP1 PUSH1 0x1F LT PUSH2 0x1048 JUMPI PUSH2 0x100 DUP1 DUP4 SLOAD DIV MUL DUP4 MSTORE SWAP2 PUSH1 0x20 ADD SWAP2 PUSH2 0x1071 JUMP JUMPDEST DUP3 ADD SWAP2 SWAP1 PUSH0 MSTORE PUSH1 0x20 PUSH0 KECCAK256 SWAP1 JUMPDEST DUP2 SLOAD DUP2 MSTORE SWAP1 PUSH1 0x1 ADD SWAP1 PUSH1 0x20 ADD DUP1 DUP4 GT PUSH2 0x1054 JUMPI DUP3 SWAP1 SUB PUSH1 0x1F AND DUP3 ADD SWAP2 JUMPDEST POP POP POP POP POP DUP2 MSTORE POP POP DUP2 MSTORE PUSH1 0x20 ADD SWAP1 PUSH1 0x1 ADD SWAP1 PUSH2 0xF26 JUMP JUMPDEST POP POP POP POP SWAP1 POP SWAP2 SWAP1 POP JUMP JUMPDEST PUSH1 0x1 SLOAD DUP2 JUMP JUMPDEST PUSH1 0x3 PUSH1 0x20 MSTORE DUP2 PUSH0 MSTORE PUSH1 0x40 PUSH0 KECCAK256 DUP2 DUP2 SLOAD DUP2 LT PUSH2 0x10B3 JUMPI PUSH0 DUP1 REVERT JUMPDEST SWAP1 PUSH0 MSTORE PUSH1 0x20 PUSH0 KECCAK256 SWAP1 PUSH1 0x4 MUL ADD PUSH0 SWAP2 POP SWAP2 POP POP DUP1 PUSH0 ADD DUP1 SLOAD PUSH2 0x10D3 SWAP1 PUSH2 0x1FC8 JUMP JUMPDEST DUP1 PUSH1 0x1F ADD PUSH1 0x20 DUP1 SWAP2 DIV MUL PUSH1 0x20 ADD PUSH1 0x40 MLOAD SWAP1 DUP2 ADD PUSH1 0x40 MSTORE DUP1 SWAP3 SWAP2 SWAP1 DUP2 DUP2 MSTORE PUSH1 0x20 ADD DUP3 DUP1 SLOAD PUSH2 0x10FF SWAP1 PUSH2 0x1FC8 JUMP JUMPDEST DUP1 ISZERO PUSH2 0x114A JUMPI DUP1 PUSH1 0x1F LT PUSH2 0x1121 JUMPI PUSH2 0x100 DUP1 DUP4 SLOAD DIV MUL DUP4 MSTORE SWAP2 PUSH1 0x20 ADD SWAP2 PUSH2 0x114A JUMP JUMPDEST DUP3 ADD SWAP2 SWAP1 PUSH0 MSTORE PUSH1 0x20 PUSH0 KECCAK256 SWAP1 JUMPDEST DUP2 SLOAD DUP2 MSTORE SWAP1 PUSH1 0x1 ADD SWAP1 PUSH1 0x20 ADD DUP1 DUP4 GT PUSH2 0x112D JUMPI DUP3 SWAP1 SUB PUSH1 0x1F AND DUP3 ADD SWAP2 JUMPDEST POP POP POP POP POP SWAP1 DUP1 PUSH1 0x1 ADD SLOAD SWAP1 DUP1 PUSH1 0x2 ADD SLOAD SWAP1 DUP1 PUSH1 0x3 ADD DUP1 SLOAD PUSH2 0x116B SWAP1 PUSH2 0x1FC8 JUMP JUMPDEST DUP1 PUSH1 0x1F ADD PUSH1 0x20 DUP1 SWAP2 DIV MUL PUSH1 0x20 ADD PUSH1 0x40 MLOAD SWAP1 DUP2 ADD PUSH1 0x40 MSTORE DUP1 SWAP3 SWAP2 SWAP1 DUP2 DUP2 MSTORE PUSH1 0x20 ADD DUP3 DUP1 SLOAD PUSH2 0x1197 SWAP1 PUSH2 0x1FC8 JUMP JUMPDEST DUP1 ISZERO PUSH2 0x11E2 JUMPI DUP1 PUSH1 0x1F LT PUSH2 0x11B9 JUMPI PUSH2 0x100 DUP1 DUP4 SLOAD DIV MUL DUP4 MSTORE SWAP2 PUSH1 0x20 ADD SWAP2 PUSH2 0x11E2 JUMP JUMPDEST DUP3 ADD SWAP2 SWAP1 PUSH0 MSTORE PUSH1 0x20 PUSH0 KECCAK256 SWAP1 JUMPDEST DUP2 SLOAD DUP2 MSTORE SWAP1 PUSH1 0x1 ADD SWAP1 PUSH1 0x20 ADD DUP1 DUP4 GT PUSH2 0x11C5 JUMPI DUP3 SWAP1 SUB PUSH1 0x1F AND DUP3 ADD SWAP2 JUMPDEST POP POP POP POP POP SWAP1 POP DUP5 JUMP JUMPDEST PUSH1 0x4 PUSH1 0x20 MSTORE DUP2 PUSH0 MSTORE PUSH1 0x40 PUSH0 KECCAK256 DUP2 DUP2 SLOAD DUP2 LT PUSH2 0x1205 JUMPI PUSH0 DUP1 REVERT JUMPDEST SWAP1 PUSH0 MSTORE PUSH1 0x20 PUSH0 KECCAK256 SWAP1 PUSH1 0x4 MUL ADD PUSH0 SWAP2 POP SWAP2 POP POP DUP1 PUSH0 ADD DUP1 SLOAD PUSH2 0x1225 SWAP1 PUSH2 0x1FC8 JUMP JUMPDEST DUP1 PUSH1 0x1F ADD PUSH1 0x20 DUP1 SWAP2 DIV MUL PUSH1 0x20 ADD PUSH1 0x40 MLOAD SWAP1 DUP2 ADD PUSH1 0x40 MSTORE DUP1 SWAP3 SWAP2 SWAP1 DUP2 DUP2 MSTORE PUSH1 0x20 ADD DUP3 DUP1 SLOAD PUSH2 0x1251 SWAP1 PUSH2 0x1FC8 JUMP JUMPDEST DUP1 ISZERO PUSH2 0x129C JUMPI DUP1 PUSH1 0x1F LT PUSH2 0x1273 JUMPI PUSH2 0x100 DUP1 DUP4 SLOAD DIV MUL DUP4 MSTORE SWAP2 PUSH1 0x20 ADD SWAP2 PUSH2 0x129C JUMP JUMPDEST DUP3 ADD SWAP2 SWAP1 PUSH0 MSTORE PUSH1 0x20 PUSH0 KECCAK256 SWAP1 JUMPDEST DUP2 SLOAD DUP2 MSTORE SWAP1 PUSH1 0x1 ADD SWAP1 PUSH1 0x20 ADD DUP1 DUP4 GT PUSH2 0x127F JUMPI DUP3 SWAP1 SUB PUSH1 0x1F AND DUP3 ADD SWAP2 JUMPDEST POP POP POP POP POP SWAP1 DUP1 PUSH1 0x1 ADD SLOAD SWAP1 DUP1 PUSH1 0x2 ADD DUP1 SLOAD PUSH2 0x12B7 SWAP1 PUSH2 0x1FC8 JUMP JUMPDEST DUP1 PUSH1 0x1F ADD PUSH1 0x20 DUP1 SWAP2 DIV MUL PUSH1 0x20 ADD PUSH1 0x40 MLOAD SWAP1 DUP2 ADD PUSH1 0x40 MSTORE DUP1 SWAP3 SWAP2 SWAP1 DUP2 DUP2 MSTORE PUSH1 0x20 ADD DUP3 DUP1 SLOAD PUSH2 0x12E3 SWAP1 PUSH2 0x1FC8 JUMP JUMPDEST DUP1 ISZERO PUSH2 0x132E JUMPI DUP1 PUSH1 0x1F LT PUSH2 0x1305 JUMPI PUSH2 0x100 DUP1 DUP4 SLOAD DIV MUL DUP4 MSTORE SWAP2 PUSH1 0x20 ADD SWAP2 PUSH2 0x132E JUMP JUMPDEST DUP3 ADD SWAP2 SWAP1 PUSH0 MSTORE PUSH1 0x20 PUSH0 KECCAK256 SWAP1 JUMPDEST DUP2 SLOAD DUP2 MSTORE SWAP1 PUSH1 0x1 ADD SWAP1 PUSH1 0x20 ADD DUP1 DUP4 GT PUSH2 0x1311 JUMPI DUP3 SWAP1 SUB PUSH1 0x1F AND DUP3 ADD SWAP2 JUMPDEST POP POP POP POP POP SWAP1 DUP1 PUSH1 0x3 ADD SLOAD SWAP1 POP DUP5 JUMP JUMPDEST PUSH0 DUP1 SLOAD SWAP1 PUSH2 0x100 EXP SWAP1 DIV PUSH20 0xFFFFFFFFFFFFFFFFFFFFFFFFFFFFFFFFFFFFFFFF AND PUSH20 0xFFFFFFFFFFFFFFFFFFFFFFFFFFFFFFFFFFFFFFFF AND CALLER PUSH20 0xFFFFFFFFFFFFFFFFFFFFFFFFFFFFFFFFFFFFFFFF AND EQ PUSH2 0x13CB JUMPI PUSH1 0x40 MLOAD PUSH32 0x8C379A000000000000000000000000000000000000000000000000000000000 DUP2 MSTORE PUSH1 0x4 ADD PUSH2 0x13C2 SWAP1 PUSH2 0x1F50 JUMP JUMPDEST PUSH1 0x40 MLOAD DUP1 SWAP2 SUB SWAP1 REVERT JUMPDEST DUP1 PUSH1 0x3 PUSH0 DUP6 PUSH1 0x1 DUP2 GT ISZERO PUSH2 0x13E2 JUMPI PUSH2 0x13E1 PUSH2 0x1F6E JUMP JUMPDEST JUMPDEST PUSH1 0x1 DUP2 GT ISZERO PUSH2 0x13F4 JUMPI PUSH2 0x13F3 PUSH2 0x1F6E JUMP JUMPDEST JUMPDEST DUP2 MSTORE PUSH1 0x20 ADD SWAP1 DUP2 MSTORE PUSH1 0x20 ADD PUSH0 KECCAK256 DUP4 DUP2 SLOAD DUP2 LT PUSH2 0x1413 JUMPI PUSH2 0x1412 PUSH2 0x2264 JUMP JUMPDEST JUMPDEST SWAP1 PUSH0 MSTORE PUSH1 0x20 PUSH0 KECCAK256 SWAP1 PUSH1 0x4 MUL ADD PUSH1 0x1 ADD DUP2 SWAP1 SSTORE POP POP POP POP JUMP JUMPDEST PUSH0 DUP1 SLOAD SWAP1 PUSH2 0x100 EXP SWAP1 DIV PUSH20 0xFFFFFFFFFFFFFFFFFFFFFFFFFFFFFFFFFFFFFFFF AND PUSH20 0xFFFFFFFFFFFFFFFFFFFFFFFFFFFFFFFFFFFFFFFF AND CALLER PUSH20 0xFFFFFFFFFFFFFFFFFFFFFFFFFFFFFFFFFFFFFFFF AND EQ PUSH2 0x14B8 JUMPI PUSH1 0x40 MLOAD PUSH32 0x8C379A000000000000000000000000000000000000000000000000000000000 DUP2 MSTORE PUSH1 0x4 ADD PUSH2 0x14AF SWAP1 PUSH2 0x1F50 JUMP JUMPDEST PUSH1 0x40 MLOAD DUP1 SWAP2 SUB SWAP1 REVERT JUMPDEST DUP1 PUSH1 0x3 PUSH0 DUP6 PUSH1 0x1 DUP2 GT ISZERO PUSH2 0x14CF JUMPI PUSH2 0x14CE PUSH2 0x1F6E JUMP JUMPDEST JUMPDEST PUSH1 0x1 DUP2 GT ISZERO PUSH2 0x14E1 JUMPI PUSH2 0x14E0 PUSH2 0x1F6E JUMP JUMPDEST JUMPDEST DUP2 MSTORE PUSH1 0x20 ADD SWAP1 DUP2 MSTORE PUSH1 0x20 ADD PUSH0 KECCAK256 DUP4 DUP2 SLOAD DUP2 LT PUSH2 0x1500 JUMPI PUSH2 0x14FF PUSH2 0x2264 JUMP JUMPDEST JUMPDEST SWAP1 PUSH0 MSTORE PUSH1 0x20 PUSH0 KECCAK256 SWAP1 PUSH1 0x4 MUL ADD PUSH1 0x2 ADD DUP2 SWAP1 SSTORE POP POP POP POP JUMP JUMPDEST PUSH1 0x40 MLOAD DUP1 PUSH1 0x60 ADD PUSH1 0x40 MSTORE DUP1 PUSH0 PUSH20 0xFFFFFFFFFFFFFFFFFFFFFFFFFFFFFFFFFFFFFFFF AND DUP2 MSTORE PUSH1 0x20 ADD PUSH1 0x60 DUP2 MSTORE PUSH1 0x20 ADD PUSH0 DUP2 MSTORE POP SWAP1 JUMP JUMPDEST PUSH0 PUSH1 0x40 MLOAD SWAP1 POP SWAP1 JUMP JUMPDEST PUSH0 DUP1 REVERT JUMPDEST PUSH0 DUP1 REVERT JUMPDEST PUSH1 0x2 DUP2 LT PUSH2 0x156A JUMPI PUSH0 DUP1 REVERT JUMPDEST POP JUMP JUMPDEST PUSH0 DUP2 CALLDATALOAD SWAP1 POP PUSH2 0x157B DUP2 PUSH2 0x155E JUMP JUMPDEST SWAP3 SWAP2 POP POP JUMP JUMPDEST PUSH0 DUP1 REVERT JUMPDEST PUSH0 DUP1 REVERT JUMPDEST PUSH0 PUSH1 0x1F NOT PUSH1 0x1F DUP4 ADD AND SWAP1 POP SWAP2 SWAP1 POP JUMP JUMPDEST PUSH32 0x4E487B7100000000000000000000000000000000000000000000000000000000 PUSH0 MSTORE PUSH1 0x41 PUSH1 0x4 MSTORE PUSH1 0x24 PUSH0 REVERT JUMPDEST PUSH2 0x15CF DUP3 PUSH2 0x1589 JUMP JUMPDEST DUP2 ADD DUP2 DUP2 LT PUSH8 0xFFFFFFFFFFFFFFFF DUP3 GT OR ISZERO PUSH2 0x15EE JUMPI PUSH2 0x15ED PUSH2 0x1599 JUMP JUMPDEST JUMPDEST DUP1 PUSH1 0x40 MSTORE POP POP POP JUMP JUMPDEST PUSH0 PUSH2 0x1600 PUSH2 0x154D JUMP JUMPDEST SWAP1 POP PUSH2 0x160C DUP3 DUP3 PUSH2 0x15C6 JUMP JUMPDEST SWAP2 SWAP1 POP JUMP JUMPDEST PUSH0 PUSH8 0xFFFFFFFFFFFFFFFF DUP3 GT ISZERO PUSH2 0x162B JUMPI PUSH2 0x162A PUSH2 0x1599 JUMP JUMPDEST JUMPDEST PUSH2 0x1634 DUP3 PUSH2 0x1589 JUMP JUMPDEST SWAP1 POP PUSH1 0x20 DUP2 ADD SWAP1 POP SWAP2 SWAP1 POP JUMP JUMPDEST DUP3 DUP2 DUP4 CALLDATACOPY PUSH0 DUP4 DUP4 ADD MSTORE POP POP POP JUMP JUMPDEST PUSH0 PUSH2 0x1661 PUSH2 0x165C DUP5 PUSH2 0x1611 JUMP JUMPDEST PUSH2 0x15F7 JUMP JUMPDEST SWAP1 POP DUP3 DUP2 MSTORE PUSH1 0x20 DUP2 ADD DUP5 DUP5 DUP5 ADD GT ISZERO PUSH2 0x167D JUMPI PUSH2 0x167C PUSH2 0x1585 JUMP JUMPDEST JUMPDEST PUSH2 0x1688 DUP5 DUP3 DUP6 PUSH2 0x1641 JUMP JUMPDEST POP SWAP4 SWAP3 POP POP POP JUMP JUMPDEST PUSH0 DUP3 PUSH1 0x1F DUP4 ADD SLT PUSH2 0x16A4 JUMPI PUSH2 0x16A3 PUSH2 0x1581 JUMP JUMPDEST JUMPDEST DUP2 CALLDATALOAD PUSH2 0x16B4 DUP5 DUP3 PUSH1 0x20 DUP7 ADD PUSH2 0x164F JUMP JUMPDEST SWAP2 POP POP SWAP3 SWAP2 POP POP JUMP JUMPDEST PUSH0 DUP2 SWAP1 POP SWAP2 SWAP1 POP JUMP JUMPDEST PUSH2 0x16CF DUP2 PUSH2 0x16BD JUMP JUMPDEST DUP2 EQ PUSH2 0x16D9 JUMPI PUSH0 DUP1 REVERT JUMPDEST POP JUMP JUMPDEST PUSH0 DUP2 CALLDATALOAD SWAP1 POP PUSH2 0x16EA DUP2 PUSH2 0x16C6 JUMP JUMPDEST SWAP3 SWAP2 POP POP JUMP JUMPDEST PUSH0 DUP1 PUSH0 DUP1 PUSH0 PUSH1 0xA0 DUP7 DUP9 SUB SLT ISZERO PUSH2 0x1709 JUMPI PUSH2 0x1708 PUSH2 0x1556 JUMP JUMPDEST JUMPDEST PUSH0 PUSH2 0x1716 DUP9 DUP3 DUP10 ADD PUSH2 0x156D JUMP JUMPDEST SWAP6 POP POP PUSH1 0x20 DUP7 ADD CALLDATALOAD PUSH8 0xFFFFFFFFFFFFFFFF DUP2 GT ISZERO PUSH2 0x1737 JUMPI PUSH2 0x1736 PUSH2 0x155A JUMP JUMPDEST JUMPDEST PUSH2 0x1743 DUP9 DUP3 DUP10 ADD PUSH2 0x1690 JUMP JUMPDEST SWAP5 POP POP PUSH1 0x40 PUSH2 0x1754 DUP9 DUP3 DUP10 ADD PUSH2 0x16DC JUMP JUMPDEST SWAP4 POP POP PUSH1 0x60 PUSH2 0x1765 DUP9 DUP3 DUP10 ADD PUSH2 0x16DC JUMP JUMPDEST SWAP3 POP POP PUSH1 0x80 DUP7 ADD CALLDATALOAD PUSH8 0xFFFFFFFFFFFFFFFF DUP2 GT ISZERO PUSH2 0x1786 JUMPI PUSH2 0x1785 PUSH2 0x155A JUMP JUMPDEST JUMPDEST PUSH2 0x1792 DUP9 DUP3 DUP10 ADD PUSH2 0x1690 JUMP JUMPDEST SWAP2 POP POP SWAP3 SWAP6 POP SWAP3 SWAP6 SWAP1 SWAP4 POP JUMP JUMPDEST PUSH0 DUP2 MLOAD SWAP1 POP SWAP2 SWAP1 POP JUMP JUMPDEST PUSH0 DUP3 DUP3 MSTORE PUSH1 0x20 DUP3 ADD SWAP1 POP SWAP3 SWAP2 POP POP JUMP JUMPDEST PUSH0 DUP2 SWAP1 POP PUSH1 0x20 DUP3 ADD SWAP1 POP SWAP2 SWAP1 POP JUMP JUMPDEST PUSH0 PUSH20 0xFFFFFFFFFFFFFFFFFFFFFFFFFFFFFFFFFFFFFFFF DUP3 AND SWAP1 POP SWAP2 SWAP1 POP JUMP JUMPDEST PUSH0 PUSH2 0x17F1 DUP3 PUSH2 0x17C8 JUMP JUMPDEST SWAP1 POP SWAP2 SWAP1 POP JUMP JUMPDEST PUSH2 0x1801 DUP2 PUSH2 0x17E7 JUMP JUMPDEST DUP3 MSTORE POP POP JUMP JUMPDEST PUSH0 DUP2 MLOAD SWAP1 POP SWAP2 SWAP1 POP JUMP JUMPDEST PUSH0 DUP3 DUP3 MSTORE PUSH1 0x20 DUP3 ADD SWAP1 POP SWAP3 SWAP2 POP POP JUMP JUMPDEST DUP3 DUP2 DUP4 MCOPY PUSH0 DUP4 DUP4 ADD MSTORE POP POP POP JUMP JUMPDEST PUSH0 PUSH2 0x1839 DUP3 PUSH2 0x1807 JUMP JUMPDEST PUSH2 0x1843 DUP2 DUP6 PUSH2 0x1811 JUMP JUMPDEST SWAP4 POP PUSH2 0x1853 DUP2 DUP6 PUSH1 0x20 DUP7 ADD PUSH2 0x1821 JUMP JUMPDEST PUSH2 0x185C DUP2 PUSH2 0x1589 JUMP JUMPDEST DUP5 ADD SWAP2 POP POP SWAP3 SWAP2 POP POP JUMP JUMPDEST PUSH2 0x1870 DUP2 PUSH2 0x16BD JUMP JUMPDEST DUP3 MSTORE POP POP JUMP JUMPDEST PUSH0 PUSH1 0x60 DUP4 ADD PUSH0 DUP4 ADD MLOAD PUSH2 0x188B PUSH0 DUP7 ADD DUP3 PUSH2 0x17F8 JUMP JUMPDEST POP PUSH1 0x20 DUP4 ADD MLOAD DUP5 DUP3 SUB PUSH1 0x20 DUP7 ADD MSTORE PUSH2 0x18A3 DUP3 DUP3 PUSH2 0x182F JUMP JUMPDEST SWAP2 POP POP PUSH1 0x40 DUP4 ADD MLOAD PUSH2 0x18B8 PUSH1 0x40 DUP7 ADD DUP3 PUSH2 0x1867 JUMP JUMPDEST POP DUP1 SWAP2 POP POP SWAP3 SWAP2 POP POP JUMP JUMPDEST PUSH0 PUSH2 0x18CE DUP4 DUP4 PUSH2 0x1876 JUMP JUMPDEST SWAP1 POP SWAP3 SWAP2 POP POP JUMP JUMPDEST PUSH0 PUSH1 0x20 DUP3 ADD SWAP1 POP SWAP2 SWAP1 POP JUMP JUMPDEST PUSH0 PUSH2 0x18EC DUP3 PUSH2 0x179F JUMP JUMPDEST PUSH2 0x18F6 DUP2 DUP6 PUSH2 0x17A9 JUMP JUMPDEST SWAP4 POP DUP4 PUSH1 0x20 DUP3 MUL DUP6 ADD PUSH2 0x1908 DUP6 PUSH2 0x17B9 JUMP JUMPDEST DUP1 PUSH0 JUMPDEST DUP6 DUP2 LT ISZERO PUSH2 0x1943 JUMPI DUP5 DUP5 SUB DUP10 MSTORE DUP2 MLOAD PUSH2 0x1924 DUP6 DUP3 PUSH2 0x18C3 JUMP JUMPDEST SWAP5 POP PUSH2 0x192F DUP4 PUSH2 0x18D6 JUMP JUMPDEST SWAP3 POP PUSH1 0x20 DUP11 ADD SWAP10 POP POP PUSH1 0x1 DUP2 ADD SWAP1 POP PUSH2 0x190B JUMP JUMPDEST POP DUP3 SWAP8 POP DUP8 SWAP6 POP POP POP POP POP POP SWAP3 SWAP2 POP POP JUMP JUMPDEST PUSH0 PUSH1 0x20 DUP3 ADD SWAP1 POP DUP2 DUP2 SUB PUSH0 DUP4 ADD MSTORE PUSH2 0x196D DUP2 DUP5 PUSH2 0x18E2 JUMP JUMPDEST SWAP1 POP SWAP3 SWAP2 POP POP JUMP JUMPDEST PUSH0 PUSH1 0x20 DUP3 DUP5 SUB SLT ISZERO PUSH2 0x198A JUMPI PUSH2 0x1989 PUSH2 0x1556 JUMP JUMPDEST JUMPDEST PUSH0 PUSH2 0x1997 DUP5 DUP3 DUP6 ADD PUSH2 0x16DC JUMP JUMPDEST SWAP2 POP POP SWAP3 SWAP2 POP POP JUMP JUMPDEST PUSH0 PUSH2 0x19AA DUP3 PUSH2 0x17C8 JUMP JUMPDEST SWAP1 POP SWAP2 SWAP1 POP JUMP JUMPDEST PUSH2 0x19BA DUP2 PUSH2 0x19A0 JUMP JUMPDEST DUP3 MSTORE POP POP JUMP JUMPDEST PUSH0 PUSH1 0x20 DUP3 ADD SWAP1 POP PUSH2 0x19D3 PUSH0 DUP4 ADD DUP5 PUSH2 0x19B1 JUMP JUMPDEST SWAP3 SWAP2 POP POP JUMP JUMPDEST PUSH2 0x19E2 DUP2 PUSH2 0x17E7 JUMP JUMPDEST DUP3 MSTORE POP POP JUMP JUMPDEST PUSH0 DUP3 DUP3 MSTORE PUSH1 0x20 DUP3 ADD SWAP1 POP SWAP3 SWAP2 POP POP JUMP JUMPDEST PUSH0 PUSH2 0x1A02 DUP3 PUSH2 0x1807 JUMP JUMPDEST PUSH2 0x1A0C DUP2 DUP6 PUSH2 0x19E8 JUMP JUMPDEST SWAP4 POP PUSH2 0x1A1C DUP2 DUP6 PUSH1 0x20 DUP7 ADD PUSH2 0x1821 JUMP JUMPDEST PUSH2 0x1A25 DUP2 PUSH2 0x1589 JUMP JUMPDEST DUP5 ADD SWAP2 POP POP SWAP3 SWAP2 POP POP JUMP JUMPDEST PUSH2 0x1A39 DUP2 PUSH2 0x16BD JUMP JUMPDEST DUP3 MSTORE POP POP JUMP JUMPDEST PUSH0 PUSH1 0x60 DUP3 ADD SWAP1 POP PUSH2 0x1A52 PUSH0 DUP4 ADD DUP7 PUSH2 0x19D9 JUMP JUMPDEST DUP2 DUP2 SUB PUSH1 0x20 DUP4 ADD MSTORE PUSH2 0x1A64 DUP2 DUP6 PUSH2 0x19F8 JUMP JUMPDEST SWAP1 POP PUSH2 0x1A73 PUSH1 0x40 DUP4 ADD DUP5 PUSH2 0x1A30 JUMP JUMPDEST SWAP5 SWAP4 POP POP POP POP JUMP JUMPDEST PUSH0 DUP1 PUSH1 0x40 DUP4 DUP6 SUB SLT ISZERO PUSH2 0x1A91 JUMPI PUSH2 0x1A90 PUSH2 0x1556 JUMP JUMPDEST JUMPDEST PUSH0 PUSH2 0x1A9E DUP6 DUP3 DUP7 ADD PUSH2 0x156D JUMP JUMPDEST SWAP3 POP POP PUSH1 0x20 PUSH2 0x1AAF DUP6 DUP3 DUP7 ADD PUSH2 0x16DC JUMP JUMPDEST SWAP2 POP POP SWAP3 POP SWAP3 SWAP1 POP JUMP JUMPDEST PUSH2 0x1AC2 DUP2 PUSH2 0x17E7 JUMP JUMPDEST DUP2 EQ PUSH2 0x1ACC JUMPI PUSH0 DUP1 REVERT JUMPDEST POP JUMP JUMPDEST PUSH0 DUP2 CALLDATALOAD SWAP1 POP PUSH2 0x1ADD DUP2 PUSH2 0x1AB9 JUMP JUMPDEST SWAP3 SWAP2 POP POP JUMP JUMPDEST PUSH0 PUSH1 0x20 DUP3 DUP5 SUB SLT ISZERO PUSH2 0x1AF8 JUMPI PUSH2 0x1AF7 PUSH2 0x1556 JUMP JUMPDEST JUMPDEST PUSH0 PUSH2 0x1B05 DUP5 DUP3 DUP6 ADD PUSH2 0x1ACF JUMP JUMPDEST SWAP2 POP POP SWAP3 SWAP2 POP POP JUMP JUMPDEST PUSH0 DUP2 MLOAD SWAP1 POP SWAP2 SWAP1 POP JUMP JUMPDEST PUSH0 DUP3 DUP3 MSTORE PUSH1 0x20 DUP3 ADD SWAP1 POP SWAP3 SWAP2 POP POP JUMP JUMPDEST PUSH0 DUP2 SWAP1 POP PUSH1 0x20 DUP3 ADD SWAP1 POP SWAP2 SWAP1 POP JUMP JUMPDEST PUSH0 PUSH1 0x80 DUP4 ADD PUSH0 DUP4 ADD MLOAD DUP5 DUP3 SUB PUSH0 DUP7 ADD MSTORE PUSH2 0x1B51 DUP3 DUP3 PUSH2 0x182F JUMP JUMPDEST SWAP2 POP POP PUSH1 0x20 DUP4 ADD MLOAD PUSH2 0x1B66 PUSH1 0x20 DUP7 ADD DUP3 PUSH2 0x1867 JUMP JUMPDEST POP PUSH1 0x40 DUP4 ADD MLOAD DUP5 DUP3 SUB PUSH1 0x40 DUP7 ADD MSTORE PUSH2 0x1B7E DUP3 DUP3 PUSH2 0x182F JUMP JUMPDEST SWAP2 POP POP PUSH1 0x60 DUP4 ADD MLOAD PUSH2 0x1B93 PUSH1 0x60 DUP7 ADD DUP3 PUSH2 0x1867 JUMP JUMPDEST POP DUP1 SWAP2 POP POP SWAP3 SWAP2 POP POP JUMP JUMPDEST PUSH0 PUSH2 0x1BA9 DUP4 DUP4 PUSH2 0x1B37 JUMP JUMPDEST SWAP1 POP SWAP3 SWAP2 POP POP JUMP JUMPDEST PUSH0 PUSH1 0x20 DUP3 ADD SWAP1 POP SWAP2 SWAP1 POP JUMP JUMPDEST PUSH0 PUSH2 0x1BC7 DUP3 PUSH2 0x1B0E JUMP JUMPDEST PUSH2 0x1BD1 DUP2 DUP6 PUSH2 0x1B18 JUMP JUMPDEST SWAP4 POP DUP4 PUSH1 0x20 DUP3 MUL DUP6 ADD PUSH2 0x1BE3 DUP6 PUSH2 0x1B28 JUMP JUMPDEST DUP1 PUSH0 JUMPDEST DUP6 DUP2 LT ISZERO PUSH2 0x1C1E JUMPI DUP5 DUP5 SUB DUP10 MSTORE DUP2 MLOAD PUSH2 0x1BFF DUP6 DUP3 PUSH2 0x1B9E JUMP JUMPDEST SWAP5 POP PUSH2 0x1C0A DUP4 PUSH2 0x1BB1 JUMP JUMPDEST SWAP3 POP PUSH1 0x20 DUP11 ADD SWAP10 POP POP PUSH1 0x1 DUP2 ADD SWAP1 POP PUSH2 0x1BE6 JUMP JUMPDEST POP DUP3 SWAP8 POP DUP8 SWAP6 POP POP POP POP POP POP SWAP3 SWAP2 POP POP JUMP JUMPDEST PUSH0 PUSH1 0x20 DUP3 ADD SWAP1 POP DUP2 DUP2 SUB PUSH0 DUP4 ADD MSTORE PUSH2 0x1C48 DUP2 DUP5 PUSH2 0x1BBD JUMP JUMPDEST SWAP1 POP SWAP3 SWAP2 POP POP JUMP JUMPDEST PUSH0 PUSH1 0x20 DUP3 DUP5 SUB SLT ISZERO PUSH2 0x1C65 JUMPI PUSH2 0x1C64 PUSH2 0x1556 JUMP JUMPDEST JUMPDEST PUSH0 PUSH2 0x1C72 DUP5 DUP3 DUP6 ADD PUSH2 0x156D JUMP JUMPDEST SWAP2 POP POP SWAP3 SWAP2 POP POP JUMP JUMPDEST PUSH0 DUP2 MLOAD SWAP1 POP SWAP2 SWAP1 POP JUMP JUMPDEST PUSH0 DUP3 DUP3 MSTORE PUSH1 0x20 DUP3 ADD SWAP1 POP SWAP3 SWAP2 POP POP JUMP JUMPDEST PUSH0 DUP2 SWAP1 POP PUSH1 0x20 DUP3 ADD SWAP1 POP SWAP2 SWAP1 POP JUMP JUMPDEST PUSH0 PUSH1 0x80 DUP4 ADD PUSH0 DUP4 ADD MLOAD DUP5 DUP3 SUB PUSH0 DUP7 ADD MSTORE PUSH2 0x1CBE DUP3 DUP3 PUSH2 0x182F JUMP JUMPDEST SWAP2 POP POP PUSH1 0x20 DUP4 ADD MLOAD PUSH2 0x1CD3 PUSH1 0x20 DUP7 ADD DUP3 PUSH2 0x1867 JUMP JUMPDEST POP PUSH1 0x40 DUP4 ADD MLOAD PUSH2 0x1CE6 PUSH1 0x40 DUP7 ADD DUP3 PUSH2 0x1867 JUMP JUMPDEST POP PUSH1 0x60 DUP4 ADD MLOAD DUP5 DUP3 SUB PUSH1 0x60 DUP7 ADD MSTORE PUSH2 0x1CFE DUP3 DUP3 PUSH2 0x182F JUMP JUMPDEST SWAP2 POP POP DUP1 SWAP2 POP POP SWAP3 SWAP2 POP POP JUMP JUMPDEST PUSH0 PUSH2 0x1D16 DUP4 DUP4 PUSH2 0x1CA4 JUMP JUMPDEST SWAP1 POP SWAP3 SWAP2 POP POP JUMP JUMPDEST PUSH0 PUSH1 0x20 DUP3 ADD SWAP1 POP SWAP2 SWAP1 POP JUMP JUMPDEST PUSH0 PUSH2 0x1D34 DUP3 PUSH2 0x1C7B JUMP JUMPDEST PUSH2 0x1D3E DUP2 DUP6 PUSH2 0x1C85 JUMP JUMPDEST SWAP4 POP DUP4 PUSH1 0x20 DUP3 MUL DUP6 ADD PUSH2 0x1D50 DUP6 PUSH2 0x1C95 JUMP JUMPDEST DUP1 PUSH0 JUMPDEST DUP6 DUP2 LT ISZERO PUSH2 0x1D8B JUMPI DUP5 DUP5 SUB DUP10 MSTORE DUP2 MLOAD PUSH2 0x1D6C DUP6 DUP3 PUSH2 0x1D0B JUMP JUMPDEST SWAP5 POP PUSH2 0x1D77 DUP4 PUSH2 0x1D1E JUMP JUMPDEST SWAP3 POP PUSH1 0x20 DUP11 ADD SWAP10 POP POP PUSH1 0x1 DUP2 ADD SWAP1 POP PUSH2 0x1D53 JUMP JUMPDEST POP DUP3 SWAP8 POP DUP8 SWAP6 POP POP POP POP POP POP SWAP3 SWAP2 POP POP JUMP JUMPDEST PUSH0 PUSH1 0x20 DUP3 ADD SWAP1 POP DUP2 DUP2 SUB PUSH0 DUP4 ADD MSTORE PUSH2 0x1DB5 DUP2 DUP5 PUSH2 0x1D2A JUMP JUMPDEST SWAP1 POP SWAP3 SWAP2 POP POP JUMP JUMPDEST PUSH0 PUSH1 0x20 DUP3 ADD SWAP1 POP PUSH2 0x1DD0 PUSH0 DUP4 ADD DUP5 PUSH2 0x1A30 JUMP JUMPDEST SWAP3 SWAP2 POP POP JUMP JUMPDEST PUSH0 PUSH1 0x80 DUP3 ADD SWAP1 POP DUP2 DUP2 SUB PUSH0 DUP4 ADD MSTORE PUSH2 0x1DEE DUP2 DUP8 PUSH2 0x19F8 JUMP JUMPDEST SWAP1 POP PUSH2 0x1DFD PUSH1 0x20 DUP4 ADD DUP7 PUSH2 0x1A30 JUMP JUMPDEST PUSH2 0x1E0A PUSH1 0x40 DUP4 ADD DUP6 PUSH2 0x1A30 JUMP JUMPDEST DUP2 DUP2 SUB PUSH1 0x60 DUP4 ADD MSTORE PUSH2 0x1E1C DUP2 DUP5 PUSH2 0x19F8 JUMP JUMPDEST SWAP1 POP SWAP6 SWAP5 POP POP POP POP POP JUMP JUMPDEST PUSH0 DUP1 PUSH1 0x40 DUP4 DUP6 SUB SLT ISZERO PUSH2 0x1E3D JUMPI PUSH2 0x1E3C PUSH2 0x1556 JUMP JUMPDEST JUMPDEST PUSH0 PUSH2 0x1E4A DUP6 DUP3 DUP7 ADD PUSH2 0x1ACF JUMP JUMPDEST SWAP3 POP POP PUSH1 0x20 PUSH2 0x1E5B DUP6 DUP3 DUP7 ADD PUSH2 0x16DC JUMP JUMPDEST SWAP2 POP POP SWAP3 POP SWAP3 SWAP1 POP JUMP JUMPDEST PUSH0 PUSH1 0x80 DUP3 ADD SWAP1 POP DUP2 DUP2 SUB PUSH0 DUP4 ADD MSTORE PUSH2 0x1E7D DUP2 DUP8 PUSH2 0x19F8 JUMP JUMPDEST SWAP1 POP PUSH2 0x1E8C PUSH1 0x20 DUP4 ADD DUP7 PUSH2 0x1A30 JUMP JUMPDEST DUP2 DUP2 SUB PUSH1 0x40 DUP4 ADD MSTORE PUSH2 0x1E9E DUP2 DUP6 PUSH2 0x19F8 JUMP JUMPDEST SWAP1 POP PUSH2 0x1EAD PUSH1 0x60 DUP4 ADD DUP5 PUSH2 0x1A30 JUMP JUMPDEST SWAP6 SWAP5 POP POP POP POP POP JUMP JUMPDEST PUSH0 DUP1 PUSH0 PUSH1 0x60 DUP5 DUP7 SUB SLT ISZERO PUSH2 0x1ECD JUMPI PUSH2 0x1ECC PUSH2 0x1556 JUMP JUMPDEST JUMPDEST PUSH0 PUSH2 0x1EDA DUP7 DUP3 DUP8 ADD PUSH2 0x156D JUMP JUMPDEST SWAP4 POP POP PUSH1 0x20 PUSH2 0x1EEB DUP7 DUP3 DUP8 ADD PUSH2 0x16DC JUMP JUMPDEST SWAP3 POP POP PUSH1 0x40 PUSH2 0x1EFC DUP7 DUP3 DUP8 ADD PUSH2 0x16DC JUMP JUMPDEST SWAP2 POP POP SWAP3 POP SWAP3 POP SWAP3 JUMP JUMPDEST PUSH32 0x596F7520646F6E74206861766520617574686F72697A65000000000000000000 PUSH0 DUP3 ADD MSTORE POP JUMP JUMPDEST PUSH0 PUSH2 0x1F3A PUSH1 0x17 DUP4 PUSH2 0x19E8 JUMP JUMPDEST SWAP2 POP PUSH2 0x1F45 DUP3 PUSH2 0x1F06 JUMP JUMPDEST PUSH1 0x20 DUP3 ADD SWAP1 POP SWAP2 SWAP1 POP JUMP JUMPDEST PUSH0 PUSH1 0x20 DUP3 ADD SWAP1 POP DUP2 DUP2 SUB PUSH0 DUP4 ADD MSTORE PUSH2 0x1F67 DUP2 PUSH2 0x1F2E JUMP JUMPDEST SWAP1 POP SWAP2 SWAP1 POP JUMP JUMPDEST PUSH32 0x4E487B7100000000000000000000000000000000000000000000000000000000 PUSH0 MSTORE PUSH1 0x21 PUSH1 0x4 MSTORE PUSH1 0x24 PUSH0 REVERT JUMPDEST PUSH32 0x4E487B7100000000000000000000000000000000000000000000000000000000 PUSH0 MSTORE PUSH1 0x22 PUSH1 0x4 MSTORE PUSH1 0x24 PUSH0 REVERT JUMPDEST PUSH0 PUSH1 0x2 DUP3 DIV SWAP1 POP PUSH1 0x1 DUP3 AND DUP1 PUSH2 0x1FDF JUMPI PUSH1 0x7F DUP3 AND SWAP2 POP JUMPDEST PUSH1 0x20 DUP3 LT DUP2 SUB PUSH2 0x1FF2 JUMPI PUSH2 0x1FF1 PUSH2 0x1F9B JUMP JUMPDEST JUMPDEST POP SWAP2 SWAP1 POP JUMP JUMPDEST PUSH0 DUP2 SWAP1 POP DUP2 PUSH0 MSTORE PUSH1 0x20 PUSH0 KECCAK256 SWAP1 POP SWAP2 SWAP1 POP JUMP JUMPDEST PUSH0 PUSH1 0x20 PUSH1 0x1F DUP4 ADD DIV SWAP1 POP SWAP2 SWAP1 POP JUMP JUMPDEST PUSH0 DUP3 DUP3 SHL SWAP1 POP SWAP3 SWAP2 POP POP JUMP JUMPDEST PUSH0 PUSH1 0x8 DUP4 MUL PUSH2 0x2054 PUSH32 0xFFFFFFFFFFFFFFFFFFFFFFFFFFFFFFFFFFFFFFFFFFFFFFFFFFFFFFFFFFFFFFFF DUP3 PUSH2 0x2019 JUMP JUMPDEST PUSH2 0x205E DUP7 DUP4 PUSH2 0x2019 JUMP JUMPDEST SWAP6 POP DUP1 NOT DUP5 AND SWAP4 POP DUP1 DUP7 AND DUP5 OR SWAP3 POP POP POP SWAP4 SWAP3 POP POP POP JUMP JUMPDEST PUSH0 DUP2 SWAP1 POP SWAP2 SWAP1 POP JUMP JUMPDEST PUSH0 PUSH2 0x2099 PUSH2 0x2094 PUSH2 0x208F DUP5 PUSH2 0x16BD JUMP JUMPDEST PUSH2 0x2076 JUMP JUMPDEST PUSH2 0x16BD JUMP JUMPDEST SWAP1 POP SWAP2 SWAP1 POP JUMP JUMPDEST PUSH0 DUP2 SWAP1 POP SWAP2 SWAP1 POP JUMP JUMPDEST PUSH2 0x20B2 DUP4 PUSH2 0x207F JUMP JUMPDEST PUSH2 0x20C6 PUSH2 0x20BE DUP3 PUSH2 0x20A0 JUMP JUMPDEST DUP5 DUP5 SLOAD PUSH2 0x2025 JUMP JUMPDEST DUP3 SSTORE POP POP POP POP JUMP JUMPDEST PUSH0 SWAP1 JUMP JUMPDEST PUSH2 0x20DA PUSH2 0x20CE JUMP JUMPDEST PUSH2 0x20E5 DUP2 DUP5 DUP5 PUSH2 0x20A9 JUMP JUMPDEST POP POP POP JUMP JUMPDEST JUMPDEST DUP2 DUP2 LT ISZERO PUSH2 0x2108 JUMPI PUSH2 0x20FD PUSH0 DUP3 PUSH2 0x20D2 JUMP JUMPDEST PUSH1 0x1 DUP2 ADD SWAP1 POP PUSH2 0x20EB JUMP JUMPDEST POP POP JUMP JUMPDEST PUSH1 0x1F DUP3 GT ISZERO PUSH2 0x214D JUMPI PUSH2 0x211E DUP2 PUSH2 0x1FF8 JUMP JUMPDEST PUSH2 0x2127 DUP5 PUSH2 0x200A JUMP JUMPDEST DUP2 ADD PUSH1 0x20 DUP6 LT ISZERO PUSH2 0x2136 JUMPI DUP2 SWAP1 POP JUMPDEST PUSH2 0x214A PUSH2 0x2142 DUP6 PUSH2 0x200A JUMP JUMPDEST DUP4 ADD DUP3 PUSH2 0x20EA JUMP JUMPDEST POP POP JUMPDEST POP POP POP JUMP JUMPDEST PUSH0 DUP3 DUP3 SHR SWAP1 POP SWAP3 SWAP2 POP POP JUMP JUMPDEST PUSH0 PUSH2 0x216D PUSH0 NOT DUP5 PUSH1 0x8 MUL PUSH2 0x2152 JUMP JUMPDEST NOT DUP1 DUP4 AND SWAP2 POP POP SWAP3 SWAP2 POP POP JUMP JUMPDEST PUSH0 PUSH2 0x2185 DUP4 DUP4 PUSH2 0x215E JUMP JUMPDEST SWAP2 POP DUP3 PUSH1 0x2 MUL DUP3 OR SWAP1 POP SWAP3 SWAP2 POP POP JUMP JUMPDEST PUSH2 0x219E DUP3 PUSH2 0x1807 JUMP JUMPDEST PUSH8 0xFFFFFFFFFFFFFFFF DUP2 GT ISZERO PUSH2 0x21B7 JUMPI PUSH2 0x21B6 PUSH2 0x1599 JUMP JUMPDEST JUMPDEST PUSH2 0x21C1 DUP3 SLOAD PUSH2 0x1FC8 JUMP JUMPDEST PUSH2 0x21CC DUP3 DUP3 DUP6 PUSH2 0x210C JUMP JUMPDEST PUSH0 PUSH1 0x20 SWAP1 POP PUSH1 0x1F DUP4 GT PUSH1 0x1 DUP2 EQ PUSH2 0x21FD JUMPI PUSH0 DUP5 ISZERO PUSH2 0x21EB JUMPI DUP3 DUP8 ADD MLOAD SWAP1 POP JUMPDEST PUSH2 0x21F5 DUP6 DUP3 PUSH2 0x217A JUMP JUMPDEST DUP7 SSTORE POP PUSH2 0x225C JUMP JUMPDEST PUSH1 0x1F NOT DUP5 AND PUSH2 0x220B DUP7 PUSH2 0x1FF8 JUMP JUMPDEST PUSH0 JUMPDEST DUP3 DUP2 LT ISZERO PUSH2 0x2232 JUMPI DUP5 DUP10 ADD MLOAD DUP3 SSTORE PUSH1 0x1 DUP3 ADD SWAP2 POP PUSH1 0x20 DUP6 ADD SWAP5 POP PUSH1 0x20 DUP2 ADD SWAP1 POP PUSH2 0x220D JUMP JUMPDEST DUP7 DUP4 LT ISZERO PUSH2 0x224F JUMPI DUP5 DUP10 ADD MLOAD PUSH2 0x224B PUSH1 0x1F DUP10 AND DUP3 PUSH2 0x215E JUMP JUMPDEST DUP4 SSTORE POP JUMPDEST PUSH1 0x1 PUSH1 0x2 DUP9 MUL ADD DUP9 SSTORE POP POP POP JUMPDEST POP POP POP POP POP POP JUMP JUMPDEST PUSH32 0x4E487B7100000000000000000000000000000000000000000000000000000000 PUSH0 MSTORE PUSH1 0x32 PUSH1 0x4 MSTORE PUSH1 0x24 PUSH0 REVERT JUMPDEST PUSH32 0x496E73756666696369656E742062616C616E6365000000000000000000000000 PUSH0 DUP3 ADD MSTORE POP JUMP JUMPDEST PUSH0 PUSH2 0x22C5 PUSH1 0x14 DUP4 PUSH2 0x19E8 JUMP JUMPDEST SWAP2 POP PUSH2 0x22D0 DUP3 PUSH2 0x2291 JUMP JUMPDEST PUSH1 0x20 DUP3 ADD SWAP1 POP SWAP2 SWAP1 POP JUMP JUMPDEST PUSH0 PUSH1 0x20 DUP3 ADD SWAP1 POP DUP2 DUP2 SUB PUSH0 DUP4 ADD MSTORE PUSH2 0x22F2 DUP2 PUSH2 0x22B9 JUMP JUMPDEST SWAP1 POP SWAP2 SWAP1 POP JUMP JUMPDEST PUSH32 0x4E487B7100000000000000000000000000000000000000000000000000000000 PUSH0 MSTORE PUSH1 0x11 PUSH1 0x4 MSTORE PUSH1 0x24 PUSH0 REVERT JUMPDEST PUSH0 PUSH2 0x2330 DUP3 PUSH2 0x16BD JUMP JUMPDEST SWAP2 POP PUSH2 0x233B DUP4 PUSH2 0x16BD JUMP JUMPDEST SWAP3 POP DUP3 DUP3 SUB SWAP1 POP DUP2 DUP2 GT ISZERO PUSH2 0x2353 JUMPI PUSH2 0x2352 PUSH2 0x22F9 JUMP JUMPDEST JUMPDEST SWAP3 SWAP2 POP POP JUMP JUMPDEST PUSH32 0x496E73756666696369656E742073746F636B0000000000000000000000000000 PUSH0 DUP3 ADD MSTORE POP JUMP JUMPDEST PUSH0 PUSH2 0x238D PUSH1 0x12 DUP4 PUSH2 0x19E8 JUMP JUMPDEST SWAP2 POP PUSH2 0x2398 DUP3 PUSH2 0x2359 JUMP JUMPDEST PUSH1 0x20 DUP3 ADD SWAP1 POP SWAP2 SWAP1 POP JUMP JUMPDEST PUSH0 PUSH1 0x20 DUP3 ADD SWAP1 POP DUP2 DUP2 SUB PUSH0 DUP4 ADD MSTORE PUSH2 0x23BA DUP2 PUSH2 0x2381 JUMP JUMPDEST SWAP1 POP SWAP2 SWAP1 POP JUMP JUMPDEST PUSH32 0x496E7075742061637475616C2062616C616E6365000000000000000000000000 PUSH0 DUP3 ADD MSTORE POP JUMP JUMPDEST PUSH0 PUSH2 0x23F5 PUSH1 0x14 DUP4 PUSH2 0x19E8 JUMP JUMPDEST SWAP2 POP PUSH2 0x2400 DUP3 PUSH2 0x23C1 JUMP JUMPDEST PUSH1 0x20 DUP3 ADD SWAP1 POP SWAP2 SWAP1 POP JUMP JUMPDEST PUSH0 PUSH1 0x20 DUP3 ADD SWAP1 POP DUP2 DUP2 SUB PUSH0 DUP4 ADD MSTORE PUSH2 0x2422 DUP2 PUSH2 0x23E9 JUMP JUMPDEST SWAP1 POP SWAP2 SWAP1 POP JUMP JUMPDEST PUSH0 PUSH2 0x2433 DUP3 PUSH2 0x16BD JUMP JUMPDEST SWAP2 POP PUSH2 0x243E DUP4 PUSH2 0x16BD JUMP JUMPDEST SWAP3 POP DUP3 DUP3 ADD SWAP1 POP DUP1 DUP3 GT ISZERO PUSH2 0x2456 JUMPI PUSH2 0x2455 PUSH2 0x22F9 JUMP JUMPDEST JUMPDEST SWAP3 SWAP2 POP POP JUMP JUMPDEST PUSH0 DUP2 SLOAD PUSH2 0x2468 DUP2 PUSH2 0x1FC8 JUMP JUMPDEST PUSH2 0x2472 DUP2 DUP7 PUSH2 0x19E8 JUMP JUMPDEST SWAP5 POP PUSH1 0x1 DUP3 AND PUSH0 DUP2 EQ PUSH2 0x248C JUMPI PUSH1 0x1 DUP2 EQ PUSH2 0x24A2 JUMPI PUSH2 0x24D4 JUMP JUMPDEST PUSH1 0xFF NOT DUP4 AND DUP7 MSTORE DUP2 ISZERO ISZERO PUSH1 0x20 MUL DUP7 ADD SWAP4 POP PUSH2 0x24D4 JUMP JUMPDEST PUSH2 0x24AB DUP6 PUSH2 0x1FF8 JUMP JUMPDEST PUSH0 JUMPDEST DUP4 DUP2 LT ISZERO PUSH2 0x24CC JUMPI DUP2 SLOAD DUP2 DUP10 ADD MSTORE PUSH1 0x1 DUP3 ADD SWAP2 POP PUSH1 0x20 DUP2 ADD SWAP1 POP PUSH2 0x24AD JUMP JUMPDEST DUP1 DUP9 ADD SWAP6 POP POP POP JUMPDEST POP POP POP SWAP3 SWAP2 POP POP JUMP JUMPDEST PUSH0 PUSH1 0x60 DUP3 ADD SWAP1 POP PUSH2 0x24F0 PUSH0 DUP4 ADD DUP7 PUSH2 0x19D9 JUMP JUMPDEST DUP2 DUP2 SUB PUSH1 0x20 DUP4 ADD MSTORE PUSH2 0x2502 DUP2 DUP6 PUSH2 0x245C JUMP JUMPDEST SWAP1 POP PUSH2 0x2511 PUSH1 0x40 DUP4 ADD DUP5 PUSH2 0x1A30 JUMP JUMPDEST SWAP5 SWAP4 POP POP POP POP JUMP INVALID LOG2 PUSH5 0x6970667358 0x22 SLT KECCAK256 0x2A JUMPDEST DUP10 BLOBHASH MULMOD ISZERO 0x4E PUSH12 0xE5D386403B0F379DBBB1C1D2 TLOAD 0xFB CODESIZE GAS 0xD2 DUP3 INVALID ADDMOD GT 0xD2 PUSH2 0x5F64 PUSH20 0x6F6C634300081A00330000000000000000000000 "
				},
				"gasEstimates": {
					"creation": {
						"codeDepositCost": "1910200",
						"executionCost": "26282",
						"totalCost": "1936482"
					},
					"external": {
						"VendingMachine(uint8,uint256)": "infinite",
						"addProduct(uint8,string,uint256,uint256,string)": "infinite",
						"buyProduct(uint8,uint256)": "infinite",
						"customerBags(address,uint256)": "infinite",
						"getCustomerBag(address)": "infinite",
						"getProducts(uint8)": "infinite",
						"getTransaction()": "infinite",
						"owner()": "2572",
						"ownerBalance()": "2492",
						"transactions(uint256)": "infinite",
						"updatePrice(uint8,uint256,uint256)": "infinite",
						"updateStock(uint8,uint256,uint256)": "infinite",
						"widthdrawBalance(uint256)": "infinite"
					}
				},
				"methodIdentifiers": {
					"VendingMachine(uint8,uint256)": "d616aad2",
					"addProduct(uint8,string,uint256,uint256,string)": "4bc8e34b",
					"buyProduct(uint8,uint256)": "9ba06cdc",
					"customerBags(address,uint256)": "d6920a4d",
					"getCustomerBag(address)": "9ee0918f",
					"getProducts(uint8)": "a5fe9948",
					"getTransaction()": "59705f81",
					"owner()": "8da5cb5b",
					"ownerBalance()": "bedcf003",
					"transactions(uint256)": "9ace38c2",
					"updatePrice(uint8,uint256,uint256)": "e04f38da",
					"updateStock(uint8,uint256,uint256)": "edf16c0e",
					"widthdrawBalance(uint256)": "8a366757"
				}
			},
			"storageLayout": {
				"storage": [
					{
						"astId": 3,
						"contract": "VendingMachine.sol:VendingMachineContract",
						"label": "owner",
						"offset": 0,
						"slot": "0",
						"type": "t_address_payable"
					},
					{
						"astId": 5,
						"contract": "VendingMachine.sol:VendingMachineContract",
						"label": "ownerBalance",
						"offset": 0,
						"slot": "1",
						"type": "t_uint256"
					},
					{
						"astId": 37,
						"contract": "VendingMachine.sol:VendingMachineContract",
						"label": "transactions",
						"offset": 0,
						"slot": "2",
						"type": "t_array(t_struct(Transaction)24_storage)dyn_storage"
					},
					{
						"astId": 44,
						"contract": "VendingMachine.sol:VendingMachineContract",
						"label": "VendingMachine",
						"offset": 0,
						"slot": "3",
						"type": "t_mapping(t_enum(ProductCategories)8,t_array(t_struct(Product)17_storage)dyn_storage)"
					},
					{
						"astId": 50,
						"contract": "VendingMachine.sol:VendingMachineContract",
						"label": "customerBags",
						"offset": 0,
						"slot": "4",
						"type": "t_mapping(t_address,t_array(t_struct(CustomerBag)33_storage)dyn_storage)"
					}
				],
				"types": {
					"t_address": {
						"encoding": "inplace",
						"label": "address",
						"numberOfBytes": "20"
					},
					"t_address_payable": {
						"encoding": "inplace",
						"label": "address payable",
						"numberOfBytes": "20"
					},
					"t_array(t_struct(CustomerBag)33_storage)dyn_storage": {
						"base": "t_struct(CustomerBag)33_storage",
						"encoding": "dynamic_array",
						"label": "struct VendingMachineContract.CustomerBag[]",
						"numberOfBytes": "32"
					},
					"t_array(t_struct(Product)17_storage)dyn_storage": {
						"base": "t_struct(Product)17_storage",
						"encoding": "dynamic_array",
						"label": "struct VendingMachineContract.Product[]",
						"numberOfBytes": "32"
					},
					"t_array(t_struct(Transaction)24_storage)dyn_storage": {
						"base": "t_struct(Transaction)24_storage",
						"encoding": "dynamic_array",
						"label": "struct VendingMachineContract.Transaction[]",
						"numberOfBytes": "32"
					},
					"t_enum(ProductCategories)8": {
						"encoding": "inplace",
						"label": "enum VendingMachineContract.ProductCategories",
						"numberOfBytes": "1"
					},
					"t_mapping(t_address,t_array(t_struct(CustomerBag)33_storage)dyn_storage)": {
						"encoding": "mapping",
						"key": "t_address",
						"label": "mapping(address => struct VendingMachineContract.CustomerBag[])",
						"numberOfBytes": "32",
						"value": "t_array(t_struct(CustomerBag)33_storage)dyn_storage"
					},
					"t_mapping(t_enum(ProductCategories)8,t_array(t_struct(Product)17_storage)dyn_storage)": {
						"encoding": "mapping",
						"key": "t_enum(ProductCategories)8",
						"label": "mapping(enum VendingMachineContract.ProductCategories => struct VendingMachineContract.Product[])",
						"numberOfBytes": "32",
						"value": "t_array(t_struct(Product)17_storage)dyn_storage"
					},
					"t_string_storage": {
						"encoding": "bytes",
						"label": "string",
						"numberOfBytes": "32"
					},
					"t_struct(CustomerBag)33_storage": {
						"encoding": "inplace",
						"label": "struct VendingMachineContract.CustomerBag",
						"members": [
							{
								"astId": 26,
								"contract": "VendingMachine.sol:VendingMachineContract",
								"label": "productName",
								"offset": 0,
								"slot": "0",
								"type": "t_string_storage"
							},
							{
								"astId": 28,
								"contract": "VendingMachine.sol:VendingMachineContract",
								"label": "price",
								"offset": 0,
								"slot": "1",
								"type": "t_uint256"
							},
							{
								"astId": 30,
								"contract": "VendingMachine.sol:VendingMachineContract",
								"label": "image",
								"offset": 0,
								"slot": "2",
								"type": "t_string_storage"
							},
							{
								"astId": 32,
								"contract": "VendingMachine.sol:VendingMachineContract",
								"label": "buyDate",
								"offset": 0,
								"slot": "3",
								"type": "t_uint256"
							}
						],
						"numberOfBytes": "128"
					},
					"t_struct(Product)17_storage": {
						"encoding": "inplace",
						"label": "struct VendingMachineContract.Product",
						"members": [
							{
								"astId": 10,
								"contract": "VendingMachine.sol:VendingMachineContract",
								"label": "name",
								"offset": 0,
								"slot": "0",
								"type": "t_string_storage"
							},
							{
								"astId": 12,
								"contract": "VendingMachine.sol:VendingMachineContract",
								"label": "price",
								"offset": 0,
								"slot": "1",
								"type": "t_uint256"
							},
							{
								"astId": 14,
								"contract": "VendingMachine.sol:VendingMachineContract",
								"label": "stock",
								"offset": 0,
								"slot": "2",
								"type": "t_uint256"
							},
							{
								"astId": 16,
								"contract": "VendingMachine.sol:VendingMachineContract",
								"label": "image",
								"offset": 0,
								"slot": "3",
								"type": "t_string_storage"
							}
						],
						"numberOfBytes": "128"
					},
					"t_struct(Transaction)24_storage": {
						"encoding": "inplace",
						"label": "struct VendingMachineContract.Transaction",
						"members": [
							{
								"astId": 19,
								"contract": "VendingMachine.sol:VendingMachineContract",
								"label": "buyer",
								"offset": 0,
								"slot": "0",
								"type": "t_address"
							},
							{
								"astId": 21,
								"contract": "VendingMachine.sol:VendingMachineContract",
								"label": "productName",
								"offset": 0,
								"slot": "1",
								"type": "t_string_storage"
							},
							{
								"astId": 23,
								"contract": "VendingMachine.sol:VendingMachineContract",
								"label": "price",
								"offset": 0,
								"slot": "2",
								"type": "t_uint256"
							}
						],
						"numberOfBytes": "96"
					},
					"t_uint256": {
						"encoding": "inplace",
						"label": "uint256",
						"numberOfBytes": "32"
					}
				}
			},
			"userdoc": {
				"kind": "user",
				"methods": {},
				"version": 1
			}
		}
	}
}